:020000040800F2
:10000000F808002099020008D5020008D70200086D
:10001000D9020008DB020008DD0200080000000031
:10002000000000000000000000000000DF020008E7
:10003000E102000800000000E3020008E5020008F9
:10004000E7020008E7020008E7020008E7020008EC
:10005000E7020008E7020008E7020008E7020008DC
:10006000E7020008E7020008E7020008E7020008CC
:10007000E7020008E7020008E7020008E7020008BC
:10008000E7020008E7020008E7020008E7020008AC
:10009000E7020008E7020008E7020008E70200089C
:1000A000E7020008E7020008E7020008E70200088C
:1000B00061240008E7020008E7020008E7020008E0
:1000C000E7020008E7020008E7020008E70200086C
:1000D000E7020008E7020008FD250008E702000823
:1000E000E7020008E7020008E7020008E70200084C
:1000F000E7020008E7020008E7020008E70200083C
:10010000E7020008E7020008E7020008E70200082B
:10011000E7020008E7020008E7020008E70200081B
:10012000E7020008E7020008E7020008E70200080B
:10013000E7020008E7020008E7020008E7020008FB
:10014000E7020008E7020008E7020008E7020008EB
:10015000E7020008E7020008E7020008E7020008DB
:10016000E7020008E7020008E7020008E7020008CB
:10017000E7020008E7020008E702000800000000AC
:10018000E7020008E702000800F002F800F075F846
:100190000AA090E8000C82448344AAF10107DA45E2
:1001A00001D100F06AF8AFF2090EBAE80F0013F0BF
:1001B000010F18BFFB1A43F0010318473C3A000037
:1001C0005C3A00000A444FF0000C10F8013B13F0B9
:1001D000070408BF10F8014B1D1108BF10F8015BA0
:1001E000641E05D010F8016B641E01F8016BF9D193
:1001F00013F0080F1EBF10F8014BAD1C0C1B09D1EA
:100200006D1E58BF01F801CBFAD505E014F8016B5B
:1002100001F8016B6D1EF9D59142D6D370470000ED
:100220000023002400250026103A28BF78C1FBD8FF
:10023000520728BF30C148BF0B607047662903F0E2
:100240001184642900F0BA80632900F054840020EE
:1002500070471FB503F0F9FB00F0C4FC0400002058
:10026000002102F0C7FF401C60600020002102F066
:10027000D7FFE0601FBD10B510BD00F07AFE11463B
:10028000FFF7E7FF02F098FE00F0DAFE03B4FFF795
:10029000F2FF03BC01F0A2F916481749174B994227
:1002A0003CBF50F8042B41F8042BF8D314494FF00D
:1002B00000028B4238BF43F8042BFAD3DFF8440026
:1002C000016841F470010160BFF34F8FBFF36F8F7E
:1002D0000D480047FEE7FEE7FEE7FEE7FEE7FEE724
:1002E000FEE7FEE7FEE7FEE708480949094A0A4B30
:1002F00070470000543D00080000002098020020D4
:10030000F808002088ED00E089010008F8020020CC
:10031000F8080020F8040020F804002010B5044676
:1003200000F04AF90068005D000704D5DF2C02D018
:10033000A4F1200010BD204610BD00000FB41CB574
:10034000084B06AA7B4469460090059800F0B1FB73
:1003500004460020694600F0BFFB20461CBC5DF847
:1003600014FB00009107000070B50C460546012AF9
:1003700005D02878800600D5EA69002302E0012331
:1003800005E05B1C934202D2E05C0028F9D1A86929
:10039000E618C01AA861286A184428622846AFF3F4
:1003A000008004E0D5E9012114F8010B9047B44224
:1003B000F8D32846AFF3008070BD00002DE9F0416E
:1003C0000646002410687529314616A510D0AFF3F3
:1003D0000080002802DA404213A507E031688A074E
:1003E00001D512A502E0490704D511A5012401E0B9
:1003F000AFF3008000210A2206F1240709E0B0FBD8
:10040000F2FCB0FBF2F302FB1C00303078541846CB
:10041000491C0028F3D123462A463046BDE8F04166
:1004200000F0D6B8000000002D0000002B000000F6
:10043000200000002DE9F0474FF0000A89460446ED
:10044000C0F820A02046E1688847002876D02528FB
:1004500006D0D4E901219047206A401C2062F1E7D0
:10046000E168204600258847C4F81CA006460027FE
:10047000C4F818A02A2E09D0304602F000FB38B389
:1004800004EB8708303EC8F8186019E059F8041BDF
:10049000204604EB87029161E1688847012F0646F8
:1004A00018D1E069002820DA25F020051DE0D8F8F1
:1004B000180000EB800006EB40003038C8F8180048
:1004C0002046E1688847064602F0D9FA0028EED1B6
:1004D000012F0AD02E2E08D12046E16888477F1CC4
:1004E0000646022F45F02005C4DBA069002803DA88
:1004F000404245F00105A061E80701D025F0100554
:10050000B6B1A6F14100192802D8203645F400659D
:100510004A463146204625604D46FFF78FFE58B1CA
:10052000012806D0ED1D25F0070000F1080989E734
:1005300004E005F1040985E730468AE7206ABDE852
:10054000F08770B5064600F03FF80468054630466F
:100550000A22002100F0E8FA2C6070BD10B50446B4
:1005600010F0030F08BF11F0030F40F015804FF09B
:10057000013E121FC0F20E8051F8043BA3EB0E0C9B
:100580002CEA030C1CEACE1C08BF40F8043BF0D058
:10059000A1F1040102F10402521E08DB11F8013B33
:1005A000002B00F8013BF7D1114600F0F5FA204688
:1005B00010BD70477047704710B500F013FB001D69
:1005C00010BD00BF312C0000004870479802002089
:1005D0002DE9F0470D4699469246044600F124085D
:1005E0000168880604D5E06921F01001216000E06F
:1005F0000120A84201DD471B00E00027A1697A190C
:1006000002EB0900081AA0612078C00602D4204637
:10061000AFF30080002608E0D4E901211AF80600B3
:100620009047206A401C761C20624E45F4DB2078FF
:10063000C0060AD52046AFF3008006E0D4E90121C8
:1006400030209047206A401C2062381EA7F1010725
:10065000F4DC07E0D4E9012118F805009047206A8E
:10066000401C2062281EA5F10105F3DC2046AFF3F3
:1006700000802078000602D50220BDE8F087012026
:10068000FBE770472DE9FF4F0C461E464FF0FF3742
:100690008BB0D2E90001DDF860800A908A46C1F390
:1006A0000A5505B93D46002108464FF00000BAF151
:1006B000000F00F4400005DA00EB80004FF4400129
:1006C00001EA50004FEA9059B9F1010F00DDB94637
:1006D0000A9850EA4A000ED044F61050A5F2FF35B1
:1006E00045432F14B8F1000F1ED07542291E1EDDA0
:1006F000C9F100021CE0B8F1010F4FF0000001D079
:10070000302103E0F24305E02154401CB042FBDB02
:1007100030460022002121540B99C1F80880C1E91C
:1007200000200FB000F0BCB9BD1B6D1CDEE74A46CF
:1007300000DA694206A800F083FB06AB93E80700E5
:1007400003AB83E8070050460A9901F092F98DE85F
:100750000700A0F500501F3800900398002D0ADD17
:1007600042F21F014A460844002303A90390684649
:1007700001F03EFC09E0A0F500504A461F38002376
:1007800003A90390684601F05DFC8DE807000004B2
:10079000000C03D04FF0FF30410800E01046B8F1E4
:1007A000000F03D00022009215461EE0751E05D4EE
:1007B00000F01CFA303262556D1EF9D5B3460122A5
:1007C000084302D000227F1C04E02078302801D1A9
:1007D00000227F1E002A099784D01DE0112D07DA20
:1007E00000F004FA303262556D1C50EA0102F5D176
:1007F000084302D00098C8B10EE00021681E05E051
:10080000235C625C63542254401E491C8142F7DB26
:10081000AB46A81B401E0990002004F80B000B9863
:10082000099AC0F80880C0E9002B7AE711264FF03A
:10083000000857E72DE9F04F88460446D21D22F004
:10084000070191B0D1E90001CDE90A0101F0D6FF1D
:1008500002460B98C00F01D02D2007E020688107C9
:1008600001D52B2002E0202101EAC000032A0990D3
:1008700001D0072A05DB03464146204600F0FCF97B
:100880000BE12078800601D5E06900E00620B8F190
:10089000650F814606D0B8F1660F18D0B8F1670F22
:1008A00070D131E00020B9F1110F009001DB11236C
:1008B00001E009F101030AAA01A90CA8FFF7E2FE71
:1008C000DDE90C70002609F10105834647E00120AF
:1008D0004B4600904FF000470AAA01A90CA8FFF769
:1008E000D1FEDDE90DB00C995D46002610B909F185
:1008F00001000D18B9EB050003D4C0F1FF3609F172
:100900000105A5EB09002BE0B9F1010F01DA4FF069
:1009100001090020B9F1110F0090484601DD1123B3
:1009200000E003460AAA01A90CA8FFF7ABFEDDE927
:100930000C704D4600268346207800070AD4AB454C
:1009400000DA5D4601A8012D04DD411911F8011CF2
:10095000302907D04F4502DA17F1040F04DA0120DD
:1009600082460FE06D1EEEE7002F02DCED1B3E44D9
:1009700003E0781CA84200DD7D1CB81B00F1010AD1
:100980004FF000472078000703D4AA4501DB4FF061
:10099000FF3A0021B7F1004F0DF143088DF84310E5
:1009A00024D002202B23002F01DA7F422D230A219D
:1009B000021EA0F1010000DC5FB197FBF1FC97FB88
:1009C000F1F201FB1C7C17460CF1300C08F801CD4C
:1009D000EEE7A8F1010003702188090501D5452142
:1009E00000E06521A0F1010800F8011C09980FA999
:1009F000A1EB0807FF1D00B10120411901EBEA70CE
:100A0000A1693844081A401EA0612078C00602D4AB
:100A10002046AFF30080099828B1D4E9012190471E
:100A2000206A401C20622078C00622D52046AFF301
:100A300000801EE0002E04DBB34502DD01A8805DCE
:100A400000E03020D4E901219047206A401C206258
:100A5000761CAAF101005FEA000A0AD100F0C2F890
:100A6000C0680168405CD4E901219047206A401CBD
:100A70002062281EA5F10105DCDC07E0D4E9012194
:100A800018F8010B9047206A401C2062381EA7F11D
:100A90000107F3DC2046AFF30080032011B041E6EC
:100AA00030BCBDE8C08F000001694A1C02610878B3
:100AB000704700B58FB0CDE901310021059105499E
:100AC0007944CDE9031011466846FFF7B3FC0FB037
:100AD00000BD0000E5FFFFFF0A6802F8010B0A6095
:100AE000704710B5436913B1AFF3008001E0FFF721
:100AF0003BFC012010BD127800F124010A70002295
:100B00004A700122EDE711684FF0FF32E9E77CB54A
:100B1000054600236846CDE9003300F05DF96946DB
:100B2000284601F099FF7CBD2DE9F04791460F461C
:100B300080460446002614F8015B2DB1FFF73CFD0A
:100B40000068405DC007F6D12B2D02D02D2D18D0A6
:100B5000641E4A463946204600F0CEF827B139686F
:100B6000A14201D1C7F800804FF0020471050BD5F6
:100B70004042002803DDFFF727FD0460A007BDE821
:100B8000F08746F48066E4E70028F8DAFFF71CFDFA
:100B900004606FF00040F2E74FF000020429C0F05B
:100BA000128010F0030C00F0BF81CCF1040CBCF1FA
:100BB000020F18BF00F8012BA8BF20F8022BA1EBF1
:100BC0000C0100F0B1B95FEAC17C24BF00F8012B31
:100BD00000F8012B48BF00F8012B70470048704710
:100BE0009802002000487047B802002030B5B0F1EC
:100BF0000A024FEA900E71F100034EEA817EB0EBDB
:100C00000E0061EB91014FEA101E4EEA017E10EBDF
:100C10000E0041EB11114FEA102E4EEA016E10EB5F
:100C20000E0041EB11214FEA104E4EEA014E10EB3F
:100C30000E0041EB1141401841F100014FEAD00094
:100C400040EA41704FEAD10110EB80054FEA810480
:100C500044EA907444EB01046D1944EB0404521B04
:100C6000A3414FF0000348BF0A3200D530BD401CFD
:100C700041F1000130BD00002DE9F0411F4604465E
:100C800003260168072A01F4006004DB08B116A5F9
:100C900005E016A503E008B115A500E015A521F0B3
:100CA00010002060A069C01EA0610FB1401EA061AD
:100CB0002046AFF300804FB1D4E901213846904778
:100CC000206A401C2062C01C206206E0206AFAE70D
:100CD000D4E9012115F8010B9047761EF8D2204681
:100CE000AFF30080BDE8F0814E414E006E616E00B2
:100CF000494E4600696E66002DE9F05F8246154652
:100D00008B4600270AF10104B9460078302801D04B
:100D10009DB113E014F8010B0127782803D058285F
:100D200001D045B10AE00DB1102D07D1002714F80C
:100D3000010B102502E0082500E00A250026B04638
:100D40000EE005FB080005FB06F101271FFA80F8FD
:100D500001EB1046B6F5803F00D3B94614F8010BFD
:100D6000294600F03FF90028EBDABBF1000F05D06F
:100D70000FB1641E00E05446CBF80040B9F1000FFB
:100D800006D0FFF721FC02210160C81E00F003B865
:100D900048EA0640FAE730BCBDE8C09F0FB4002324
:100DA00000B589B00CA900910B99CB60214B7B4415
:100DB0000693214B7B44079304236FF00042CDE957
:100DC00001321E4A7A446B4608920246002002F025
:100DD000ABFE09B05DF814FB70B506464FF0FF306E
:100DE00015460C46324686B00091CDE901016946B0
:100DF0000020049004A8FFF7D1FF024604982118B0
:100E000025B108B1084600E0204628600498002873
:100E10000DD0002A02DD0098884208D03246081B17
:100E200069460094CDE9010404A8FFF7B7FF06B0B6
:100E300070BD00004F020000670200000B020000BE
:100E40002DE9F047814616468AB0354878440DC8EA
:100E50008DE80D0032487844801C03AC0DC884E84E
:100E60000D0041F69B300844372190FBF1F290FBD6
:100E7000F1F5A5F1800501FB12041B3C02D564428B
:100E8000012000E00020DFF898A080460027FA4407
:100E9000AAF1BE0A0EE0E0070AD03246684607EB28
:100EA000470101230AEB810101F0CCF88DE807002E
:100EB00064107F1C002CEED1194F7F44AE3F19E027
:100EC000E80715D007EB04100DF1180A90E80E00A2
:100ED0008AE80E00C068F04201D1981908903246A5
:100EE000012306A903A801F0ADF803AB83E80700CE
:100EF0006D10641C002DE3D14FF0010332466946AA
:100F0000B8F1000F03A802D001F072F801E001F07F
:100F100099F8C9E90001C9F808200AB0BDE8F087CE
:100F2000902D00004FF0000200B5134694469646FF
:100F3000203922BFA0E80C50A0E80C50B1F12001EC
:100F4000BFF4F7AF090728BFA0E80C5048BF0CC09A
:100F50005DF804EB890028BF40F8042B08BF7047F8
:100F600048BF20F8022B11F0804F18BF00F8012B6A
:100F700070477546FFF732FEAE4605006946534698
:100F800020F00700854618B020B5FFF7ADF9BDE8A1
:100F900020404FF000064FF000074FF000084FF0E0
:100FA000000B21F00701AC46ACE8C009ACE8C00971
:100FB000ACE8C009ACE8C0098D46704710B5FFF732
:100FC00003FB006810BD10B50446FFF7FDFA04608E
:100FD00010BD10B50446FFF7EFFA0068005D00F0A1
:100FE000010010BD3A2800D2303820F02002412AFA
:100FF00001D3A2F13700884201D34FF0FF30704790
:10100000426842B1016811F8013B23B1521EC0E9A8
:101010000012184670470121C160881E704742685F
:101020005AB1C368016843B983688B4205D0491E31
:10103000521CC0E90012002070474FF0FF3070478B
:1010400010B50446AFF300802046BDE81040FFF71E
:101050001DB900004FF0013C50F8042B51F8043B3F
:101060009A4221D1A2EB0C03934313EACC1317D17C
:1010700050F8042B51F8043B9A4215D1A2EB0C0313
:10108000934313EACC130BD150F8042B51F8043BD3
:101090009A4209D1A2EB0C03934313EACC13DBD0A1
:1010A0004FF00000704700BFD01A01BAB1FA81F1C9
:1010B00001F0180122FA01F0CB40C1F12001DBB2AE
:1010C000C0B2C01A2CFA01F3D11A914311EAC3112C
:1010D000E6D170472DE9FF4F06468BB00878FF2810
:1010E00006D0491C2D2805D000244FF0000908E047
:1010F00000200CE00124F8E709EB8903491C00EB10
:1011000043090878FF28F7D114B1C9F100008146DE
:10111000107800252C46AA4629462D2801D02B28D8
:1011200004D1521C2D2813D0002082468B46107803
:10113000FF280FD04FF0000C0A21521CA5FB0178AC
:1011400004FB018105FB0C11C5194BEB0104EEE713
:101150000120EAE7002108464FF00000BAF1000F35
:1011600002D000EB80004008C0F38157012F01DD61
:101170004FF0FF370E9955EA040009EB01080BD038
:101180004FF0020918F5FA7F16DA4FEACA70002FFD
:10119000706008DD012007E04FEACA70C6E900B0C0
:1011A0000FB000F013BA00203060FFF70DFAC0F85E
:1011B00000901821084616E0B8F5FA7F18DD002FD8
:1011C00002DAF748784401E0F6487844D0E90010A4
:1011D000C6E9001040EACA707060FFF7F5F9C0F880
:1011E0000090142108460FB000F0F3B902F037BCAC
:1011F000002108464FF00000B8F10001099002DA22
:10120000C7F1000200E03A4601DAC8F1000106A881
:10121000FFF716FE06AB93E8070003AB83E8070071
:1012200044F23E005BEA04010090584604D144F2C7
:101230001E012C465D460091210C0904014306D194
:101240000099240444EA15442D041039009104F057
:101250007F41014306D10099240244EA15642D021E
:101260000839009104F07041014306D1009924012E
:1012700044EA15742D01091F009104F04041014317
:1012800006D10099A40044EA9574AD00891E00912E
:1012900004F00041084304D100986D196441401ED8
:1012A00000904FF001033A466846B8F1000FCDE9CF
:1012B000014503A902DD00F0DAFE01E000F0ADFE19
:1012C000BAF1000F04460D4601D084F0004400211D
:1012D00008464FF00000099940F2FF77484010F0AF
:1012E0000C0F07D124F00040284303D0C4F30A5068
:1012F000B84212D1FFF768F9C0F80090C4F30A5061
:10130000B8420AD1A8487844D0E90010C6E90010D4
:1013100004F000410843706042E7C6E900543FE72B
:101320002DE9FF4F1F464FF0000A4FF0FF384546AA
:1013300091B0D7E90146CDF83CA0FFF753FCC06857
:101340000168405C1090B96912986D1C8847396A31
:10135000814688470028F6D1B9F1FF3F0AD0002E18
:1013600024F4D06411DDB9F12B0F08D0B9F12D0FA1
:101370000BD102E0404615B013E744F48064B9692C
:1013800012986D1C8847761E8146600504A901D518
:101390002D2000E02B20002E01F1010B0DF1300873
:1013A0008DF810003FDDB9F1690F08D0B9F1490F90
:1013B00005D0B9F16E0F02D0B9F14E0F1CD13B46EA
:1013C00001A8009580E85002DDE912126FF00200DA
:1013D00002F0AEFBC11CCED10EE0B96912986D1CB3
:1013E000884781461398761E44F4007405600F9870
:1013F000401C002E0F9016DDB9F1300FEDD0B9F181
:10140000780F02D0B9F1580F0DD10F9801280AD1E9
:101410003B46CDE90054DDE91212001F029602F0AE
:1014200085FBC11CA7D1109989453ED144F08004A9
:1014300006E01399681CAAF1010A44F400740860DC
:10144000B9696D1C1298761E884730288146F0D005
:101450002BE01099894505D1200603D4761E44F06F
:10146000800418E0484601F00AFB08B3761E0DF12F
:1014700023018B4544F4007408D2A9F130000BF825
:10148000010B200607D5AAF1010003E0200602D4D3
:101490000AF101008246A00502D51399681C086074
:1014A000B96912986D1C88478146002ED1DC53E043
:1014B000002E51DDB9F1650F02D0B9F1450F4BD1C6
:1014C000A00549D5B9696D1C1298761E24F44074A4
:1014D0008847002E81460CDD2B2804D0B9F12D0F52
:1014E00007D144F48074B96912986D1C8847761E40
:1014F0008146E00501D52D2100E02B2108F8011BD4
:10150000CDF8008021E0761E0DF13901884544F4C4
:1015100000740CD2A9F1300010F0FF0088F8000030
:1015200002D10099884509D908F1010806E0E005D3
:1015300001D51E4801E042F20F708246B969129847
:101540006D1C8847814613980560002E04DD4846CF
:1015500001F095FA0028D6D1F96912988847FF2042
:1015600053468BF8000088F8000000200A900B908A
:1015700004AA0CA90AA8FFF7ADFDA00502D46FF0DC
:101580000100F8E614F0240F12D0E0071CD13868EF
:10159000DDE90A12031D3B600068C0E9001213E098
:1015A000582A00004A2A00000E290000F1D8FFFF47
:1015B0000AA9684601F050FAE00705D13868009A98
:1015C000011D3960006802602846D4E630BCBDE8E1
:1015D000C08F30BCBDE8C04FFFF708BE01491820DE
:1015E000ABBEFEE7260002002DE9FF4F1F464FF07D
:1015F0003C0987B04FF00042DDE9141001F1010809
:10160000DDF858A002EA4050039000200590834680
:10161000054604460490B969461E08988847AAF111
:10162000010A0290BAF1000F3BDD02982E2815D076
:101630001021FFF7D7FC00282EDB4FF0010B059996
:10164000014317D0B9F1000F0BDB4A46C11700F078
:10165000FDF905430C43A9F1040905E001200490BC
:101660000BE008B145F0010501200590049820B970
:10167000361D02E0049800B1361FB969089808F1D8
:1016800001088847BBF1000FAAF1010A0290C9D0F6
:101690000999C1F80080C5E70298702808D0502841
:1016A00006D0F96908988847BBF1000F14D04FE0C5
:1016B000002002900120BBF1000F049009D0B9690D
:1016C000089808F101088847AAF10109B9F1000F4B
:1016D00007DCF969089888476FF001000BB000F04B
:1016E00013B92B2804D02D280CD14FF0FF300490D3
:1016F000B969089808F101088847A9F10109B9F109
:10170000000FE6DD411CE4D00A21FFF76BFC002846
:10171000DFDB029908F1010801EB810100EB4100D8
:101720000290B969089888470A21FFF75BFC099A7B
:10173000A9F10109B9F1000FC2F8008001DD00280C
:10174000E7DAF969089888470499029800FB01666E
:1017500055EA040004D004F04041090002D006E03C
:10176000039898E0A40044EA9574AD00B61E04F016
:101770000041080002D16D196441761E159810F0E1
:10178000240F03D04FF00B095C4803E04FF0280909
:101790006FF07D008246564507DAAAEB06018944C0
:1017A000B9F1410F01DD4FF0410901200021A9F1FC
:1017B000010200F04BF9024628400B462140084345
:1017C00001D0012100E00021501E029143F1FF31C0
:1017D00028402140084301D0012000E00020029968
:1017E000834651EA0B014FD0002108464FF000001C
:1017F000039900F4400039B100EB80004FF4400140
:1018000000EBD07001EA60008015012802DD4FF086
:10181000FF3000E013D0401C36D0029860B3BBF11B
:10182000000F0CD14A460120002100F00FF928409A
:101830002140084301D0012000E00020E0B1012058
:101840004A46002100F002F9034640190A46614168
:101850002D1A8C4111D3B9F1400F09DD159810F004
:10186000240F02D0AAF1340603E0AAF1170600E023
:10187000761C00254FF0004406E05B1E42F1FF326B
:1018800020EA030521EA0204CAF10100B04206DAA7
:101890001B49039808430190002000900EE0039A32
:1018A000C4F3D321E80A0A43164940EA44500A43E4
:1018B0003146CDE90002684601F0D7F8159810F0DE
:1018C000240F0BD01598C00715D13868DDE9001238
:1018D000031D3B600068C0E900120CE002A86946E5
:1018E00001F0BAF81598C00705D13868029A011DB1
:1018F0003960006802604046F0E6000002FCFFFF2D
:101900000000F07F0000F03F30BCBDE8C08F000059
:101910002DE9FF4F92461D4685B04FF00041DDE9AD
:10192000124BDDE914727F1E01EA4B50414940F031
:10193000FF4940EA0108002122F0200049280491D3
:1019400002D04E2828D04CE03BA0012607C88DE8E5
:101950000700A9690698641C88477F1E014606D4C3
:101960001DF8060018B121F0200181420BD0E96971
:1019700006988847032E34D0082E32D06FF001002D
:1019800009B000F05FB8761C032E01D0082EE0D11C
:10199000601CCAF80000DCE7A9690698641C884747
:1019A0007F1E2AD420F02000412826D1A96906985C
:1019B000641C88477F1E20D420F020004E281CD1B4
:1019C000A9690698641C88477F1E48F4002849F4DA
:1019D0008009CAF8004001D4282806D0E969069891
:1019E00088475FEACB7012D022E0A9690698641C90
:1019F00088477F1E01D4002803DAE96906988847E2
:101A0000BCE72928F1D1641CCAF80040E9E71BF0C3
:101A1000240F07D028680499031D2B600068C0E9D3
:101A2000001805E02868021D2A600068C0F80090D0
:101A30002046A5E70000F07F494E46494E495459DB
:101A40000000000030BCBDE8C08F7047B2F1200339
:101A50000AD5C2F1200301FA02F120FA03F300FAD9
:101A600002F041EA0301704700FA03F14FF0000071
:101A700070475FEA400C08BF91F0000F4FEA8C23DB
:101A80004FEAC12243EA51514FEA1C5018BF00F5FA
:101A9000F0404FEA300018BF41F000415FEA6C5C53
:101AA00000F02980BCF1FF3F08BF40F08040704744
:101AB000130C06BF12044FF0100C4FF0000C130E65
:101AC00004BF12020CF1080C130F04BF12010CF139
:101AD000040C930F04BF92000CF1020CD30F04BF4F
:101AE00052000CF1010C11464FF00002A0F11F0052
:101AF000A0EB0C00704711F0004F08BF704731F0A9
:101B000000413FF4D5AF0B0C06BF09044FF0100C99
:101B10004FF0000C0B0E04BF09020CF1080C0B0F68
:101B200004BF09010CF1040C8B0F04BF89000CF1F8
:101B3000020CCB0F04BF49000CF1010CCCF12003C7
:101B4000A0EB0C0022FA03F302FA0CF241EA0301C3
:101B500000F10100704720F07F4C80EA030023F081
:101B60007F47ACEB070303F57C5300F0004003F123
:101B7000FF032DE980494FEA154B09B44FEA14439E
:101B800025EA0B4E24EA03480FF2042606EB13273E
:101B900049083E785FEA320203FB0667C7F5000793
:101BA00007FB06F64FEA54374FEAD64606F102061F
:101BB00007FB066CCCF1005C4FEA1C472CEA074C93
:101BC00007FB06F40CFB06F504EB15464FEA9616E8
:101BD00034BF00204FF000404FEAD13706FB07FC2E
:101BE0004FEA1C4C0CFB0BF7D21B03FB0CF761EB11
:101BF00007010CFB0EF7B0EB074072EB17420CFB32
:101C000008F734BFA2EB0742B2EB074261EB174182
:101C10004FEA0C444FEA910706FB07FC4FEA1C4CC5
:101C20000CFB0BF7B0EBC74072EB573203FB0CF722
:101C300034BFA2EBC742B2EBC74261EB57310CFB9A
:101C40000EF7B0EBC70072EB57720CFB08F734BF0E
:101C5000A2EBC702B2EBC70261EB5771039F4FEAD9
:101C6000816141EA921104EBCC044FEAD1374FEA8B
:101C7000826206FB07FC42EA90124FEA80604FEA5C
:101C80001C4C0CFB0BF7D21B03FB0CF761EB0701A1
:101C90000CFB0EF7B0EB074072EB17420CFB08F79A
:101CA00034BFA2EB0742B2EB074261EB17414FEAA8
:101CB0008C554FEA910704EB9C2406FB07FC4FEA86
:101CC0001C4C0CFB0BF7B0EBC74072EB573203FB1D
:101CD0000CF734BFA2EBC742B2EBC74261EB5731FE
:101CE0000CFB0EF7B0EBC70072EB57720CFB08F75A
:101CF00034BFA2EBC702B2EBC70261EB577115EB21
:101D00004C254FEA816141EA92114FEA82624FEA23
:101D1000D13742EA901206FB07FC44F100044FEA77
:101D200080604FEA1C4C0CFB0BF7D21B03FB0CF73B
:101D300061EB07010CFB0EF7B0EB074072EB1742AB
:101D40000CFB08F734BFA2EB0742B2EB074261EB92
:101D5000174115EB1C154FEA813141EA92414FEAD8
:101D6000823242EA90424FEA80304FEA0C7644F1E8
:101D7000000448EA03434EEA0B484FF0000EB2EB72
:101D8000080C71EB030724BF624639464EEB0E0E7A
:101D90004FF0000B0018524149414BEB0B0BB2EBDB
:101DA000080C71EB03077BF1000B24BF6246394638
:101DB0004EEB0E0E4FF0000B0018524149414BEB19
:101DC0000B0BB2EB080C71EB03077BF1000B24BF8C
:101DD000624639464EEB0E0E51EA020718BF46F036
:101DE000010616EB0E7655F1000254F1000103D501
:101DF000BDE88901BDE80088BDE88901BDE800486B
:101E0000B619524141EB0101A3F1010370478080F3
:101E10007F7E7D7C7B7A7978777676757473727144
:101E200071706F6E6E6D6C6C6B6A6A6968686766FC
:101E300066656464636362616160605F5F5E5E5D8E
:101E40005D5C5C5B5B5A5A59595858575756565502
:101E500055555454535352525251515050504F4F64
:101E60004F4E4E4D4D4D4C4C4C4B4B4B4A4A4A49B4
:101E700049494848484747474746464645454544F7
:101E800044444443434343424242424141410000AF
:101E900046EA0646A3F570534FEA164646EA42560E
:101EA0004FEAD22242EA415210B54FEAD121A3F1C2
:101EB000010300F02FF820F0004000F1020C00F0C8
:101EC000004701EB00501146BCF5006F40EA0700E7
:101ED00000D210BDBAF1000F0AD01CB503B44FF008
:101EE00004004FF004014FF000000FBCBDE81040AB
:101EF0004FF00001BBF1010FB9BF04484FF0FF31B3
:101F00000348002140EA070010BD00BFFFFFEF7F3C
:101F10000000F07F002B9C4630D477002BD01CB5FE
:101F20004FEA370703B44FF010004FF01001BAF139
:101F3000000F06D0BCF1000FDCBF40F0080040F0FD
:101F400008014FF000000FBCBDE810400BF1010B81
:101F5000BBF1010F08BF5FEA170722BF12F10102B0
:101F600011F101014FF0004143F1000300F0004086
:101F700043EA00007047F9D35708D0E746EA06461F
:101F800013F1400F4FEA16461FDD13F1200FDFBF9C
:101F900016430A46002120335B42BED0C3F120071E
:101FA00046EA064602FA07F74FEA164646EA0706E9
:101FB000C3F1200722FA03F201FA07F721FA03F12D
:101FC0004FF0000342EA0702A7E746EA020646EAA4
:101FD00006464FEA164646EA0106BCBF46EA0646F2
:101FE000360C4FF000034FF000024FF0000194E771
:101FF0002DE9804C9A46934670B491E8380007C8A2
:1020000031EA400C48BF34EA430C03D5FFF7A3FD87
:10201000FFF780FFF0BCBDE8008C2DE9804C9A46AC
:10202000934670B491E8380007C831EA400C48BFC5
:1020300034EA430C03D5FFF78EFDFFF729FFF0BC10
:10204000BDE8008C2DE9804C9A46934670B491E827
:10205000380007C810F0804F08BF13F0804F03D13D
:1020600000F01AF8FFF756FFF0BCBDE8008C2DE930
:10207000804C9A46934670B491E8380007C810F037
:10208000804F08BF13F0804F03D100F005F8FFF731
:10209000FFFEF0BCBDE8008C20F07F4780EA030023
:1020A00023F07F4C07EB0C03A3F57C5300F00040BA
:1020B000A3F1FE0392F0000F00F0B38095F0000F43
:1020C00000F077802DE901494FEA11404FEA1446AC
:1020D00021EA004800FB06FC24EA064708FB06F656
:1020E00007FB08F800FB07F718EB06484CEB164C0B
:1020F0004FEA124B18EB07484FEA15464CEB1740D6
:1021000022EA0B4E0BFB06FC25EA06470EFB06F601
:1021100007FB0EFE0BFB07F71EEB064E4CEB164CB7
:102120004FF000061EEB074E4CEB174B18EB0B085D
:1021300040F1000018EB0E0B58EB000840F10000D6
:102140008F1A4FF000013CBFC943661B14BFB5EBAB
:10215000040C00213CBFC943F61B4FEA17444EEA6A
:102160008E0E27EA04454FEA1C4704FB07622CEA5F
:10217000074C05FB07F70CFB05F604FB0CFC16EB04
:10218000074642EB174216EB0C4642EB1C421BEB98
:10219000060658EB0202414146EA9E0601D5BDE81B
:1021A0000189B619524141EB0101A3F10103BDE8D8
:1021B00001894FEA14454FEA114724EA054621EA0E
:1021C000074C05FB07F406FB07F70CFB06F105FBC4
:1021D0000CFC11EB074144EB17444FEA124711EB9B
:1021E0000C4144EB1C4422EA074C05FB07F206FBBA
:1021F00007F70CFB06F605FB0CFC16EB074642EB5B
:10220000174216EB0C4642EB1C456A1854F10001CC
:1022100048BF7047B619524141EB0101A3F10103D8
:10222000704795F0000F37D04FEA11424FEA14473C
:1022300021EA024624EA074C02FB07F106FB07F7F6
:102240000CFB06F402FB0CFC14EB074441EB1741BA
:102250004FEA154714EB0C4441EB1C4125EA074CAF
:1022600002FB07F506FB07F70CFB06F602FB0CFC6E
:1022700016EB074645EB174516EB0C4645EB1C42A3
:10228000121951F1000148BF7047B619524141EB94
:102290000101A3F1010370474FEA14454FEA1147CA
:1022A00024EA054621EA074C05FB07F106FB07F780
:1022B0000CFB06F24FF0000605FB0CFC12EB07428C
:1022C00041EB174112EB0C4251EB1C4148BF7047E8
:1022D000921841EB0101A3F1010370475E490968BF
:1022E00021F007015C4A11601146096841F00201C2
:1022F00011605A49096841F48071584A116000BF61
:102300005649096801F480610029F9D01020534929
:10231000496821F0F851514A51601146496841EA33
:10232000006151601146096821F08071116000BFA1
:102330004A49096801F00071B1F1007FF8D04749BE
:10234000C96821F00301454AD1601146C96841F0CE
:102350000201D1601146C96821F4FE4141F4A05147
:10236000D1601146C96821F0700141F01001D160BF
:102370001146C96821F0C061D1601146C96841F0B9
:102380008071D1601146096841F08071116000BF11
:102390003249096801F000710029F9D02F49896894
:1023A00021F003012D4A91601146896841F0030133
:1023B000916000BF2949896801F00C010C29F9D10D
:1023C0002649896821F0F001244A91601146896804
:1023D00021F4E06191601146896821F460519160B7
:1023E0001146096821F08061116000BF1B4909682E
:1023F00001F08061B1F1806FF8D01849096921F4CA
:10240000FE41164A11611146096941F4C05111613A
:102410001146096941F4003111611146096941F41D
:10242000803111611146096841F08061116000BF7F
:102430000A49096801F080610029F9D0074988310B
:10244000096821F44001054AC2F888101146096E56
:1024500041F4001111667047002002400010024054
:1024600010B54FF08040006920F001004FF080412E
:1024700008611348007B412812D052280DD0532800
:1024800002D054280FD105E00D484168002000F02B
:10249000CFFD08E000F05CFE05E000F09BFD02E0EF
:1024A00000F0B6FC00BF00BF05484068401C04496E
:1024B000486008464068802801D10020486010BD6F
:1024C000080000200E49896D41F001010C4A916518
:1024D00084210160016A21F011010162016A41F069
:1024E00001010162C16841F00101C160416941F02F
:1024F00001014161016841F0010101607047000084
:10250000001002401A48C06C40F008001849C86426
:102510001848006820F470501649086008460068A2
:1025200040F42050086013482030006840F0EE600E
:102530001049203108600F480830006840F470509E
:102540000C4908310860081D006820F47050091D0E
:1025500008600846006840F4A05008600548001D67
:10256000006820F060000349091D08607047000002
:1025700000100240000C004810B51C48806D40F46B
:1025800000301A49886519488830006820F00C002E
:10259000C1F888000846D0F8880040F00400C1F86F
:1025A0008800FFF7AFFF124800F0AAF826200021AC
:1025B000002804DB0A07130E0E4A135406E00A072C
:1025C000140E0D4A00F00F031B1FD45400BF262029
:1025D000002809DB00F01F0201219140420992000E
:1025E00002F1E022C2F8001100BF10BD001002404D
:1025F0000044004000E400E018ED00E010B537486A
:10260000006800F02000002845D0344808300088D9
:102610003349344A12788854084632490978405C74
:102620000D2806D07F2809D12E492D4800F02EFA1A
:1026300030E02C492A4800F059FA2BE0294800786C
:1026400005280DDA2648274A1278815C23481C3871
:1026500000F0C0F823480078401C2249087018E0B8
:10266000032221A11D481C3800F094F81C481D4A83
:102670001278815C19481C3800F0ACF818481949E8
:102680000978445C0021017004700120154908702C
:1026900000BF00BF20E01148006800F08000D8B9FA
:1026A0000E48006800F0080008B100BFFEE70B48C4
:1026B000006800F0010008B100BFFEE707480068AD
:1026C00000F0010008B100BFFEE70448006800F018
:1026D000040008B100BFFEE710BD00001C4400402C
:1026E00000000020060000200D0A3E006422424344
:1026F0000723B2FBF3F100BF4A1E111EFCD1704745
:10270000016821F001010160016821F010210160E0
:10271000016821F400410160416821F440514160A9
:1027200042F28D01C160016841F00C01016018495D
:1027300088421BD1016841F020010160016821F04D
:1027400040010160016821F010010160016821F081
:1027500080010160016821F480710160016821F04D
:1027600040010160016821F001010160016841F050
:102770000101016000BFC16901F400110029FAD014
:1027800000BFC16901F480010029FAD07047000040
:1027900000440040F0B504460E46174600250CE004
:1027A00000BFE06900F080000028FAD0705D20854D
:1027B0004FF49670FFF79AFF6D1CBD42F0D300BF37
:1027C000E06900F040000028FAD0E06920F0400005
:1027D000E061F0BD30B504460D46E8B220854FF407
:1027E0009670FFF783FF00BFE06900F0400000280B
:1027F000FAD0E06920F04000E06130BD03B40198F8
:102800004100009850EAC12018BF04204A0D18BFAB
:1028100040F0010040F2FF72B2EB515F08BF40F0A0
:102820000200012808BF052002B070470000000028
:1028300030B52DED048B81B0B0EE408AF0EE608AA9
:102840006A4651EC180B00F043FB00989FED329B59
:102850007E300090002821DC53EC192B51EC180B32
:1028600000F092FE1AD0002140F608004FF0000060
:10287000044651EC180B00F0E9FC08EE100A40F693
:10288000080004EA00014FF00000B5EEC08AF1EE46
:1028900010FA04BF0220FEF796FB2DE00098FF28F7
:1028A00030DB002108464FF0000000F4400553ECF7
:1028B000192B51EC180B01F021F88CBF00240124D6
:1028C0000220FEF780FB9FED168A4DB1002C0CBF55
:1028D0004FF400004FF48000A84218BF9FED118A0A
:1028E000042108464FF00000002C01BFB1EE480A59
:1028F00001B0BDEC048B30BDB0EE480A01B0BDECB8
:10290000048B30BD51EC180B00F0A0FC01B000EEC0
:10291000100ABDEC048B30BD000000000000000078
:102920000000807FFFFF7F7F30B540F2FF742DED08
:10293000048BF0EE608A18EE901A85B0B0EE408AF3
:102940009FED2B9B05468DED008B34EA115147D04E
:1029500053EC192B51EC180B00F016FE40D02A4610
:1029600051EC180B01F0B2F841EC180B18EE900A7C
:102970008DED008B34EA10501CD053EC192B51EC28
:10298000180B00F001FE2BD10220FEF71CFB00F01B
:1029900053F810EE901A18EE900A8DED020B8DEDA3
:1029A000008B61F31E0003909DED020B05B0BDECA2
:1029B000048B30BD0220FEF706FB00F02DF810EE70
:1029C000901A18EE900A8DED020B8DED008B61F3DD
:1029D0001E0003909DED020B05B0BDEC048B30BDD5
:1029E00005B0B0EE480AF0EE680ABDEC048B30BDCD
:1029F000000000000000000008B59FED060A0A462E
:102A000001468DED000A6846FEF781F89DED000A4B
:102A100008BD0000000000009FED050B10B553EC51
:102A2000102B51EC100B00F06BFE41EC100B10BDA5
:102A300000000000000000709FED050B10B553EC86
:102A4000102B51EC100B00F05BFE41EC100B10BD95
:102A5000000000000000001010B5044691ED000BCE
:102A6000FFF7E6FE84ED000A10BD10B5044690EDB8
:102A7000000B0846FFF758FF84ED000B10BD3038FF
:102A80000A2801D2012070470020704770B588B035
:102A900005460C46207800281CDD4B205B211B22BC
:102AA0000123CDE90132CDE9031044200B460AA1F0
:102AB000009006A8FDF742FC0646324606A90A48E1
:102AC000FFF768FE2078401E2070002021786854AF
:102AD00008B070BD00BFFBE7256325632563256350
:102AE000256325632563000000440040F0B52DED0B
:102AF000068B95B004460E464A2032215B221B23EA
:102B0000CDE90932CDE90B103321CDE90532CDE90C
:102B100007103121CDE90132CDE9031048205B23B4
:102B20001B2281A100900DA8FDF708FC0746307814
:102B300001284FD12078FDF7F1FB412837D05228EA
:102B400004D0532823D0542842D110E052207E498B
:102B500008737EA10DA8FDF7F1FB07463A460DA9C3
:102B60007E48FFF717FE00207749486031E0542087
:102B7000754908730020486079A10DA8FDF7DEFBB8
:102B800007463A460DA97548FFF704FE21E0532099
:102B90006D4908730020486076A10DA8FDF7CEFBB3
:102BA00007463A460DA96D48FFF7F4FD11E04120B4
:102BB0006549087373A10DA8FDF7C0FB07463A46A7
:102BC0000DA96648FFF7E6FD00205F49486000E078
:102BD00000BF62E0307801285FDD2078FDF79EFBC2
:102BE000462802D0562855D128E00522611C0BA8A2
:102BF000FDF7B4FC0BA8FDF7A4FC05460A2D01DA8D
:102C00000A2504E0B5F57A7F01DD4FF47A754E4868
:102C10000560E80100F021FD41EC1A0B53EC1A2B82
:102C20009FED5D0B51EC100B00F056FB41EC190BC6
:102C300000F0E6FC4FF08041C8622CE00522611CE8
:102C40000BA8FDF78BFC00210BA8FFF7D5FEB0EE1B
:102C5000408AB5EEC08AF1EE10FA04D29FED500A18
:102C6000B0EE408A0AE0B1EE040AB4EEC08AF1EE9A
:102C700010FA03DDB1EE040AB0EE408AB1EE040AA8
:102C800028EE000ADFED470A20EE200A2E4880EDEC
:102C9000020A00E000BF00BF00BF2B4842A102684B
:102CA0000DA8FDF74BFB07463A460DA92B48FFF749
:102CB00071FD25480068C20142A10DA8FDF73EFB49
:102CC00007463A460DA92548FFF764FD802244A136
:102CD0000DA8FDF733FB07463A460DA91F48FFF73D
:102CE00059FD194890ED020A10EE101A084600F03E
:102CF0003BFE41EC180B53EC182B41A10DA8FDF73E
:102D00001DFB07463A460DA91448FFF743FD002076
:102D1000207003223DA11148FFF73CFD00203070D8
:102D200015B0BDEC068BF0BD2563256325632563D7
:102D30002563256325632563256325632563256353
:102D40002563256325630000080000205761766530
:102D5000666F726D3A2052616D700A000044004047
:102D600057617665666F726D3A20547269616E675D
:102D70006C650A0057617665666F726D3A2053691B
:102D80006E650A0057617665666F726D3A2043750D
:102D900073746F6D0A0000000000000084D7C74103
:102DA000000000000AD7233C5369676E616C20461F
:102DB00072657175656E63792069733A20256420A8
:102DC000687A0A0055706461746520467265717591
:102DD000656E63792069733A20256420687A0A0059
:102DE00053616D706C6573207065722077617665D4
:102DF000666F726D2069733A2025640A0000000036
:102E00005670703A20252E33660A00000D0A3E00E7
:102E100010B52DED028B2A4890ED020ADFED290A4C
:102E200020EE200AB0EE408A4168012000F000F94F
:102E3000F0EE408A2248406800EB4001012000F09B
:102E4000F7F8F0EE080A80EE201A78EE818A1C4826
:102E5000406800EB8001012000F0EAF8F1EE040A7E
:102E600080EE201A78EE818A15484068C0EBC001D8
:102E7000012000F0DDF8F1EE0C0A80EE201A78EE69
:102E8000818A0F48406800EBC001012000F0D0F8B3
:102E9000F2EE020A80EE201A38EE810AF0EE040A01
:102EA00070EE200AB6EE000A00EE880ABCEEC00AF8
:102EB00010EE100A04490860BDEC028B10BD000042
:102EC0000800002000C04C440874004000000000CE
:102ED00010B582B01446CDE900010023009A2360AA
:102EE000194B21F0004098422ADA024328D0B0F56D
:102EF000801FA8BF226810DA9FED150B53EC102B32
:102F00009DED000B51EC100B00F0FAFBCDE9000138
:102F10006FF0350221F0004022600F4B6FF31E511D
:102F200003EB20501044206041F0FF5040F000506F
:102F300001909DED000B00BF02B051EC100B10BDD5
:102F40009DED000BF8E700000000F07F000000009E
:102F5000000000000000504302FCFFFF0648806DA7
:102F600040F00050044988650448006840F00100C2
:102F700002490860704700000010024000740040E1
:102F80000C48C06C40F001000A49C8644FF0904002
:102F9000006820F440704FF09041086008460068D7
:102FA00040F4407008600846C06820F44070C86073
:102FB0007047000000100240FFF790F9FFF7DCFABD
:102FC0004FF08040FFF77EFAFFF7C8FFFFF7D8FF0A
:102FD00000BFFEE71248D0ED020A9FED121A60EE24
:102FE000810AB0EE600A01464868C11700EB917192
:102FF0008910A0EB810191B909494868C11700EB1C
:1030000091718910084A02EB8101D1ED000A60EE4E
:10301000800AFCEEE00A10EE901A044A1160704734
:103020000800002000C04C44180000200874004034
:103030002DE9F0412DED088B07460C462046E1179F
:1030400004EB5161C911A4EBC115284600F005FB42
:1030500041EC1B0B9FED370B53EC102B00F03CF9B0
:1030600041EC1A0B00F0F2F808EE900A2846E91736
:1030700005EBD1614911A5EB4116304890ED020AEC
:10308000DFED2F0A20EE200AB0EE409AB5EE000ADE
:10309000F4EEC08AF1EE10FA05D82A4800EB86005B
:1030A00090ED008A2DE0B6EE000AF4EEC08AF1EE53
:1030B00010FA07D8C6F11F00224901EB800090EDFD
:1030C000008A1EE0B6EE080AF4EEC08AF1EE10FAAD
:1030D00007D81C4800EB860090ED000AB1EE408A4C
:1030E0000FE0B7EE000AF4EEC08AF1EE10FA08D84D
:1030F000C6F11F00134901EB800090ED000AB1EE0C
:10310000408A012F05D1B0EE480ABDEC088BBDE81E
:10311000F081B0EE040A78EE000AB6EE000A00EE86
:10312000890ABCEEC00A10EE100A074908609FED3C
:10313000070AEAE70000000000C05F400800002026
:1031400000C04C44980000200874004000000000BB
:103150002448D0ED020A9FED241A60EE810AB0EEF9
:10316000600A0146486800EBD0714910A0EB4101AC
:10317000B1B91C494968402912DA1A49486800EB7C
:10318000D0714910194A02EB8101D1ED000A60EEBD
:10319000800AFCEEE00A10EE901A154A11601FE05A
:1031A0001049486800EBD0714910A0EB4101B9B952
:1031B0000C494968402913DB0A494968C1F17E007E
:1031C00000EBD0714910094A02EB8101D1ED000AF0
:1031D00060EE800AFCEEE00A10EE901A044A1160DC
:1031E000704700000800002000C04C441800002078
:1031F0000874004010B500290AD00878002807D0CC
:1032000005487844FDF726FF002801D0002010BDB6
:103210000248784410BD0000260A00001E0A000083
:1032200010B500290AD00878002807D0054878444E
:10323000FDF710FF002801D0002010BD024878449F
:1032400010BD00000A0B0000020B000021F000423C
:10325000A2F16052B2F5801F01F0004328BFD2F105
:103260007F6C0BD95FEA001C43EAC20242EB50704C
:1032700018BF704728BF20F001007047B2F5801FCB
:10328000BCBF184670474FEA410C1CF5001F02D224
:10329000084600F0DFBB70B500F0DCFA00000089E2
:1032A000FFF7F6BF4FF00040A0F580007047000028
:1032B00002494FF0000000F0D7BB00BF0000F87FCC
:1032C000491058BFC1F140415B1058BFC3F14043A2
:1032D0008B42EFF3008070472DE9C04130B4DFF836
:1032E000A0C23CEA111418BF3CEA131400F0EC80B1
:1032F00081EA03051CEA111444EAD57418BF1CEADC
:10330000131500F0C780A4EB05044FF0004545EA13
:10331000C12145EAC32341EA505143EA525304F123
:103320007F74994204F500344FEAC0204FEAC2226C
:1033300008BF904200F09C804FEA13650FF24016E0
:10334000765D4FEA134506FB05F7C7F1807706FB6C
:1033500007F74FEAD737A7FB03687642C8F58038EE
:10336000A7FB06CE38BFA8F1010807FB08E64FF01F
:10337000000EA6FB028CE6FB03CEDCF1000CCEF1C6
:10338000004E38BFAEF1010EA6FB0C584FF00007FF
:103390004FF00005E6FB0E87A1FB08C6A0FB07CE99
:1033A00016EB0E0645F10005E1FB076515F1E04E51
:1033B0007EBFA4F580345FEA46066D4116F18007B2
:1033C00045F100054FEA17274FEA066647EA056709
:1033D000A6F1DE46B6F1805F4FEA15251FD93846C3
:1033E00024F0010C05EBC471BCF1FE6F01EB0C1174
:1033F00002D8F0BCBDE8008124425CBF01F5801E0C
:103400009EEAC47F02D4F0BCBDE80081244238D4D7
:10341000F0BCA1F1C041BDE8004100F069BA4FEA3B
:10342000D22242EA43524FEAD323A7FB02864FEA55
:10343000D02040EA415007FB03661EEA0E0F4FEA18
:10344000D12105FB026658BFA6EB0056B6EB00562D
:103450004FEA520E4EEAC37E18EB0E0E56EB530E99
:10346000BDD518EB02085E417F1C55F10005B6E79B
:103470004FF480154FF000074FF000064FF00008A2
:10348000ADE7F0BC4FF0000001F1C04101F0004198
:10349000BDE8008111EA0C1F0CEA131500D00CE006
:1034A00013EA0C1F00F025804FF00000F0BC81EA09
:1034B000030101F00041BDE80081F0BCBDE800411E
:1034C00081EA030100F014BAF0BCBDE8004170B518
:1034D00000F0C0F9097EFC3E00F007B881EA030164
:1034E0004FF0000001F00041704781EA030100F055
:1034F000FFB9F0BCBDE800414FF000002149704722
:10350000FFFDFBF9F7F5F4F2F0EEEDEBE9E8E6E4A8
:10351000E3E1E0DEDDDBDAD8D7D5D4D3D1D0CFCD2F
:10352000CCCBCAC8C7C6C5C4C2C1C0BFBEBDBCBB68
:10353000BAB9B8B7B6B5B4B3B2B1B0AFAEADACAB63
:10354000AAA9A8A8A7A6A5A4A3A3A2A1A09F9F9E3D
:103550009D9C9C9B9A9999989797969595949393EF
:10356000929191908F8F8E8E8D8C8C8B8B8A898986
:103570008888878786858584848383828281818009
:103580000000FF070000F87F51EA030C17D41CF578
:10359000801F58BFBCF5801F00F10680994218BFFC
:1035A000704708BF9042704707D711F5801F58BF7A
:1035B00013F5801F19D499427047894270471CF552
:1035C000801F08D5BCF5801FF7D58B4218BF704708
:1035D00008BF824270474FF4001C1CEB410F38BFFC
:1035E0001CEB430F01D28B42704770B500F032F9EB
:1035F000922449004FF000514FF08053FFF760BE16
:103600004FEA1153A3F58063D3F11E03A8BFD3F192
:10361000200C08DB4FF0004242EAC12252EA50522D
:1036200032FA03F0704709420BD4102BC4BF0020BC
:10363000704703F5787CBCF1FF3F05D04FF0FF30B9
:1036400070474FF00000704770B500F003F900BFFD
:103650004992248000207047F0E710F0004248BFF4
:103660004042B0FA80F310FA03F10AD0C3F11D030F
:1036700003F580634FEA415002EB035202EBD12184
:1036800070474FF00000704751EA030C17D41CF547
:10369000801F58BFBCF5801F00F10680994218BFFB
:1036A000704708BF9042704707D711F5801F58BF79
:1036B00013F5801F19D499427047894270471CF551
:1036C000801F08D5BCF5801FF7D58B4218BF704707
:1036D00008BF824270474FF4001C1CEB410F38BFFB
:1036E0001CEB430F01D28B42704770B500F0B2F86B
:1036F000922449004FF000514FF08053FFF7E0BD96
:10370000DFF848C170B51CEA111E1EBF1CEA131574
:103710009EEA0C0F95EA0C0F00F06F8081EA03041B
:1037200023EA4C134EEAD47E21EA4C1141F4801175
:1037300043F48013AE44A1FB024CA0FB0365AEF141
:103740007F7E361955EB0C05A1FB034C4CF10003B1
:10375000A0FB021C16EB0C06654153F10003094265
:1037600018BF46F0010613F4007F0BD14FEA033176
:103770004FEA0530340341EA155140EA16506FF024
:1037800003020AE04FEAC3214FEAC520F40241EAEE
:10379000555140EA56506FF0020202EB2E4201EB07
:1037A000025585EACE710AD05FEA440C18BF24F0B6
:1037B000004450F1000041F1000120EAD47040F2D1
:1037C000FE7C624500D270BDA84214BF4FF0804419
:1037D0004FF04044002E08BF0024BEF1806FA8BF08
:1037E000A1F1C041BDE8704080F282804FF000003E
:1037F00001F1C04101F0004170479EEA0C0F0CEA54
:10380000131518BF95EA0C0F06D04FF0000081EA9F
:10381000030E0EF0004170BD00F01CF88900013E5F
:1038200000F007B800F009B84FEA430C5FEA5C5CAF
:1038300008D081EA030100F05BB84FEA410C5FEA6F
:103840005C5CF6D14FF00000014970470000FF07B3
:103850000000F87F0EF1020E2EF0030E5EF8046BEE
:10386000364205D4012A43EB030515F5001F12D893
:10387000012841EB010C1CF5001F0CD80ED14FEABA
:10388000D17C15F5001F0CEB4C0C0CF1020C08BFA1
:103890004CEBD37C04E04FF0080C01E04FEAD37C02
:1038A0000CEB4C0526FA05F606F00706B6F1040CFB
:1038B00006D20EEB860CBDE870404CF0010C604760
:1038C000DFE80CF0090B02024FF000414FF000005E
:1038D000A1F5002170BD19461046012851EB0104E5
:1038E00018BFD4F5001484BF002001F0004170BD62
:1038F0000808A0F500114FEA3101704753EA010CA6
:1039000017D41CF5801F58BFBCF5801F00F106803E
:103910008B4218BF704708BF8242704707D713F524
:10392000801F58BF11F5801F19D48B4270479B42EE
:1039300070471CF5801F08D5BCF5801FF7D599424C
:1039400018BF704708BF904270474FF4001C1CEB33
:10395000430F38BF1CEB410F01D2994270470FB49F
:103960000CBC03BCFFF7C1BE43004FEAD30C4FEAC7
:103970003C0C43401FBF40070CF1605113F0FE4F59
:1039800070471CF0006F03D100200CF0004170471D
:103990000CF0004343EA507010B540EACC0000F050
:1039A0000EF800BF000000924FEA0001FFF7A0BF31
:1039B0004FF000414FF00000A1F5002170470EF1DB
:1039C000020E2EF0030E5EF8044B244204D44FEA9C
:1039D0004102B2F17F4F11D84FEA4003B3F17F4F5C
:1039E0000CD80ED14FEAD07CB2F17F4F0CEB4C0CCF
:1039F0000CF1020C08BF4CEBD17C04E04FF0080C3A
:103A000001E04FEAD17C0CEB4C0324FA03F404F000
:103A10000704B4F1040C06D20EEB840CBDE8104090
:103A20004CF0010C6047DFE80CF0070802024FF091
:103A30000040A0F5800010BD0846420018BFD2F13A
:103A4000807288BF00F0004010BD4FF04070E1EE82
:103A5000100A7047FF2141EAD050C00570474FF06F
:103A600000007047FCF7E6BE0CF00F03092B08BFFF
:103A7000082000F05F800A2B0BD0082B18BF70477E
:103A800008BF1CF0400F0AD04FF000004FF00001BB
:103A900070471CF0400F18BF4FF0004070471CF0FB
:103AA000100F08D020F0704300F07F4242EAD301AB
:103AB0004FEA4370704700F0604021F07F4242EAD5
:103AC000000201F07F4040EA727070474FF0FF0C37
:103AD0004CF4E06C1CEA11531CBF9CEA030C9445A7
:103AE000C2BFDA4201EB02517047002B0DD0BCF18E
:103AF000000F0FD0002A01F00041A4BF41F0E041C7
:103B000041F07F614FF00000704701F000414FF03D
:103B10000000704750EA01334FF09B0C18BF4CF087
:103B2000806C7FF4C5AB7047FDF7FABBFDF75CBD59
:103B3000FDF7EEBE1CF4801F11D01CF4E02F03D063
:103B40006FEACC31490070474FF04050EFF30082EC
:103B500022F0704242EA000282F3008870474FF080
:103B60000000704702400000000000A000000000BC
:103B700005400000000000C8000000000C400000EC
:103B80000000409C00000000194000000020BCBE66
:103B90000000000034400000BFC91B8E000000047C
:103BA000B5400000504BCFD06607E2CF01000000C7
:103BB0006C4100003E8251AADFEEA73401000000F4
:103BC000D9420000DCB5A0E23A301F97FFFFFFFFAB
:103BD000B4450000FD25A0C8E9A3C14FFFFFFFFFCA
:103BE000FF3F00000000008000000000FF3F0000D9
:103BF0000000008000000000543D0008000000208C
:103C000098020000C4010008503E000898020020FD
:103C10006006000020020008000000000000F07FA5
:103C2000FFFFFFFFFFFFEF7F1001000043000000D8
:103C3000F8FFFFFF004040404040404040404141CD
:103C40004141414040404040404040404040404071
:103C5000404040404005020202020202020202020B
:103C60000202020202202020202020202020200208
:103C70000202020202029090909090901010101098
:103C80001010101010101010101010101010101034
:103C900002020202020288888888888808080808C8
:103CA0000808080808080808080808080808080894
:103CB00002020202400000000000000000000000BC
:103CC00000000000000000000000000000000000F4
:103CD00000000000000000000000000000000000E4
:103CE00000000000000000000000000000000000D4
:103CF00000000000000000000000000000000000C4
:103D000000000000000000000000000000000000B3
:103D100000000000000000000000000000000000A3
:103D20000000000000000000000000000000000093
:103D300000000000000000001C0000004300000024
:103D4000F8FFFFFF0C0000000E0000000F00000055
:103D50002E0000008192645CA0405308183CB6D647
:103D60009A406BAD954021849040D75A8B408C315E
:103D7000864042088140EFBD77405B6B6D40C618BE
:103D8000634032C658409D734E400821444074CE73
:103D90003940DF7B2F404A29253C1A1A381A103443
:103DA00018170640F0BDF73FC618E33F9D73CE3F9E
:103DB00074CEB93F4A29A53F541D3FF0BD77141A70
:103DC0004E101A250C1BF73E18190483253E104788
:103DD00080EC7A3EA2D0BB3E2FB7F93EDD811B3F7F
:103DE0003BC8393F069C573FD7EA743F4ED1883FC6
:103DF000D0D8963F4A83A43F4EC8B13FAE9FBE3F46
:103E00007D01CB3F1AE6D63F2E46E23FB51AED3F85
:103E1000015DF73F6083203240FD0805408F3C097B
:103E2000407E1B0D4066A310401AD21340A4A51675
:103E300040461C19407A341B40F7EC1C40AB441E32
:103E400040C43A1F40A9CE1F401A200401FF017F41
:040000050800018965
:00000001FF
