:020000040800F2
:1000000068060020450200088102000883020008FB
:10001000850200088702000889020008000000002D
:100020000000000000000000000000008B0200083B
:100030008D020008000000008F02000891020008F5
:10004000930200089302000893020008930200083C
:10005000930200089302000893020008930200082C
:10006000930200089302000893020008930200081C
:10007000930200089302000893020008930200080C
:1000800093020008930200089302000893020008FC
:1000900093020008930200089302000893020008EC
:1000A00093020008930200089302000893020008DC
:1000B00093020008930200089302000893020008CC
:1000C00093020008930200089302000893020008BC
:1000D0009302000893020008ED080008930200084C
:1000E000930200089302000893020008930200089C
:1000F000930200089302000893020008930200088C
:10010000930200089302000893020008930200087B
:10011000930200089302000893020008930200086B
:10012000930200089302000893020008930200085B
:10013000930200089302000893020008930200084B
:10014000930200089302000893020008930200083B
:10015000930200089302000893020008930200082B
:10016000930200089302000893020008930200081B
:1001700093020008930200089302000800000000A8
:10018000930200089302000800F002F800F04AF819
:100190000AA090E8000C82448344AAF10107DA45E2
:1001A00001D100F03FF8AFF2090EBAE80F0013F0EA
:1001B000010F18BFFB1A43F001031847BC0A0000E7
:1001C000DC0A0000103A24BF78C878C1FAD8520778
:1001D00024BF30C830C144BF04680C6070470000C1
:1001E0000023002400250026103A28BF78C1FBD840
:1001F000520728BF30C148BF0B607047632900F029
:100200001881002070471FB500F030FD00F01EF986
:1002100004000020002100F013FD401C60601FBDA1
:1002200010B510BD00F01AF91146FFF7ECFF00F011
:10023000C3FC00F038F903B4FFF7F2FF03BC00F091
:100240007BF9000016481749174B99423CBF50F8FC
:10025000042B41F8042BF8D314494FF000028B42D1
:1002600038BF43F8042BFAD3DFF84400016841F4A7
:1002700070010160BFF34F8FBFF36F8F0D480047D0
:10028000FEE7FEE7FEE7FEE7FEE7FEE7FEE7FEE746
:10029000FEE7FEE708480949094A0A4B7047000093
:1002A000A80D0008000000200800002068060020BB
:1002B00088ED00E089010008680000206806002041
:1002C000680200206802002010B5044600F082F8A1
:1002D0000068005D000704D5DF2C02D0A4F12000E7
:1002E00010BD204610BD00000FB41CB5084B06AA77
:1002F0007B4469460090059800F079F80446002098
:10030000694600F087F820461CBC5DF814FB00002D
:10031000210100002DE9F0410E4604460020206234
:100320002046E168884730B3252805D0D4E901216B
:100330009047206A401CF2E7E16820460027884782
:10034000050018D0A5F14100192802D820354FF436
:1003500000673246294620462760FFF74FFF40B12D
:10036000012804D0F61D26F007060836D8E7361D0A
:10037000D6E72846DAE7206ABDE8F08170B50C467A
:100380000546012A05D02878800600D5EA690023B1
:1003900002E0012305E05B1C934202D2E05C0028EE
:1003A000F9D1A869E618C01AA861286A1844286219
:1003B0002846AFF3008004E0D5E9012114F8010BD1
:1003C0009047B442F8D32846AFF3008070BD704721
:1003D0007047704710B500F039F8001D10BD00BF20
:1003E0006108000001694A1C02610878704700B585
:1003F0008FB0CDE901310021059105497944CDE95E
:10040000031011466846FFF785FF0FB000BD0000DE
:10041000E5FFFFFF0A6802F8010B0A60704710B59C
:10042000436913B1AFF3008001E0FFF7A7FF01209C
:1004300010BD127800F124010A7000224A700122D6
:10044000EDE711684FF0FF32E9E700000048704720
:100450002800002000487047080000207546FFF77C
:10046000F9FFAE4605006946534620F00700854671
:1004700018B020B5FFF70EFFBDE820404FF0000692
:100480004FF000074FF000084FF0000B21F007017C
:10049000AC46ACE8C009ACE8C009ACE8C009ACE8BF
:1004A000C0098D46704710B50446AFF30080204662
:1004B000BDE81040FFF7BFBE4FF0013C50F8042BE1
:1004C00051F8043B9A4221D1A2EB0C03934313EA67
:1004D000CC1317D150F8042B51F8043B9A4215D194
:1004E000A2EB0C03934313EACC130BD150F8042B6B
:1004F00051F8043B9A4209D1A2EB0C03934313EA4F
:10050000CC13DBD04FF00000704700BFD01A01BA07
:10051000B1FA81F101F0180122FA01F0CB40C1F1EA
:100520002001DBB2C0B2C01A2CFA01F3D11A9143F8
:1005300011EAC311E6D1704701491820ABBEFEE7AE
:1005400026000200704700002348C06C40F01200F3
:100550002149C8646FF030002049086008460068EF
:1005600040F0100008601D480830006820F030009E
:100570001A49083108600846006840F030000860F9
:10058000081F006820F00400091F086013480C30A1
:10059000006820F0300011490C3108606FF44030E1
:1005A0000F4908600846006840F48030086008463B
:1005B000806820F4403088600846806840F440300D
:1005C00088600846406820F4807048600846C0682B
:1005D00020F44030C860704700100240000400481A
:1005E000001000485E49096821F007015C4A11606B
:1005F0001146096841F0020111605A49096841F445
:100600008071584A116000BF5649096801F4806141
:100610000029F9D010205349496821F0F851514A76
:1006200051601146496841EA00615160114609680C
:1006300021F08071116000BF4A49096801F0007122
:10064000B1F1007FF8D04749C96821F00301454A5C
:10065000D1601146C96841F00201D1601146C968F4
:1006600021F4FE4141F4A051D1601146C96821F046
:10067000700141F01001D1601146C96821F0C061DC
:10068000D1601146C96841F08071D1601146096896
:1006900041F08071116000BF3249096801F00071BA
:1006A0000029F9D02F49896821F003012D4A916072
:1006B0001146896841F00301916000BF29498968AA
:1006C00001F00C010C29F9D12649896821F0F001CB
:1006D000244A91601146896821F4E06191601146D5
:1006E000896821F4605191601146096821F08061A8
:1006F000116000BF1B49096801F08061B1F1806F92
:10070000F8D01849096921F4FE41164A11611146D1
:10071000096941F4C05111611146096941F4003180
:1007200011611146096941F480311161114609686E
:1007300041F08061116000BF0A49096801F08061E1
:100740000029F9D007498831096821F44001054A98
:10075000C2F888101146096E41F400111166704705
:1007600000200240001002400B49C96C41F0010119
:10077000094AD164016821F00F010160016841F06C
:100780000A010160016A21F011010162016A41F070
:1007900011010162704700000010024010B532B133
:1007A000134B9B6D43F00103114CA36505E0104B07
:1007B0009B6D43F008030E4CA36584230360036A1A
:1007C00023F01103036240F21F338362C16232B12E
:1007D00046F668038361036A43F0110303624369C9
:1007E00043F001034361036843F00103036010BD5C
:1007F000001002401A48C06C40F008001849C86454
:100800001848006820F470501649086008460068CF
:1008100040F42050086013482030006840F0EE603B
:100820001049203108600F480830006840F47050CB
:100830000C4908310860081D006820F47050091D3B
:1008400008600846006840F4A05008600548001D94
:10085000006820F060000349091D0860704700002F
:1008600000100240000C004810B51C48806D40F498
:1008700000301A49886519488830006820F00C005B
:10088000C1F888000846D0F8880040F00400C1F89C
:100890008800FFF7AFFF124800F0AAF826200021D9
:1008A000002804DB0A07130E0E4A135406E00A0759
:1008B000140E0D4A00F00F031B1FD45400BF262056
:1008C000002809DB00F01F0201219140420992003B
:1008D00002F1E022C2F8001100BF10BD001002407A
:1008E0000044004000E400E018ED00E010B5374897
:1008F000006800F02000002845D034480830008807
:100900003349344A12788854084632490978405CA1
:100910000D2806D07F2809D12E492D4800F0E6F891
:1009200030E02C492A4800F011F92BE029480078E2
:1009300005280DDA2648274A1278815C23481C389E
:1009400000F0C0F823480078401C2249087018E0E5
:10095000032221A11D481C3800F094F81C481D4AB0
:100960001278815C19481C3800F0ACF81848194915
:100970000978445C00210170047001201549087059
:1009800000BF00BF20E01148006800F08000D8B927
:100990000E48006800F0080008B100BFFEE70B48F1
:1009A000006800F0010008B100BFFEE707480068DA
:1009B00000F0010008B100BFFEE70448006800F045
:1009C000040008B100BFFEE710BD00001C44004059
:1009D00000000020060000200D0A3E006422424371
:1009E0000723B2FBF3F100BF4A1E111EFCD1704772
:1009F000016821F001010160016821F0102101600E
:100A0000016821F400410160416821F440514160D6
:100A100042F28D01C160016841F00C01016018498A
:100A200088421BD1016841F020010160016821F07A
:100A300040010160016821F010010160016821F0AE
:100A400080010160016821F480710160016821F07A
:100A500040010160016821F001010160016841F07D
:100A60000101016000BFC16901F400110029FAD041
:100A700000BFC16901F480010029FAD0704700006D
:100A800000440040F0B504460E46174600250CE031
:100A900000BFE06900F080000028FAD0705D20857A
:100AA0004FF49670FFF79AFF6D1CBD42F0D300BF64
:100AB000E06900F040000028FAD0E06920F0400032
:100AC000E061F0BD30B504460D46E8B220854FF434
:100AD0009670FFF783FF00BFE06900F04000002838
:100AE000FAD0E06920F04000E06130BD70B588B018
:100AF00005460C46207800281CDD4B205B211B227C
:100B00000123CDE90132CDE9031044200B460AA1AF
:100B1000009006A8FFF7E8FB0646324606A90A48F9
:100B2000FFF7B0FF2078401E207000202178685425
:100B300008B070BD00BFFBE725632563256325630F
:100B400025632563256300000044004070B504461A
:100B50000D462878012811D12078FFF7B5FB4128F0
:100B600009D0522804D0532804D0542804D100E0DE
:100B700003E002E001E000E000BF0EE02878012879
:100B80000BDD2078FFF7A0FB462802D0562802D1C3
:100B900000E001E000E000BF00BF00202070032261
:100BA00003A10448FFF76EFF0020287070BD00000D
:100BB0000D0A3E0000440040FFF714FDFFF7C4FC9F
:100BC000FFF752FE4FF09040FFF7CEFD012240F2BA
:100BD000CF719007FFF7E2FD002242F20F71074844
:100BE000FFF7DCFD1B2206A10C48FFF74BFF1C2280
:100BF0000BA10A48FFF746FF00BFFEE7000C0040CC
:100C000057656C636F6D6520746F20536572766FE6
:100C100020436F6E74726F6C210D0A000044004017
:100C20003D3D3D3D3D3D3D3D3D3D3D3D3D3D3D3DF4
:100C30003D3D3D3D3D3D3D3D3D0D0A3E000000003A
:100C400010B500290AD00878002807D00548784454
:100C5000FFF732FC002801D0002010BD0248784484
:100C600010BD00004A000000420000004FF040703C
:100C7000E1EE100A70470000A80D000800000020F7
:100C800008000000C4010008B00D000808000020A2
:100C900060060000E00100081001000043000000B1
:100CA000F8FFFFFF0040404040404040404041418D
:100CB0004141414040404040404040404040404031
:100CC00040404040400502020202020202020202CB
:100CD00002020202022020202020202020202002C8
:100CE0000202020202029090909090901010101058
:100CF00010101010101010101010101010101010F4
:100D00000202020202028888888888880808080887
:100D10000808080808080808080808080808080853
:100D2000020202024000000000000000000000007B
:100D300000000000000000000000000000000000B3
:100D400000000000000000000000000000000000A3
:100D50000000000000000000000000000000000093
:100D60000000000000000000000000000000000083
:100D70000000000000000000000000000000000073
:100D80000000000000000000000000000000000063
:100D90000000000000000000000000000000000053
:100DA0000000000000000000000000000000000043
:040000050800018965
:00000001FF
