:020000040800F2
:10000000F0060020310200086D0200086F020008AF
:100010007102000873020008750200080000000069
:10002000000000000000000000000000770200084F
:1000300079020008000000007B0200087D02000831
:100040007F0200087F0200087F0200087F0200088C
:100050007F0200087F0200087F0200087F0200087C
:100060007F0200087F0200087F0200087F0200086C
:100070007F0200087F0200087F0200087F0200085C
:100080007F0200087F0200087F0200087F0200084C
:100090007F0200087F0200087F0200087F0200083C
:1000A0007F0200087F0200087F0200087F0200082C
:1000B0007F0200087F0200087F0200087F0200081C
:1000C0007F0200087F0200087F0200087F0200080C
:1000D0007F0200087F020008810800087F020008F4
:1000E0007F0200087F0200087F0200087F020008EC
:1000F0007F0200087F0200087F0200087F020008DC
:100100007F0200087F0200087F0200087F020008CB
:100110007F0200087F0200087F0200087F020008BB
:100120007F0200087F0200087F0200087F020008AB
:100130007F0200087F0200087F0200087F0200089B
:100140007F0200087F0200087F0200087F0200088B
:100150007F0200087F0200087F0200087F0200087B
:100160007F0200087F0200087F0200087F0200086B
:100170007F0200087F0200087F02000800000000E4
:100180007F0200087F02000800F002F800F041F84A
:100190000AA090E8000C82448344AAF10107DA45E2
:1001A00001D100F036F8AFF2090EBAE80F0013F0F3
:1001B000010F18BFFB1A43F001031847B8100000E5
:1001C000D8100000103A24BF78C878C1FAD8520776
:1001D00024BF30C830C144BF04680C6070470000C1
:1001E0000023002400250026103A28BF78C1FBD840
:1001F000520728BF30C148BF0B607047632900F029
:10020000F680002070471FB501F02EF81FBD10B515
:1002100010BD00F0F8F81146FFF7F5FF00F062FDA1
:1002200000F016F903B4FFF7F2FF03BC00F01EF96B
:1002300016481749174B99423CBF50F8042B41F818
:10024000042BF8D314494FF000028B4238BF43F817
:10025000042BFAD3DFF84400016841F47001016017
:10026000BFF34F8FBFF36F8F0D480047FEE7FEE7E8
:10027000FEE7FEE7FEE7FEE7FEE7FEE7FEE7FEE756
:1002800008480949094A0A4B7047000094120008BF
:100290000000002078000020F006002088ED00E03B
:1002A00089010008F0000020F0060020F002002084
:1002B000F00200200FB41CB5084B06AA7B44694627
:1002C0000090059800F071F804460020694600F09F
:1002D0007FF820461CBC5DF814FB000011010000F3
:1002E0002DE9F0410E460446002020622046E168D8
:1002F000884730B3252805D0D4E901219047206AEA
:10030000401CF2E7E168204600278847050018D026
:10031000A5F14100192802D820354FF40067324674
:10032000294620462760FFF769FF40B1012804D025
:10033000F61D26F007060836D8E7361DD6E728460C
:10034000DAE7206ABDE8F08170B50C460546012A5F
:1003500005D02878800600D5EA69002302E0012351
:1003600005E05B1C934202D2E05C0028F9D1A86949
:10037000E618C01AA861286A184428622846AFF314
:10038000008004E0D5E9012114F8010B9047B44244
:10039000F8D32846AFF3008070BD704770477047B0
:1003A00001694A1C02610878704700B58FB0CDE939
:1003B00001310021059105497944CDE90310114629
:1003C0006846FFF78DFF0FB000BD0000E5FFFFFF9F
:1003D0000A6802F8010B0A60704710B5436913B14F
:1003E000AFF3008001E0FFF7AFFF012010BD1278EE
:1003F00000F124010A7000224A700122EDE7116821
:100400004FF0FF32E9E7754600F02CF8AE460500E4
:100410006946534620F00700854618B020B5FFF71F
:100420002FFFBDE820404FF000064FF000074FF0CF
:1004300000084FF0000B21F00701AC46ACE8C00902
:10044000ACE8C009ACE8C009ACE8C0098D4670470B
:1004500010B50446AFF300802046BDE81040FFF71A
:10046000E1BE0000004870478C00002001491820C0
:10047000ABBEFEE72600020070470000034840695B
:1004800020F4807001494861704700000010004866
:100490000348406940F4807001494861704700009A
:1004A000001000482348C06C40F012002149C86485
:1004B0006FF03000204908600846006840F01000E6
:1004C00008601D480830006820F030001A490831E3
:1004D00008600846006840F030000860081F0068A7
:1004E00020F00400091F086013480C30006820F059
:1004F000300011490C3108606FF440300F4908603A
:100500000846006840F4803008600846806820F49F
:10051000403088600846806840F440308860084673
:10052000406820F4807048600846C06820F440307D
:10053000C8607047001002400004004800100048E6
:100540000348006820F0040001490860704700007B
:10055000140400480348006840F0040001490860A2
:1005600070470000140400485E49096821F0070143
:100570005C4A11601146096841F0020111605A4954
:10058000096841F48071584A116000BF56490968F2
:1005900001F480610029F9D010205349496821F005
:1005A000F851514A51601146496841EA0061516071
:1005B0001146096821F08071116000BF4A4909683D
:1005C00001F00071B1F1007FF8D04749C96821F00E
:1005D0000301454AD1601146C96841F00201D1606A
:1005E0001146C96821F4FE4141F4A051D160114681
:1005F000C96821F0700141F01001D1601146C9684D
:1006000021F0C061D1601146C96841F08071D160AC
:100610001146096841F08071116000BF32490968D4
:1006200001F000710029F9D02F49896821F00301F8
:100630002D4A91601146896841F00301916000BF25
:100640002949896801F00C010C29F9D126498968EA
:1006500021F0F001244A91601146896821F4E0619B
:1006600091601146896821F46051916011460968D2
:1006700021F08061116000BF1B49096801F08061B1
:10068000B1F1806FF8D01849096921F4FE41164A8A
:1006900011611146096941F4C0511161114609699E
:1006A00041F4003111611146096941F48031116151
:1006B0001146096841F08061116000BF0A4909686C
:1006C00001F080610029F9D007498831096821F4D7
:1006D0004001054AC2F888101146096E41F4001124
:1006E0001166704700200240001002400B49C96C9F
:1006F00041F00101094AD164016821F00F01016054
:10070000016841F00A010160016A21F011010162F2
:10071000016A41F0110101627047000000100240BF
:1007200010B532B1164B9B6D43F00103144CA36519
:1007300005E0134B9B6D43F00803114CA365842324
:100740000360036A23F01103036227238362C162FB
:1007500062B146F66803836144F620634363094B44
:100760001B688363036A43F011030362436943F028
:1007700001034361036843F00103036010BD0000FF
:1007800000100240600000201A48C06C40F00800D1
:100790001849C8641848006820F470501649086069
:1007A0000846006840F42050086013482030006874
:1007B00040F0EE601049203108600F4808300068B2
:1007C00040F470500C4908310860081D006820F49E
:1007D0007050091D08600846006840F4A050086089
:1007E0000548001D006820F060000349091D0860ED
:1007F0007047000000100240000C004810B51C4873
:10080000806D40F400301A498865194888300068C6
:1008100020F00C00C1F888000846D0F8880040F0AD
:100820000400C1F88800FFF7AFFF124800F0DCF9C0
:1008300026200021002804DB0A07130E0E4A135459
:1008400006E00A07140E0D4A00F00F031B1FD454D4
:1008500000BF2620002809DB00F01F020121914083
:100860004209920002F1E022C2F8001100BF10BD5F
:10087000001002400044004000E400E018ED00E0F9
:1008800010B588B0C648006800F02000002878D075
:10089000C34808300088C349C34A127888540846C0
:1008A000C1490978405C782805D0BE48BE4909781E
:1008B000405C58281CD1BC480078022818DA3E2039
:1008C0000A21CDE90010B748B7490978425C0D23E9
:1008D000B6A106A8FFF7EEFC04460020B249087056
:1008E000224606A9AE481C3800F0C8F908B010BD71
:1008F000AC48AD490978405C7F2820D1AA480078EF
:1009000000281BDD4B205B211B220123CDE9013296
:10091000CDE9031044200B46A7A1009006A8FFF7DD
:10092000C9FC0446224606A99D481C3800F0A6F9D9
:100930009D480078401E9C490870D7E7D6E7994843
:1009400099490978405C0D2871D1974800780228B0
:10095000FAD103229CA192481C3800F08FF90020A4
:10096000914908708F480078622854D011DC4E28D5
:1009700035D007DC42284DD0432836D04C2857D1FB
:1009800040E0E9E0502813D0522820D053284FD11E
:1009900026E070280DD006DC632827D06C2832D0E2
:1009A0006E2845D11AE0722810D0732840D118E083
:1009B00000BF8648C07928B98448807810B90120E2
:1009C0008249487000208149087032E000BF7F48AA
:1009D000407810B1012000F06DFB2AE000BF28E054
:1009E00000BF012000F008FC23E000BF7748C07979
:1009F00038B97648807820B90020744948700120C1
:100A0000087016E000BF7148407810B1012000F076
:100A100009FB0EE000BF6D48427A017A012000F028
:100A2000BBFA0020694948700120087001E067E0C6
:100A300000BF00BF5B484078622853D010DC4E28CE
:100A400034D006DC42284CD0432835D04C2855D130
:100A50003FE0502813D0522820D053284ED126E012
:100A600070280DD006DC632827D06C2832D06E2881
:100A700044D11AE0722810D073283FD118E000BF8B
:100A80005348C07928B95248807810B9012050499C
:100A9000487000204E49087031E000BF4C48407853
:100AA00010B1022000F006FB29E000BF27E000BFE4
:100AB000022000F0A1FB22E000BF4548C07938B910
:100AC0004348807820B900204149487001200870CF
:100AD00015E000BF3E48407810B1012000F0A2FAB6
:100AE0000DE000BF3A48427A017A022000F054FA41
:100AF0000020374948700120087000E000BF4CE03A
:100B000029480078022809D103222FA124481C3843
:100B100000F0B4F8002024490870E7E62148224993
:100B20000978405C0D2809D1032227A11C481C38F4
:100B300000F0A4F800201C4908702EE019481A4A59
:100B40001278815C16481C3800F0B8F81648007816
:100B5000401C1549087020E01148006800F0800032
:100B6000D8B90F48006800F0080008B100BFFEE7E0
:100B70000B48006800F0010008B100BFFEE708481C
:100B8000006800F0010008B100BFFEE704480068FB
:100B900000F0040008B100BFFEE700BFA6E60000B9
:100BA0001C4400405B0000205E000020256325639C
:100BB0002563256300000000256325632563256305
:100BC00025632563256300000D0A3E008200002096
:100BD00078000020642242430723B2FBF3F100BFF8
:100BE0004A1E111EFCD17047016821F0010101600D
:100BF000016821F010210160016821F400410160C9
:100C0000416821F44051416042F28D01C1600168A8
:100C100041F00C010160184988421BD1016841F084
:100C200020010160016821F040010160016821F0AC
:100C300010010160016821F080010160016821F468
:100C400080710160016821F040010160016821F0BC
:100C500001010160016841F00101016000BFC1694B
:100C600001F400110029FAD000BFC16901F480012C
:100C70000029FAD07047000000440040F0B5044657
:100C80000E46174600250CE000BFE06900F080002A
:100C90000028FAD0705D20854FF49670FFF79AFF18
:100CA0006D1CBD42F0D300BFE06900F04000002899
:100CB000FAD0E06920F04000E061F0BD30B50446B4
:100CC0000D46E8B220854FF49670FFF783FF00BF12
:100CD000E06900F040000028FAD0E06920F0400010
:100CE000E06130BDFFF740FCFFF7DCFBFFF786FD5E
:100CF0004FF09040FFF7FAFC012249F63F41900780
:100D0000FFF70EFD002290499048FFF709FD0022F1
:100D10001146012000F040F900221146022000F0A7
:100D20003BF91D228AA19148FFF7A8FF1D2290A13F
:100D30008E48FFF7A3FF0025002604E1834810300A
:100D4000006820F00100814910310860002D63D156
:100D50008E488078002861D18C48407800285DD189
:100D60008A48C079002859D188480078012855D18F
:100D70008648007A864951F8200084498979445C84
:100D800004F0E00040280FD003DC90B3202838D1D5
:100D900004E080280BD0A02833D119E004F00F0024
:100DA000012100F0CFF930E004F01F052DE0774875
:100DB000C078012802D17549887026E004F01F0030
:100DC000724908710120C8700846807948711CE09A
:100DD0006E48007940B16D480079401E6B4908713A
:100DE00008464079887103E000206849C87008719E
:100DF0000BE0FFE701206549C871002048700870CA
:100E000003E002206149887000BF00BF5F4880791D
:100E1000401C5E49887101E0681EC5B25B480078DD
:100E200028B15A48807810B9FFF732FB1BE05748C9
:100E3000407838B15548807820B9FFF71FFBFFF79D
:100E40007FFB10E051488078022804D1FFF716FBA1
:100E5000FFF780FB07E04D488078012803D1FFF7BA
:100E600017FBFFF777FB002E63D14A4880780028F4
:100E700061D14848407800285DD14648C0790028B3
:100E800059D144480078012855D14248007A404958
:100E900051F820003F498979445C04F0E000402883
:100EA0000FD003DC90B3202838D104E080280BD089
:100EB000A02833D119E004F00F00022100F042F91C
:100EC00030E004F01F062DE03248C078012802D13E
:100ED0003049887026E004F01F002E490871012077
:100EE000C8700846807948711CE02A48007940B1F2
:100EF00028480079401E27490871084640798871C2
:100F000003E000202349C87008710BE0FFE70120CF
:100F10002049C87100204870087003E002201D4974
:100F2000887000BF00BF1B488079401C1949887138
:100F300001E0701EC6B200BF04481030006800F027
:100F400001000028F8D0F9E63F0D0300000C004036
:100F500057656C636F6D6520746F20536572766F93
:100F600020436F6E74726F6C210D0A0000440040C4
:100F70003D3D3D3D3D3D3D3D3D3D3D3D3D3D3D3DA1
:100F80003D3D3D3D3D3D3D3D3D0D0A008200002083
:100F900040000020780000202DE9F04105460E4673
:100FA00017460B24012D1BD100201B4908704870E7
:100FB0008870C870087148718871C87108460672D7
:100FC0004772FFF75BFAFFF7BBFA06E013480068C9
:100FD00000F0010008B1601EC4B2002CF6DC18E07D
:100FE000022D16D100200E49087048708870C87014
:100FF000087148718871C87108460672477206E028
:101000000648006800F0010008B1601EC4B2002C60
:10101000F6DCBDE8F081000082000020100C0040EA
:101020007800002010B5014600201E4B5B7A5B1E45
:10103000DBB21C4C63721A46012915D123465B7A38
:1010400073B323465B785BB3174B53F822308C079E
:10105000636306E0154B1B6803F001030BB1431CEF
:10106000D8B20328F6DB1BE0114B5B7AC3B1104BFF
:101070005B78ABB10E4B5B7A5B1EDBB20C4C6372E0
:10108000094C54F823304FF08044A36306E0074B2B
:101090001B6803F001030BB1431CD8B20328F6DB35
:1010A00010BD00008200002060000020100C0040F5
:1010B000780000200146002001291CD11D4A527AE7
:1010C000052A35D01B4A527892B31A4A527A521CDA
:1010D000D2B2184B5A72184B53F822208B075A631E
:1010E00006E0164A126802F001020AB1421CD0B2B0
:1010F0000328F6DB1CE0124A527A052A18D0104A5F
:101100005278AAB10E4A527A521CD2B20C4B5A7281
:10111000094B53F822204FF080439A6306E0074AB8
:10112000126802F001020AB1421CD0B20328F6DBB9
:10113000704700008200002060000020100C00407A
:101140007800002030B50022274C637A01291DD198
:1011500000281BDB052819DC244C54F820408D079F
:101160006C63214D687206E0214C246804F0010490
:101170000CB1541CE2B2C41A002C01DB254600E07D
:1011800065426D006D1C9542EEDC2BE002291DD1FD
:1011900000281BDB052819DC144C54F820404D07AF
:1011A000AC63144D687206E0114C246804F001042D
:1011B0000CB1541CE2B2C41A002C01DB254600E03D
:1011C00065426D006D1C9542EEDC0BE0012903D1F8
:1011D0000224054DAC7030BD022903D10224054D17
:1011E000AC70F8E700BFF6E7820000206000002046
:1011F000100C004078000020012817D11849097A06
:10120000062903DB0021164A117204E01449097A09
:10121000491C134A11720021114A117051709170CA
:10122000D170117151719171D17118E0022816D1EC
:101230000C49097A062903DB00210A4A117204E0ED
:101240000849097A491C074A11720021054A1170A0
:1012500051709170D170117151719171D17170474C
:1012600082000020780000204FF04070E1EE100A6C
:101270007047000094120008000000207800000071
:10128000C40100080C130008780000207806000054
:10129000E001000820252023802124A020224022D4
:1012A000235F5F5F2400000020422142224223424C
:1012B00024422542244223422242214220000000AF
:1012C0000000230022228342258000228342260040
:1012D0002343213000000020140000202E000020B5
:1012E00031000020370000203C00002000000000FA
:1012F0000000000020030000A005000020080000FE
:0C130000A00A0000200D0000A00F00005B
:040000050800018965
:00000001FF
