:020000040800F2
:10000000980600202902000865020008670200081F
:10001000690200086B0200086D0200080000000081
:100020000000000000000000000000006F02000857
:100030007102000800000000730200087502000849
:1000400077020008770200087702000877020008AC
:10005000770200087702000877020008770200089C
:10006000770200087702000877020008770200088C
:10007000770200087702000877020008770200087C
:10008000770200087702000877020008770200086C
:10009000770200087702000877020008770200085C
:1000A000770200087702000877020008770200084C
:1000B000770200087702000877020008770200083C
:1000C000770200087702000877020008770200082C
:1000D000770200087702000877020008770200081C
:1000E000770200087702000877020008770200080C
:1000F00077020008770200087702000877020008FC
:1001000077020008770200087702000877020008EB
:1001100077020008770200087702000877020008DB
:1001200077020008770200087702000877020008CB
:1001300077020008770200087702000877020008BB
:1001400077020008770200087702000877020008AB
:10015000770200087702000877020008770200089B
:10016000770200087702000877020008770200088B
:1001700077020008770200087702000800000000FC
:10018000770200087702000800F002F800F03CF85F
:100190000AA090E8000C82448344AAF10107DA45E2
:1001A00001D100F031F8AFF2090EBAE80F0013F0F8
:1001B000010F18BFFB1A43F0010318473407000072
:1001C00054070000103A24BF78C878C1FAD8520703
:1001D00024BF30C830C144BF04680C6070470000C1
:1001E0000023002400250026103A28BF78C1FBD840
:1001F000520728BF30C148BF0B6070471FB500F0E1
:1002000071FB1FBD10B510BD00F053F81146FFF78C
:10021000F5FF00F0B5FA00F071F803B4FFF7F2FF54
:1002200003BC00F079F8000016481749174B9942B3
:100230003CBF50F8042B41F8042BF8D314494FF07D
:1002400000028B4238BF43F8042BFAD3DFF8440096
:10025000016841F470010160BFF34F8FBFF36F8FEE
:100260000D480047FEE7FEE7FEE7FEE7FEE7FEE794
:10027000FEE7FEE7FEE7FEE708480949094A0A4BA0
:10028000704700001009000800000020180000203E
:100290009806002088ED00E0890100089800002001
:1002A00098060020980200209802002070477047AE
:1002B0007047754600F02CF8AE4605006946534677
:1002C00020F00700854618B020B5FFF7D5FFBDE840
:1002D00020404FF000064FF000074FF000084FF0AD
:1002E000000B21F00701AC46ACE8C009ACE8C0093E
:1002F000ACE8C009ACE8C0098D46704710B50446AB
:10030000AFF300802046BDE81040FFF786BF000035
:10031000004870473800002001491820ABBEFEE7B6
:1003200026000200704700002348C06C40F0120015
:100330002149C8646FF03000204908600846006811
:1003400040F0100008601D480830006820F03000C0
:100350001A49083108600846006840F0300008601B
:10036000081F006820F00400091F086013480C30C3
:10037000006820F0300011490C3108606FF4403003
:100380000F4908600846006840F48030086008465D
:10039000806820F4403088600846806840F440302F
:1003A00088600846406820F4807048600846C0684D
:1003B00020F44030C860704700100240000400483C
:1003C000001000485E49096821F007015C4A11608D
:1003D0001146096841F0020111605A49096841F467
:1003E0008071584A116000BF5649096801F4806164
:1003F0000029F9D010205349496821F0F851514A99
:1004000051601146496841EA00615160114609682E
:1004100021F08071116000BF4A49096801F0007144
:10042000B1F1007FF8D04749C96821F00301454A7E
:10043000D1601146C96841F00201D1601146C96816
:1004400021F4FE4141F4A051D1601146C96821F068
:10045000700141F01001D1601146C96821F0C061FE
:10046000D1601146C96841F08071D16011460968B8
:1004700041F08071116000BF3249096801F00071DC
:100480000029F9D02F49896821F003012D4A916094
:100490001146896841F00301916000BF29498968CC
:1004A00001F00C010C29F9D12649896821F0F001ED
:1004B000244A91601146896821F4E06191601146F7
:1004C000896821F4605191601146096821F08061CA
:1004D000116000BF1B49096801F08061B1F1806FB4
:1004E000F8D01849096921F4FE41164A11611146F4
:1004F000096941F4C05111611146096941F40031A3
:1005000011611146096941F4803111611146096890
:1005100041F08061116000BF0A49096801F0806103
:100520000029F9D007498831096821F44001054ABA
:10053000C2F888101146096E41F400111166704727
:10054000002002400010024010B5134B9B6D43F099
:100550000103114CA36584230360036A23F0110394
:10056000036227238362C16262B146F66803836136
:100570000A4B1B684363094B1B688363036A43F0A0
:1005800011030362436943F001034361036843F0CD
:100590000103036010BD00000010024000000020B5
:1005A0001A48C06C40F008001849C8641848006830
:1005B00020F47050164908600846006840F4205046
:1005C000086013482030006840F0EE601049203188
:1005D00008600F480830006840F470500C4908313A
:1005E0000860081D006820F47050091D0860084666
:1005F000006840F4A05008600548001D006820F025
:1006000060000349091D08607047000000100240A7
:10061000000C004810B51C48806D40F400301A49A9
:10062000886519488830006820F00C00C1F88800FF
:100630000846D0F8880040F00400C1F88800FFF7B1
:10064000AFFF124800F032F826200021002804DB1A
:100650000A07130E0E4A135406E00A07140E0D4A39
:1006600000F00F031B1FD45400BF2620002809DB15
:1006700000F01F02012191404209920002F1E022A4
:10068000C2F8001100BF10BD00100240004400403D
:1006900000E400E018ED00E0642242430723B2FBCF
:1006A000F3F100BF4A1E111EFCD17047016821F012
:1006B00001010160016821F010210160016821F44D
:1006C00000410160416821F44051416042F28D01D6
:1006D000C160016841F00C010160184988421BD1DA
:1006E000016841F020010160016821F040010160D2
:1006F000016821F010010160016821F080010160B2
:10070000016821F480710160016821F040010160FD
:10071000016821F001010160016841F001010160FF
:1007200000BFC16901F400110029FAD000BFC169FE
:1007300001F480010029FAD0704700000044004015
:10074000F0B504460E46174600250CE000BFE069F0
:1007500000F080000028FAD0705D20854FF496707C
:10076000FFF79AFF6D1CBD42F0D300BFE06900F0B7
:1007700040000028FAD0E06920F04000E061F0BDC0
:100780001FB50020019002900390009000BFFFF77A
:1007900019FEFFF7C9FDFFF73DFF012249F63F4172
:1007A0009007FFF7D1FE002239493A48FFF7CCFE07
:1007B000202239A14048FFF7C3FF20223FA13E4835
:1007C000FFF7BEFF63E033481030006820F00100FF
:1007D0003049103108604148807830BB3F4840784C
:1007E00018BB3E48C07900BB3C48007801281CD1AA
:1007F0003A48806839498979405C00F0E000402837
:100800000AD003DC58B120280AD104E0802804D0A3
:10081000A02805D102E007E006E005E004E003E0DF
:1008200002202E49887000BF00BF2D48807830BB61
:100830002B48407818BB2A48C07900BB284800786C
:1008400001281CD12648806825498979405C00F040
:10085000E00040280AD003DC58B120280AD104E087
:10086000802804D0A02805D102E007E006E005E0DA
:1008700004E003E002201A49887000BF00BF00BFF7
:1008800004481030006800F001000028F8D09AE712
:100890003F0D0300000C004057656C636F6D6520D1
:1008A000746F207468652055415254204D6163680F
:1008B000696E65210D0A0000004400403D3D3D3D4C
:1008C0003D3D3D3D3D3D3D3D3D3D3D3D3D3D3D3D58
:1008D0003D3D3D3D3D3D3D3D0D0A000028000020D1
:1008E000180000204FF04070E1EE100A7047000041
:1008F000100900080000002018000000C4010008D2
:10090000280900081800002080060000E001000807
:1009100020030000A005000020080000A00A00003D
:08092000200D0000A00F0000F3
:040000050800018965
:00000001FF
