:020000040800F2
:100000007006002029020008650200086702000847
:10001000690200086B0200086D0200080000000081
:100020000000000000000000000000006F02000857
:10003000710200080000000073020008D1040008EB
:1000400077020008770200087702000877020008AC
:10005000770200087702000877020008770200089C
:10006000770200087702000877020008770200088C
:10007000770200087702000877020008770200087C
:10008000770200087702000877020008770200086C
:10009000770200087702000877020008770200085C
:1000A000770200087702000877020008770200084C
:1000B000770200087702000877020008770200083C
:1000C000770200087702000877020008770200082C
:1000D000770200087702000877020008770200081C
:1000E000770200087702000877020008770200080C
:1000F00077020008770200087702000877020008FC
:1001000077020008770200087702000877020008EB
:1001100077020008770200087702000877020008DB
:1001200077020008770200087702000877020008CB
:1001300077020008770200087702000877020008BB
:1001400077020008770200087702000877020008AB
:10015000770200087702000877020008770200089B
:10016000770200087702000877020008770200088B
:1001700077020008770200087702000800000000FC
:10018000770200087702000800F002F800F03CF85F
:100190000AA090E8000C82448344AAF10107DA45E2
:1001A00001D100F031F8AFF2090EBAE80F0013F0F8
:1001B000010F18BFFB1A43F001031847300A000073
:1001C000500A0000103A24BF78C878C1FAD8520704
:1001D00024BF30C830C144BF04680C6070470000C1
:1001E0000023002400250026103A28BF78C1FBD840
:1001F000520728BF30C148BF0B6070471FB500F0E1
:10020000EFFC1FBD10B510BD00F09EF81146FFF7C2
:10021000F5FF00F059FB00F0BCF803B4FFF7F2FF64
:1002200003BC00F0C3F8000016481749174B994269
:100230003CBF50F8042B41F8042BF8D314494FF07D
:1002400000028B4238BF43F8042BFAD3DFF8440096
:10025000016841F470010160BFF34F8FBFF36F8FEE
:100260000D480047FEE7FEE7FEE7FEE7FEE7FEE794
:10027000FEE7FEE7FEE7FEE708480949094A0A4BA0
:10028000704700000C0C0008000000200C0000204B
:100290007006002088ED00E0890100087000002051
:1002A00070060020700200207002002040EA010366
:1002B00070B59B072ED14FF00136042A2AD308C807
:1002C00010C99D1B9D43121F15EAC61517D0D8B241
:1002D000E1B2401A50EA056110D198B2A1B2401AB9
:1002E00050EA05410AD123F07F4024F07F41401AB3
:1002F00050EA052102D1180EA0EB146070BDA34294
:10030000DBD018BA21BA884201D9012070BD4FF064
:10031000FF3070BD0AB9002070BD10F8013B11F824
:10032000014B63B1A3420AD1521E08D010F8013B21
:1003300011F8014B1BB1A34201D1521EEDD1181B84
:1003400070BD704770477047754600F02BF8AE4699
:1003500005006946534620F00700854618B020B5D1
:10036000FFF78AFFBDE820404FF000064FF000077E
:100370004FF000084FF0000B21F00701AC46ACE84D
:10038000C009ACE8C009ACE8C009ACE8C0098D46BA
:10039000704710B50446AFF300802046BDE810401A
:1003A000FFF73BBF004870470C00002001491820B0
:1003B000ABBEFEE72600020070470000034840691C
:1003C00020F4807001494861704700000010004827
:1003D0000348406940F4807001494861704700005B
:1003E000001000480348406980F48070014948616A
:1003F00070470000001000482348C06C40F0120015
:100400002149C8646FF03000204908600846006840
:1004100040F0100008601D480830006820F03000EF
:100420001A49083108600846006840F0300008604A
:10043000081F006820F00400091F086013480C30F2
:10044000006820F0300011490C3108606FF4403032
:100450000F4908600846006840F48030086008468C
:10046000806820F4403088600846806840F440305E
:1004700088600846406820F4807048600846C0687C
:1004800020F44030C860704700100240000400486B
:10049000001000480348006820F00400014908608B
:1004A00070470000140400480348006840F004004E
:1004B00001490860704700001404004803480068C0
:1004C00080F00400014908607047000014040048EF
:1004D00010B50C4800683C280DDB0B48006808B1DB
:1004E000FFF7ECFF0948006808B1FFF77BFF002029
:1004F0000449086004E003480068401C01490860A2
:1005000010BD0000080000200400002000000020B2
:1005100030B5024600204FF0E0210861501E4861CE
:1005200048170F21002804DB0B071C0E0F4B1C542F
:1005300006E00B071D0E0E4B00F00F04241F1D5587
:1005400000BF00204FF0E02188610846006940F0BC
:10055000040008610846006940F00200086108468E
:10056000006940F00100086130BD000000E400E0D7
:1005700018ED00E05E49096821F007015C4A11604E
:100580001146096841F0020111605A49096841F4B5
:100590008071584A116000BF5649096801F48061B2
:1005A0000029F9D010205349496821F0F851514AE7
:1005B00051601146496841EA00615160114609687D
:1005C00021F08071116000BF4A49096801F0007193
:1005D000B1F1007FF8D04749C96821F00301454ACD
:1005E000D1601146C96841F00201D1601146C96865
:1005F00021F4FE4141F4A051D1601146C96821F0B7
:10060000700141F01001D1601146C96821F0C0614C
:10061000D1601146C96841F08071D1601146096806
:1006200041F08071116000BF3249096801F000712A
:100630000029F9D02F49896821F003012D4A9160E2
:100640001146896841F00301916000BF294989681A
:1006500001F00C010C29F9D12649896821F0F0013B
:10066000244A91601146896821F4E0619160114645
:10067000896821F4605191601146096821F0806118
:10068000116000BF1B49096801F08061B1F1806F02
:10069000F8D01849096921F4FE41164A1161114642
:1006A000096941F4C05111611146096941F40031F1
:1006B00011611146096941F48031116111460968DF
:1006C00041F08061116000BF0A49096801F0806152
:1006D0000029F9D007498831096821F44001054A09
:1006E000C2F888101146096E41F400111166704776
:1006F00000200240001002401A48C06C40F0080080
:100700001849C8641848006820F4705016490860F9
:100710000846006840F42050086013482030006804
:1007200040F0EE601049203108600F480830006842
:1007300040F470500C4908310860081D006820F42E
:100740007050091D08600846006840F4A050086019
:100750000548001D006820F060000349091D08607D
:100760007047000000100240000C004800B50D4822
:10077000806D40F400300B4988650A488830006875
:1007800020F00C00C1F888000846D0F8880040F03E
:100790000400C1F88800FFF7AFFF034800F010F82D
:1007A00000BD0000001002400044004064224243AB
:1007B0000723B2FBF3F100BF4A1E111EFCD17047A4
:1007C000016821F001010160016821F01021016040
:1007D000016821F400410160416821F44051416009
:1007E00042F28D01C160016841F00C0101601E49B7
:1007F00088421BD1016841F020010160016821F0AD
:1008000040010160016821F010010160016821F0E0
:1008100080010160016821F480710160016821F0AC
:1008200040010160016821F0010101600F49884227
:1008300009D1016A41F0400101620D49096841F0A6
:10084000C0010B4A1160016841F00101016000BF65
:10085000C16901F400110029FAD000BFC16901F497
:1008600080010029FAD07047004C0040004400404D
:1008700008380140014600BFC86900F02000002888
:10088000FAD0888CC0B27047F0B504460E461746C1
:1008900000250CE000BFE06900F080000028FAD0DD
:1008A000705D20854FF49670FFF780FF6D1CBD4290
:1008B000F0D300BFE06900F040000028FAD0E06902
:1008C00020F04000E061F0BD1FB5002001900290D3
:1008D0000390734908607349086073490860009089
:1008E0000024FFF747FEFFF787FDFFF73FFF6F4844
:1008F000FFF70EFE20226EA17548FFF7C5FF2022EC
:1009000074A17348FFF7C0FFC9E032E07048FFF7F9
:10091000B1FF8DF800009DF8000001A908559DF871
:10092000000030B39DF800007F2808D1002C06DDC0
:10093000012269466648FFF7A7FF641E19E09DF88B
:1009400000007F2803D1002C01DC002411E09DF879
:1009500000000D2801D0092C05D302225BA15C48C0
:10096000FFF792FF06E0012269465948FFF78CFF26
:10097000641CCBE700BF04225EA101A8FFF796FC30
:1009800060B9042C0AD1002046490860FFF782FDB7
:1009900013225AA14E48FFF777FF72E003225CA1B1
:1009A00001A8FFF783FC60B9032C0AD100203D4960
:1009B0000860FFF779FD122256A14548FFF764FF52
:1009C0005FE0042258A101A8FFF770FC60B9042C75
:1009D0000AD1002032490860FFF7F0FC152254A12B
:1009E0003B48FFF751FF4CE0032257A101A8FFF756
:1009F0005DFC60B9032C0AD1002029490860FFF78B
:100A0000E7FC142251A13248FFF73EFF39E00622ED
:100A100054A101A8FFF74AFC50B9062C08D10120C7
:100A200020490860112251A12948FFF72DFF28E035
:100A3000062253A101A8FFF739FC50B9062C08D1B2
:100A400001201749086013224FA12148FFF71CFF1E
:100A500017E0082251A101A8FFF728FC60B9082C73
:100A60000AD100200F4908600D4908601F224EA1DD
:100A70001748FFF709FF04E0162253A11448FFF7B7
:100A800003FF022211A11248FFF7FEFE02220FA16E
:100A90000F48FFF7F9FE00208DF80000002434E72E
:100AA00000000020040000200800002040420F0049
:100AB00057656C636F6D6520746F20746865205591
:100AC000415254204D616368696E65210D0A000032
:100AD000004400403D3D3D3D3D3D3D3D3D3D3D3DB6
:100AE0003D3D3D3D3D3D3D3D3D3D3D3D3D3D3D3D36
:100AF0000D0A0000524F4646000000005475726E09
:100B00006564206F666620726564204C45442E0043
:100B1000524F4E005475726E6564206F6E20726580
:100B200064204C45442E0000474F4646000000001C
:100B30005475726E6564206F666620677265656EB7
:100B4000204C45442E000000474F4E005475726EF5
:100B50006564206F6E20677265656E204C45442E7B
:100B60000000000052464C4153480000466C61733F
:100B700068696E6720726564204C45442E00000051
:100B800047464C4153480000466C617368696E6784
:100B900020677265656E204C45442E00464C4153DB
:100BA000484F46460000000053746F707065642023
:100BB000466C617368696E6720666F7220626F743D
:100BC00068204C4544732E004572726F723A20497A
:100BD0006E76616C696420436F6D6D616E640000B8
:100BE0004FF04070E1EE100A704700000C0C000856
:100BF000000000200C000000C4010008180C0008D0
:100C00000C00002064060000E00100080000000065
:080C10000000000000000000DC
:040000050800018965
:00000001FF
