:020000040800F2
:10000000A08700207D0200081F18000805170008BF
:100010001D180008B50300082D210008000000008D
:100020000000000000000000000000009D0100082A
:10003000B703000800000000F9010008D91A000801
:10004000970200089702000897020008970200082C
:10005000970200089702000897020008970200081C
:10006000970200089702000897020008970200080C
:1000700097020008970200089702000897020008FC
:1000800097020008970200089702000897020008EC
:1000900097020008970200089702000897020008DC
:1000A00097020008D51B0008970200089702000875
:1000B00097020008970200089702000897020008BC
:1000C00097020008970200089702000897020008AC
:1000D000970200089702000897020008970200089C
:1000E000970200089702000897020008970200088C
:1000F000970200089702000897020008970200087C
:10010000970200089702000897020008970200086B
:10011000970200089702000897020008970200085B
:10012000970200089702000897020008970200084B
:10013000970200089702000897020008970200083B
:10014000970200089702000897020008970200082B
:10015000970200089702000897020008970200081B
:10016000970200089702000897020008970200080B
:10017000970200089702000897020008000000009C
:100180009702000897020008DFF80CD000F000F991
:10019000004800476D210008A08700202C4B1968FB
:1001A000086800F05AB880F30988BFF36F8F4FF0EA
:1001B000000080F3118870470000000008480068C4
:1001C000006880F308884FF0000080F3148862B65E
:1001D00061B6BFF34F8FBFF36F8F00DF00BF00BF6B
:1001E00008ED00E0DFF80C00016841F470010160E7
:1001F000704700BF88ED00E0EFF30980BFF36F8F19
:10020000134B1A681EF0100F08BF20ED108A20E96A
:10021000F04F106009B44FF0500080F31188BFF325
:100220004F8FBFF36F8F02F061FE4FF0000080F33D
:10023000118809BC1968086800F014B81EF0100F86
:1002400008BF00F014B880F30988BFF36F8F7047C0
:1002500014000020EFF30580704730C8B0E8C04FAD
:10026000FFF7A1BF30C8B0E8C04FFFF7E7BFB0EC61
:10027000088AB0EC08CAFFF7E6BF000006488047CE
:1002800006480047FEE7FEE7FEE7FEE7FEE7FEE77B
:10029000FEE7FEE7FEE7FEE7911B00088901000884
:1002A0002DE9F05F0546002092469B4688460646AB
:1002B000814640241BE0284641464746224600F03E
:1002C00056F853465A46C01A914110D31146184663
:1002D000224600F03DF82D1A67EB01084F462246F2
:1002E0000120002100F034F817EB00094E41201ED8
:1002F000A4F10104DFDC484631462A46434600F0BB
:1003000000B830BCBDE8C09F40EA01039B0703D0A2
:1003100009E008C9121F08C0042AFAD203E011F844
:10032000013B00F8013B521EF9D27047D2B201E006
:1003300000F8012B491EFBD270470022F6E710B5EA
:1003400013460A4604461946FFF7F0FF204610BD43
:10035000202A04DB203A00FA02F100207047914085
:10036000C2F1200320FA03F3194390407047202A7A
:1003700004DB203A21FA02F00021704721FA02F34F
:10038000D040C2F120029140084319467047000056
:10039000064C074D06E0E06840F0010394E80700D2
:1003A00098471034AC42F6D3FFF7F2FE98390008B4
:1003B000B8390008FEE77047704700002DE9F84F94
:1003C000DFF898B100234FF0010C4FF0030A4FF013
:1003D0000F090BF1040EB9E00CFA03F4224070D0BF
:1003E0004D68022D01D0122D0ED1DD0800EB8508DD
:1003F000D8F820505E07F70E09FA07F6B5430E69E4
:10040000BE402E43C8F8206007685E0091F8048063
:100410000AFA06F508F00308AF4308FA06F848EAB6
:100420000708C0F800804F68012F05D0022F03D0C5
:10043000112F01D0122F13D1D0F80880CF6828EAED
:100440000508B74047EA08078760D0F804800F79AD
:1004500028EA0408C7F300179F4047EA08074760E7
:10046000D1F804806FEA0807BF0706D1C76AA7431F
:10047000C8F3C0049C403C43C462C468AC438D686C
:10048000B5402543C5604C68E4005ED5344C256E0C
:1004900045F001052566246E23F0030504F00104F0
:1004A0000094304C2E19B4689D072F0F09FA07F5F8
:1004B000AC43B0F1904F05D02B4DA84204D101259B
:1004C0001CE042E0002519E0284DA84201D1022598
:1004D00014E0274DA84201D103250FE0254DA84285
:1004E00001D104250AE0244DA84201D1052505E0EB
:1004F000224DA84201D1062500E00725BD40254335
:10050000B560DBF800405D464E689443F60300D5C5
:1005100014432C60DEF8004075464E689443B603E1
:1005200000D514432C600D4D08352C684E6894435B
:10053000F60200D514432C60084D0C352C684E682B
:100540009443B60200D514432C605B1C0A6832FA4F
:1005500003F57FF441AF00F013B800000004014040
:10056000001002400000014000040048000800485C
:10057000000C004800100048001400480018004813
:1005800018BCBDE8E08F000001488068704700009B
:10059000040000200248816842681144816070476D
:1005A0000400002010B50024032000F08DF8002086
:1005B00000F008F808B1012401E000F03DF8204601
:1005C00010BD000000B5014687B00022192000F0E0
:1005D0005BF8192000F04AF81348016E41F40061FD
:1005E0000166006E05A900F400600690684600F000
:1005F00021FB00F051FB0D490D4AB0FBF1F10D4814
:10060000491E0260416040F2E7320021C0E9032147
:10061000816000F077FE10B1012007B000BD0548F1
:1006200000F0B6FEF9E700000010024040420F0063
:10063000002C01405C0100200B4882B0016E41F0AB
:1006400001010166016E01F001010091816D41F02F
:1006500080518165806D002200F0805000900F2154
:10066000901E02B000F010B800100240002809DB14
:1006700000F01F02012191404009800000F1E020BC
:10068000C0F8001170470000F0B40E4B1B680C4618
:10069000C3F30223C3F10705042D00D90425191D56
:1006A000072901D2002300E0DB1E012606FA05F12E
:1006B000491E214099409E40761E16403143F0BCB1
:1006C00001F035BD0CED00E0064900F007020868B6
:1006D0004FF6FF03184040EA0220034A1043086027
:1006E000704700000CED00E00000FA051649B0F577
:1006F000007F0868C0F3412009D0022805D00868AF
:1007000020F4C06040F48060086000207047012839
:10071000FBD0086820F4C06040F4007008600B480B
:100720003222006850430A4AB0FBF2F0401C00E05D
:10073000401E4A69520501D50028F9D14869400593
:10074000E3D5032070470000007000401000002037
:1007500040420F000248006800F4C060704700008B
:10076000007000402DE9F84F044600270088E54D51
:100770003E46010504F1200B1DD5606E78B1B0F541
:10078000800F11D0B0F5000F04D0B0F5400F22D08B
:1007900001270FE0E86840F48030E8601BE00021AA
:1007A000201D01F03DF803E00021584601F0CEF88D
:1007B000070010D03E462088C00426D5A06EC0B1E8
:1007C000B0F1807F1AD0B0F1007F0DD0B0F1407F42
:1007D00019D0012718E0D5F88800616E20F4400098
:1007E0000843C5F88800E6E7E86840F48030E86030
:1007F00009E00021201D01F013F803E00021584614
:1008000001F0A4F80746F7B13E46206880033AD5C8
:10081000A86D4FF00008C00009D4A86D40F08050CA
:10082000A865A86D4FF0010800F080500090DFF837
:10083000D8A2DAF8001041F48071CAF80010FFF76E
:10084000A3FE814610E0D5F88800A16E20F040702C
:100850000843C5F88800D8E7FFF796FEA0EB09002B
:10086000022801D9032705E0DAF80000C005F3D516
:10087000002F7CD04FEA0706B8F1000F03D0A86D17
:1008800020F08050A8652078C00707D0D5F88800F0
:10089000A16B20F003000843C5F88800207880078A
:1008A00007D5D5F88800E16B20F00C000843C5F8A7
:1008B00088002078400707D5D5F88800216C20F003
:1008C00030000843C5F888002078000707D5D5F820
:1008D0008800616C20F0C0000843C5F888002078CB
:1008E000C00607D5D5F88800A16C20F440700843F5
:1008F000C5F888002078800607D5D5F88800E16C17
:1009000020F440600843C5F888002088800507D59A
:10091000D5F88800E16D20F440200843C5F8880030
:100920002088400507D5D5F88800216E20F44010B6
:100930000843C5F888002078400607D5D5F8880018
:10094000216D20F440500843C5F888002078000647
:1009500007D5D5F88800616D20F440400843C5F8FC
:1009600088002088C00509D5D5F8880000E01CE083
:10097000A16D20F440300843C5F8880020884FF06E
:10098000006780044FF080684FD5D5F88800E16E8D
:1009900020F040600843C5F88800E06EB8423CD1C2
:1009A000E86840F48010E8603FE0D5F8900010F46B
:1009B000407015D0D4F88410814211D0D5F8900041
:1009C000D5F8901020F4407041F48031C5F89010B3
:1009D000D5F8901021F48031C5F89010C5F890003A
:1009E000C00710D0FFF7D0FD074641F2883906E076
:1009F000FFF7CAFDC11B494501D903263CE7D5F8DD
:100A000090008007F4D5D5F89000D4F8841020F435
:100A100040700843C5F890002EE7404505D10121FC
:100A2000201D00F0FDFE00B106462068000317D52A
:100A3000D5F88800216F20F040600843C5F8880091
:100A4000206FB84204D1E86840F48010E86007E005
:100A5000404505D10121201D00F0E2FE00B106460F
:100A60002068400317D5D5F88800616F20F04060FA
:100A70000843C5F88800606FB84204D1E86840F4C4
:100A80008010E86007E0404505D10121201D00F0FD
:100A9000C7FE00B10646208840041AD5D5F8880064
:100AA000A16F20F040500843C5F88800A06FB0F156
:100AB000805F03D0B0F1005F05D00AE00221201D65
:100AC00000F0AEFE03E00221584600F03FFF00B107
:100AD00006462088000407D5D5F88800E16F20F08D
:100AE00080400843C5F888002068C00307D555F842
:100AF000880FD4F8801020F000400843286030466A
:100B000000F004B8001002400070004018BCBDE8BE
:100B1000E08F00002DE9F0470F46050058D0404E09
:100B2000306800F00700B84209D2306820F00700B2
:100B300038433060306800F00700B84248D1287868
:100B4000384CC0072CD06868032811D0022812D076
:100B5000216898B1490500293ADAA16821F003011A
:100B60000143A160FFF710FD804641F2883910E093
:100B700021688901EFE721688903ECE78907EAE743
:100B8000FFF702FDA0EB0801494502D90320BDE8AB
:100B9000F087A068696800F00C00B0EB810FEFD11E
:100BA0002878800705D5A068A96820F0F0000843E0
:100BB000A060306800F00700B8420BD9306820F020
:100BC000070038433060306800F00700B84201D0B9
:100BD0000120DCE72878400705D5A068E96820F403
:100BE000E0600843A0602878000706D5A06829695E
:100BF00020F4605040EAC100A06000F05FF8A168F6
:100C0000094AC1F30311515C01F01F01C8400749B3
:100C1000086007480068BDE8F047FFF7D3BC000054
:100C2000002002400010024044390008100000205B
:100C3000040000200F2202600C4A936803F00303B3
:100C40004360936803F0F0038360936803F4E06308
:100C5000C36092684FF4E06303EAD2020261044881
:100C6000006800F0070008607047000000100240B4
:100C7000002002400548064900688968054AC1F31A
:100C80000221515C01F01F01C84070471000002094
:100C90000010024084390008054806490068896848
:100CA000054AC1F3C221515C01F01F01C8407047E1
:100CB00010000020001002408439000870B525495A
:100CC000002318468A68CC6812F00C0204F0030670
:100CD000214C4FEA640509D00C2A05D0042A32D0F1
:100CE000082A00D1284670BD012E10D10B681B07C1
:100CF00004D4D1F89430C3F3032302E00B68C3F3A8
:100D00000313164E56F82330DAB10C2AEBD1C8681B
:100D100000F00300022818D0032818D01846CA682B
:100D2000CB68C2F30212C3F306234343521CB3FB46
:100D3000F2F2C868C0F34160401C4000B2FBF0F022
:100D400070BD184670BD204670BD2046E7E72846B6
:100D5000E5E70000001002400024F40054390008C8
:100D60002DE9F84304006ED0FD4DA86800F00C0694
:100D7000E86800F003072078C00663D576B10C2E32
:100D800001D1012F0AD0A0690028286878D040F04E
:100D900001002860FFF7F8FB80465BE028688007C9
:100DA00002D5A0690028DED0216A2868000703D593
:100DB000286800F0F00004E0D5F89400F02202EA80
:100DC0001010814216D9084600F044FE00283AD19E
:100DD000286840F0080028602868216A20F0F000A8
:100DE000084328606868E16920F47F4040EA0120F8
:100DF000686015E0286840F0080028602868216ACB
:100E000020F0F000084328606868E16920F47F4022
:100E100040EA01206860206A00F01CFE0028D6D15C
:100E2000FFF74CFFA968CF4AC1F30311515C01F0F1
:100E30001F01C840CC490860CC480068FFF7C2FBDE
:100E400000287DD12DE0C9E0FFF79EFBA0EB080054
:100E5000022876D828688007F6D5286840F0080070
:100E600028602868216A20F0F0000843286068683C
:100E7000E16920F47F4040EA0120686011E0FFE76B
:100E800020F001002860FFF77FFB804606E000BFEE
:100E9000FFF77AFBA0EB08000228DAD82868800761
:100EA000F6D42078C00740D0082E18D00C2E01D1DF
:100EB000032F14D06068B0F5803F17D0B0F5A02F95
:100EC000286817D020F480302860286820F480201B
:100ED00028606068E0B1FFF757FB804614E028689F
:100EE000800322D56068002878D01EE0286840F48E
:100EF0008030EDE740F480202860F7E7FFF744FBFF
:100F0000A0EB08006428A4D828688003F6D50CE07C
:100F1000FFF73AFB804605E0FFF736FBA0EB080041
:100F2000642896D828688003F6D4207880073BD5BB
:100F3000042E11D00C2E01D1022F0DD0E06801E05B
:100F40003EE19FE0002828681ED040F480702860B1
:100F5000FFF71AFB07460CE0286840050CD5E0684F
:100F60000028C1D008E000BFFFF70EFBC01B02281D
:100F700093D828684005F7D56868217C20F0F850A0
:100F800040EA016068600FE020F480702860FFF79D
:100F9000FBFA074605E000BFFFF7F6FAC01B022880
:100FA00070D828684005F7D42078000729D56069F3
:100FB0000028D5F8940012D040F00100C5F8940044
:100FC000FFF7E2FA074604E0FFF7DEFAC01B02284B
:100FD00058D8D5F894008007F6D512E029E120F022
:100FE0000100C5F89400FFF7CFFA074605E000BFFF
:100FF000FFF7CAFAC01B022844D8D5F8940080072E
:10100000F6D42078400768D5A86D0027C00008D422
:10101000A86D40F08050A865A86D012700F08050B1
:10102000009053480168C90512D40168814641F413
:1010300080710160FFF7A8FA804605E0FFF7A4FA87
:10104000A0EB080002281DD8D9F80000C005F5D58E
:10105000A068012817D00528D5F8900018D020F0F6
:101060000100C5F89000D5F8900020F0040000BF02
:10107000C5F89000A06841F28839D0B1FFF784FA32
:10108000804611E06BE0D5F8900040F00100EFE7FA
:1010900040F00400C5F89000F5E700BFFFF774FAD0
:1010A000A0EB080149455AD8D5F890008007F5D53E
:1010B0000EE0FFF769FA804606E000BFFFF764FA2A
:1010C000A0EB080149457AD8D5F890008007F5D4FF
:1010D0001FB1A86D20F08050A865A06AF0B30C2E57
:1010E00075D00228286820F08070286004D0286815
:1010F00010F0205F51D054E0FFF746FA064604E0B6
:10110000FFF742FA801B022859D828688001F7D4DB
:10111000D4E90B016FF00F0202EB01110843A18F1C
:101120005204490802EB4151626B41EA0221084333
:1011300094F840104FF07E42490802EB41610843A9
:10114000A16B090940EA4140E9680A4A1140084395
:10115000E860286840F0807028600DE06BE02EE0C9
:101160000010024044390008100000200400002054
:10117000007000408C809DF9E86840F08070E86065
:10118000FFF702FA044604E0FFF7FEF9001B02280D
:1011900015D828688001F7D54DE0E86820F00300F5
:1011A000E860E86825490840E860FFF7EDF9044683
:1011B00009E000BFFFF7E8F9001B022803D903206C
:1011C000BDE8F88303E028688001F3D433E0012808
:1011D000F6D0E868E26A00F00301914229D1216B60
:1011E00000F0700209011039914222D1626B00F4C3
:1011F000FE41B1EB022F1CD1A26B00F40031072A93
:1012000001D0012200E00022914212D1A18F00F40E
:10121000C00249084905A1F50011914209D194F88D
:10122000401000F0C06049084906A1F100718142F8
:1012300001D00120C4E70020C2E70000FFFFEEFE5E
:1012400070B5040003D06079002510B105E00120DD
:1012500070BD2571204600F00DF8022060712068F5
:10126000016841F00401016001206071A560002067
:1012700070BD000008B500680649884208D10648DC
:10128000C16C41F48021C164C06C00F480200090E6
:1012900008BD00000008065000100240704770476B
:1012A0007047000070B590F83C20012A24D001243A
:1012B00080F83C40022280F83D200268536895681F
:1012C0000E4EB24202D00E4EB24203D123F470064B
:1012D0004B68334323F070060B688968334325F06D
:1012E0008005294353600268916080F83D400021E9
:1012F00080F83C10084670BD022070BD002C0140F3
:101300000034014010B5040003D094F83D0010B142
:1013100007E0012010BD002084F83C00204600F0CA
:101320000DF8022084F83D00211D206800F058FCD3
:10133000012084F83D00002010BD000008B50068C1
:10134000B0F1804F08D10548816D41F00101816500
:10135000806D00F00100009008BD00000010024008
:10136000022180F83D1001688A68084B1A40062A5D
:1013700006D0B2F5803F03D00A6842F001020A604D
:10138000012180F83D100020704700000700010097
:101390000168CA6842F00102CA6001688868064AAA
:1013A0001040062806D0B0F5803F03D0086840F012
:1013B00001000860002070470700010070B5044676
:1013C00090F83C00012817D0012584F83C500220F9
:1013D00084F83D00226890682E4B184020F47F402E
:1013E00090600868502830D00DDC20284DD005DCF6
:1013F00098B310283BD148E0022070BD302844D07B
:10140000402834D139E0602828D0702806D0B0F5C3
:10141000805F2CD0B0F5005F29D10AE0CB68D1E91C
:101420000121206800F03CFC2068816841F07701D0
:1014300009E0CB68D1E90121206800F031FC206887
:10144000816841F48041816011E0CA684968206880
:1014500000F038FC5021206807E016E0CA684968AF
:10146000206800F040FC6021206800F023FC84F834
:101470003D50002084F83C0070BDCA68496820686F
:1014800000F020FC40212068EFE72268014610466A
:10149000EBE7000088FFFEFF704770B50446006868
:1014A00001694FF00005C943890715D4C168C943D4
:1014B000890711D4E91E0161012020772068806925
:1014C0008007204602D0FFF7E7FF04E000F0A7F80E
:1014D000204600F0A5F8257720680169C94349072F
:1014E00017D4C168C943490713D46FF004010161DF
:1014F000022020772068806910F4407F204602D0C7
:10150000FFF7CAFF04E000F08AF8204600F088F8F0
:10151000257720680169C943090716D4C168C94302
:10152000090712D46FF008010161042020772068B8
:10153000C0698007204602D0FFF7AEFF04E000F04C
:101540006EF8204600F06CF8257720680169C943E1
:10155000C90617D4C168C943C90613D46FF0100176
:101560000161082020772068C06910F4407F204680
:1015700002D0FFF791FF04E000F051F8204600F0A0
:101580004FF8257720680169C943C90708D1C168A8
:10159000C943C90704D1891E0161204600F042F801
:1015A00020680169C943090609D4C168C94309060D
:1015B00005D46FF0800101612046FFF770FE2068BE
:1015C0000169C943C90509D4C168C943090605D4DD
:1015D0006FF4807101612046FFF760FE20680169A9
:1015E000C943490609D4C168C943490605D46FF007
:1015F00040010161204600F01FF820680169C943DD
:1016000089060BD4C168C943890607D46FF020014D
:1016100001612046BDE87040FFF742BE70BD7047D3
:101620007047000000680349884201D1FEF7B2BF4D
:1016300070470000002C0140704710B5040002D034
:10164000606F10B107E0012010BD002084F8700029
:10165000204600F025F8242060672068016821F00A
:1016600001010160204600F0E1FB0128ECD0606A36
:1016700010B1204600F049FB2068416821F49041F8
:1016800041602068816821F02A018160206801683A
:1016900041F0010101602046BDE8104000F099BB17
:1016A00010B586B0044614216846FEF746FE12497E
:1016B000206888421ED11148816D41F40031816556
:1016C000816D01F400310591C16C41F00801C164E4
:1016D000C06C694600F00800059060200090022070
:1016E00001900020029003200390072004900448FA
:1016F000FEF764FE06B010BD00440040001002403A
:10170000000C0048FEE7000000B589B000F05AFD6B
:10171000242206496846FEF7F7FD6A460021044880
:1017200000F08CFD0349086009B000BD20390008B5
:10173000D11A000800000020054808B5C16C41F02E
:101740000801C164C06C00F00800009008BD0000F2
:1017500000100240074910B5054808600846FFF729
:101760006FFD002803D0BDE81040FEF725BE10BD78
:10177000000806508C00002010B588B000241748DF
:101780000094019402940394049405944FF08041D2
:10179000069401609F21C0E90114611EC0E9031491
:1017A0008461FFF7AFFD08B1FEF706FE4FF48050ED
:1017B000009069460948FFF701FE08B1FEF7FCFDFD
:1017C000049404A905480694FFF76CFD08B1FEF7E0
:1017D000F3FD0248FFF7C4FD08B010BD9C000020D7
:1017E0000D4810B50B4901604FF4E1314160002113
:1017F00081600C22C160C0E904128161C161016293
:101800004162FFF71AFF002803D0BDE81040FEF741
:10181000D3BD10BD00440040DC000020FEE770474F
:101820002DE9F041444C05468846E06800268107D2
:1018300028680DD0E16801F00301814216D1A8B1FA
:10184000E0686968C0F30210401C88420ED120E0B5
:10185000012804D0022805D0032807D108E0216818
:10186000890701E021684905002907DB01265FE0BF
:101870002168890302D421684903F5E7E1686A68B1
:101880006FF00F0321F0730103EB021211430143C8
:10189000E160206820F080602060FEF775FE07465A
:1018A00005E000BFFEF770FEC01B022837D8206895
:1018B0000001F7D4B8F1000F18D0B8F1010F1ED015
:1018C000287D4FF07E41400801EB4060A96840EA66
:1018D00001202169194A114008432061206840F025
:1018E00080602060FEF750FE07461AE0A868E968AD
:1018F0000002090940EA41402169114AEBE7288AC0
:101900001049400801EB4050A96840EA01202169D4
:101910000D4AE0E7FEF738FEC01B022801D9032676
:1019200006E020680001F5D52069A9690843206117
:101930003046BDE8F081000000100240FF80FFF952
:10194000FF80FDFF0000E0FFFF809FFF2DE9F041D9
:101950003D4C06468846E0680025810730680DD07A
:10196000E16801F00301814216D1A8B1E068716815
:10197000C0F30210401C88420ED120E0012804D0A0
:10198000022805D0032807D108E02168890701E073
:1019900021684905002907DB012551E021688903F9
:1019A00002D421684903F5E7E16872686FF00F031C
:1019B00021F0730103EB021211430143E16020683F
:1019C00020F080502060FEF7DFFD074605E000BFF5
:1019D000FEF7DAFDC01B022829D820688000F7D462
:1019E000B8F1000F15D0307C4FF07E41400801EB7C
:1019F0004060B16840EA01206169144A114008431F
:101A00006061206840F080502060FEF7BDFD074611
:101A10000FE0B068F1680002090940EA41406169DD
:101A20000B4AEBE7FEF7B0FDC01B022801D90325E6
:101A300006E020688000F5D560697169084360613F
:101A40002846BDE8F081000000100240FF80FFF949
:101A5000FF80FDFFF8B51C4D06460024A86DC000B0
:101A600002D5FEF777FE0DE0A86D40F08050A86526
:101A7000A86D00F080500090FEF76CFEA96D21F07B
:101A80008051A965B0F5007F04D0802E07D94FF0B2
:101A900003040AE0802E08D9A02E01D804E001D169
:101AA000022402E0702E00D101240848016821F0D0
:101AB000070121430160006800F00700A04201D047
:101AC0000120F8BD0020F8BD0010024000200240B7
:101AD000012000F05DFBFBE710B5502080F311887A
:101AE000BFF34F8FBFF36F8F01F078FD18B104493A
:101AF0004FF080500860002080F3118810BD000076
:101B000004ED00E0F0B5B9B0442122A8FEF715FCC1
:101B1000142133A8FEF711FC88216846FEF70DFC5E
:101B20000224E0012590102026900A2022942F9074
:101B300001262C94CDE92D460727CDE9307422A843
:101B40003294FFF70DF90F20002533900320CDE9E3
:101B500034053695042133A83795FEF7DBFF0B4893
:101B60000F95009040061D900820CDE90260019479
:101B700004970420CDE90504800407906846FEF729
:101B8000F1FD2002FEF7B2FD39B0F0BD0200040005
:101B90000D48016841F4700101600C48016841F092
:101BA00001010160002181600268094B1A40026056
:101BB0008214C260026822F48022026081610249BC
:101BC000C00380390860704788ED00E000100240D3
:101BD000FFFFF6EA0148FFF760BC00005C0100204F
:101BE0002DE9F0470268264B264D274E274F284CFB
:101BF0004FF0804A984209D0504507D0A84205D0FE
:101C0000B04203D0B84201D0A04204D122F0700CFF
:101C10004A6842EA0C02DFF87CC0DFF87C80DFF81B
:101C20007C9098420FD050450DD0A8420BD0B042C6
:101C300009D0B84207D0A04205D0604503D0404546
:101C400001D0484503D122F44075CA682A434D6942
:101C500022F080022A4302608A68C2620A688262B5
:101C6000984207D0A04205D0604503D0404501D03E
:101C7000484501D10969016301214161BDE8F0874F
:101C8000002C01400004004000080040000C00400F
:101C90000034014000400140004401400048014040
:101CA00010B5846842EA032224F47F440A432243A5
:101CB000826010BD826822F070020A4342F0070180
:101CC0008160704710B5036A046A24F0010404625D
:101CD000846924F0F00444EA021423F00A020A435F
:101CE0008461026210BD10B5036A23F01003036221
:101CF0008369046A23F4704343EA023224F0A003A8
:101D000043EA01118261016210BD90F82410C907F5
:101D100006D001684A68836A22F400321A434A6096
:101D200090F82410890706D501684A68C36A22F42E
:101D300080321A434A6090F82410490706D501689A
:101D40004A68036B22F480221A434A6090F82410F8
:101D5000090706D501684A68436B22F400421A431A
:101D60004A6090F82410C90606D501688A68836B1A
:101D700022F480521A438A6090F82410890606D50E
:101D800001688A68C36B22F400521A438A6090F893
:101D90002410490611D501684A68036C22F48012A8
:101DA0001A434A60016CB1F5801F06D101684A6888
:101DB000436C22F4C0021A434A6090F824100906CA
:101DC00006D501684A68806C22F4002202434A600A
:101DD0007047F8B500260446C667FEF7D5FB0546F2
:101DE000206800686FF07E47000708D52B46002268
:101DF0004FF400112046009700F068F960B92068A0
:101E0000006840070AD52B4600224FF48001204687
:101E1000009700F05BF908B10320F8BD202060674F
:101E2000A06784F870600020F8BD00002DE9F04143
:101E30000546016880682B69EC6918436B690027C7
:101E400023431843954A0B68954C234003430B608A
:101E500028684168EB6821F44051194341602968C2
:101E6000A869914201D02B6A18438B6823F4306330
:101E700003438B608B4B29688B4899420DD1D0F876
:101E8000880010F0030006D0012868D0022864D032
:101E9000032851D165E001244FE0844B99420BD1D6
:101EA000D0F8880010F00C0055D0042857D008282E
:101EB00053D00C2840D154E07D4B99420BD1D0F83F
:101EC000880010F0300046D0102848D0202844D098
:101ED000302831D145E0774B99420BD1D0F88800BA
:101EE00010F0C00037D0402839D0802835D0C02825
:101EF00022D136E0704B99420ED1D0F8880010F410
:101F0000407028D0B0F5807F29D0B0F5007F24D074
:101F1000B0F5407F10D124E091420DD1D0F8880077
:101F200010F4406017D0B0F5806F18D0B0F5006F96
:101F300013D0B0F5406F14D01024604B00264FF43E
:101F40000040914245D174B1022C0FD0042C0FD027
:101F5000082C18D10FE00024EFE70224EDE7042459
:101F6000EBE70824E9E7FEF785FE03E0184602E008
:101F7000FEF7A4FEA8B36A6802EB4201814202D8D0
:101F8000B0EB023F01D9012775E0DFF834815CB185
:101F9000022C0CD0042C13D0082CF4D150082105AD
:101FA000401846F1000105E0FEF764FE0AE0500823
:101FB0004449F5E70023FEF773F9A0F5407156E0B8
:101FC000FEF77CFE6A68010E030250081818714182
:101FD000F0E7E9694FF6EF7881422FD1092CD2D290
:101FE00000E048E0DFE804F00609200523050505C8
:101FF0002600C8E7FEF73EFE01E0FEF74DFE410079
:10200000D5F8040001EB5001B1FBF0F080B2A0F173
:1020100010014145B7D84FF6F0710140C0F34200BE
:1020200001432868C16026E027496868EAE7FEF7AF
:1020300045FEE4E74FF480316868E3E7092CA2D25B
:10204000DFE804F006091E052205050525009AE7CC
:10205000FEF710FE01E0FEF71FFE0146686801EB87
:10206000500100BFB1FBF0F080B2A0F1100141457A
:1020700089D82968C8602E6638466E66BDE8F0814A
:10208000686803EB5001EDE7FEF718FEE5E76968C5
:1020900000EB5100B0FBF1F0E6E7000000800040EB
:1020A000F369FFEF00380140001002400044004097
:1020B00000480040004C0040005000400024F40064
:1020C000FFFC0F00000024F40048E8012DE9F04176
:1020D000984617460E460446069D08E0681C06D042
:1020E000FEF752FAA0EB0800A8420BD855B12068C1
:1020F000C06936EA000017D00020B842EED00020B8
:10210000BDE8F0812068016821F4D0710160206889
:10211000816821F00101816020206067A0670020B4
:1021200084F870000320EBE70120E6E7FEE70907EB
:10213000090E002804DB00F1E02080F8001470474D
:1021400000F00F0000F1E02080F8141D704702E05D
:1021500008C8121F08C1002AFAD170477047002032
:1021600001E001C1121F002AFBD17047FEF71AFAE5
:10217000FFF7C8FCFFF7E0FAFFF7ECFAFFF7FCFA0D
:10218000FFF72EFBFFF7C0FA00F038F8FEE700007B
:1021900010B5EFF3058149B9EFF3108131B9084962
:1021A0000968022905D1EFF3118111B16FF005041F
:1021B00003E0002408B100F0E5FD204610BD00005A
:1021C00064000020EFF3058058B9EFF3108040B9A8
:1021D00009490868022801D030B109E0EFF3118005
:1021E00030B16FF005007047012008600020704793
:1021F0004FF0FF30704700006400002010B5EFF38F
:10220000058060B9EFF3108048B90B4908680228CF
:1022100002D0012806D00BE0EFF3118040B16FF03F
:10222000050010BD0220086000F014FE002010BD63
:102230004FF0FF3010BD000064000020F0B585B005
:102240004FEA01034FF00004EFF305810394A1BBB3
:10225000EFF3108189BB21490968022902D1EFF30C
:10226000118151BB48B3802618218DF8104004AD70
:1022700042B3176807B13D4697691FB139467F1EC3
:10228000382F02D21779FF0702D0002005B0F0BD29
:10229000576907B1BE08D2F808C0BCF1000F0DD0D5
:1022A000D4685C2C18D312693AB137B18DE80610A6
:1022B0003246294601F052F903900DE0D7685FB924
:1022C00012694AB903AACDE90012B2B2294601F057
:1022D00015F9012800D003940398D7E76400002083
:1022E0002DE9F041134C0F46054666692068001D34
:1022F00000F018FC681C07D137B12168BDE8F04137
:102300000D48091D00F05EBC20683544B5424560AB
:10231000216805D2A068BDE8F041091D00F03ABC73
:102320006068091D00F036FC206B854200D22563F1
:10233000BDE8F081140000208C0600202DE9F0415A
:10234000054600F04BFC2D4C2069401C20612068A4
:102350002B4F10B1E06930B32BE0256020690128D4
:1023600027D1002606EB860007EB800000F004FC76
:10237000761C382EF6D3234800F0FEFB214814309B
:1023800000F0FAFB1F48283000F0F6FB1D483C30F7
:1023900000F0F2FB1B48503000F0EEFB1948606083
:1023A0001430A06005E02068E96AC06A884200D85D
:1023B0002560E06A401CE0626864E86AA1698842BE
:1023C00000D9A06100EB800007EB8000291D00F020
:1023D000F9FB00F023FCE06900280CD02068E96AD2
:1023E000C06A884207D208494FF080500860BFF3A6
:1023F0004F8FBFF36F8FBDE8F08100001400002005
:10240000DC0100203C06002004ED00E038B500F0BF
:10241000E5FB104CA068C8B90F4800F0ADFB0E48B2
:10242000143000F0A9FB0C482060143060600A4BA7
:1024300000202833009003F1500210210A2000F000
:1024400001FEA06010B105A100F066FCBDE83840B7
:1024500000F0E4BB50000020A0060020546D725133
:102460000000000030B4026C0B46002A0BD0C1689B
:102470001144C1604468A14201D30168C16030BC0D
:102480001846FDF741BF30BC70472DE9F041856B20
:10249000174604460026026C82B1C7B1E068FDF71A
:1024A00033FFE168206C091AE1602268914202D290
:1024B0006168081AE060022F16D017E02068A8B9FA
:1024C000606801F0EFF80646002060600EE0A0684A
:1024D000FDF71AFF216CA0680844A060616888427B
:1024E00004D32068A06001E005B16D1E6D1CA563DA
:1024F0003046BDE8F08110B5044690F8590058B157
:1025000001280CD002280FD0502080F31188BFF38F
:102510004F8FBFF36F8FFEE7206B00F093FB2046D9
:10252000BDE8104000F08EBB10BD00000F4847F220
:102530003051420705D0C01D0C4A20F00700821A16
:10254000891A0B4A00230144C2E900030839103AF2
:1025500021F0070111604B600B600B1AC0E90013FA
:1025600093604FF000405360D0607047700E0020C1
:1025700078000020144E154CA6F29C474FF080586E
:10258000DFF84C9012E000BF00F028FBF068C5684F
:10259000281D00F0C7FA2069401E2061E068401E37
:1025A000E06000F03BFB2846FFF7A5FFE06800284D
:1025B000EAD138680128F9D9C9F80080BFF34F8FF4
:1025C000BFF36F8FF2E700007806002014000020B0
:1025D00004ED00E070B51D46049C51B1C4F8002024
:1025E000C4E90F010121204600F060FD84F84C5041
:1025F00070BD2460F4E72DE9F0470E46DDE909845B
:102600001746824691009946089DA522206BFDF74A
:102610008DFE6FF00301206B01EB8701084420F071
:102620000707780707D0502080F31188BFF34F8F3A
:10263000BFF36F8FFEE72218315C82F83410315CF3
:1026400011B1401C1028F6D3002684F84360382DC1
:1026500000D33725E562C4E91356201D00F097FA30
:1026600004F1180000F093FA2461C5F138006462A7
:10267000A061666584F858604A465146384600F0C5
:102680003BFA2060B8F1000F01D0C8F80040BDE867
:10269000F087000030B5114900E011460A68824217
:1026A000FBD34B685C18844203D1406818444860EF
:1026B000084643681C18944209D1084C103C246811
:1026C000A24209D052681A4442600A681268026045
:1026D000814200D0086030BD0460F9E77800002036
:1026E00070B5002441600B4D0061914206D8D11AAB
:1026F0008269914206D2011D686807E09A4203D2BE
:10270000994201D3012403E0011D286800F042FA38
:10271000204670BD5000002010B5044600F05EFA5F
:10272000A06B28B15FF0000400F078FA204610BDDD
:102730000124F9E730B589B0304D55E00498002800
:1027400006DADDE90601059A9047049800284BDB7C
:10275000069C606910B1201D00F0E4F902A800F0A9
:10276000B9F8024604980A283ED2DFE800F00505D1
:10277000053D263705053D260598A1690346014418
:102780002046FFF7ADFF00B3616A20468847E06945
:10279000012829D1002000900598A1690023421842
:1027A0001946204601F088F878B9502080F3118846
:1027B000BFF34F8FBFF36F8FFEE70598A06128B17D
:1027C000811813462046FFF78BFF0DE0502080F361
:1027D0001188BFF34F8FBFF36F8FFEE794F82C0083
:1027E00010B9204600F02EFA002204A9A86800F0D3
:1027F000AFFD0028A2D109B030BD0000500000207C
:102800002DE9FC410F46054600F068FB01A800F0E9
:1028100061F80446019818B100F0BCFFBDE8FC81E6
:10282000224EAFB170680068A8B30027291B3A4652
:10283000B06800F085FA00F0ADFF0028EED11C4929
:102840004FF080500860BFF34F8FBFF36F8FE5E705
:10285000A542EBD800F09EFF30682746C068C468E8
:10286000201D00F05FF9E069012810D1A0692B4616
:1028700041193A462046FFF733FF40B10020034696
:10288000014600902A46204601F016F820B1616A00
:1028900020468847C2E707E0502080F31188BFF345
:1028A0004F8FBFF36F8FFEE70127BFE75000002077
:1028B00004ED00E006484168096829B14168C9682B
:1028C000C9684968016370474FF0FF31FAE70000BB
:1028D0001400002070B5054600F07AFE064E04464E
:1028E0003069844203D200F009F8012000E00020A2
:1028F00028602046346170BD50000020F8B5194DA5
:102900001FE0C068C4680668201D00F00BF9616A0A
:1029100020468847E069012813D1A0693044B042BD
:1029200006D924616060211D286800F033F908E0B1
:1029300000200346014600903246204600F0BCFFCE
:1029400038B1286801680029DBD16968C5E9001041
:10295000F8BD502080F31188BFF34F8FBFF36F8F06
:10296000FEE700005000002008484068401C4FF07F
:10297000500080F3118804D0BFF34F8FBFF36F8FE7
:10298000FEE7BFF34F8FBFF36F8FFEE7800000209D
:10299000074C2068016841B1C0680021D0F80000F0
:1029A000FFF72EFFFFF7C6FEF3E701210020F7E750
:1029B000500000202DE9F041044600F00FF994F991
:1029C000455004F1240609E0606A48B1304600F041
:1029D000A9FE08B100F004FA6D1E6DB2002DF3DC03
:1029E0004FF0FF3684F8456000F018F900F0F6F873
:1029F00094F9445004F1100709E0206948B13846C1
:102A000000F090FE08B100F0EBF96D1E6DB2002DE4
:102A1000F3DC84F84460BDE8F04100F0FFB800004A
:102A20002DE9F0410546002700F058FA314E306894
:102A300008B9FFF77BFDF06805424BD1C5B30835F7
:102A400068070ED005F00700C0F1080005446807CC
:102A500007D0502080F31188BFF34F8FBFF36F8FE3
:102A6000FEE72DB37068854234D822481030014605
:102A70000C6801E020460C466168A94202D2216838
:102A80000029F7D131688C4224D0076821680160A1
:102A900060680837411B10290FD96019420708D018
:102AA000502080F31188BFF34F8FBFF36F8FFEE785
:102AB00010E041606560FFF7EDFD61687068401AE5
:102AC0007060B268904200D2B060F06801430020AC
:102AD000C4E9000100F05EFE780707D0502080F3C3
:102AE0001188BFF34F8FBFF36F8FFEE73846BDE805
:102AF000F08100006800002010B5031F4FF08074C3
:102B00001C601B1F21F001011960191F044B0B6091
:102B100014390A60091F6FF0020244380A6010BDC0
:102B200069290008D0E9013201699A60D0E90123DE
:102B30005A604A68824201D182684A60002202617A
:102B40000868401E0860086870470000034B036077
:102B500003F15C000860802010607047B807002017
:102B6000044B036003F15C0008604FF48070106058
:102B700070470000140A002000F108014FF0FF32F6
:102B8000C0E90112C16001610021016070470021AC
:102B90000161704730B50B685A1C02D000F1080281
:102BA00002E0026904E02246546825689D42FAD991
:102BB00053684B6099608A60516008610168491CE4
:102BC000016030BD42684A6093688B6093685960C9
:102BD000916008610168491C01607047502080F3D2
:102BE0001188BFF34F8FBFF36F8F0A494868401CAD
:102BF000486001280CD10848006810F0FF0F07D08A
:102C0000502080F31188BFF34F8FBFF36F8FFEE723
:102C1000704700008000002004ED00E0084948688B
:102C200028B1401E486001D180F3118870475020C0
:102C300080F31188BFF34F8FBFF36F8FFEE7000063
:102C40008000002070B5002827D0144DA0F10804A2
:102C50006168E868014207D1502080F31188BFF312
:102C60004F8FBFF36F8FFEE722683AB1502080F399
:102C70001188BFF34F8FBFF36F8FFEE78143616011
:102C800000F02CF960686968084468602046FFF726
:102C900001FDBDE8704000F07DBD70BD6800002002
:102CA0004FF0E02000210161816105494FF47A7203
:102CB0000968B1FBF2F1491E4161072101617047CA
:102CC0001000002010B5FDF7C5FA114910280ED3E9
:102CD00000F1E02090F8F0030A78904207D25020EB
:102CE00080F31188BFF34F8FBFF36F8FFEE7094862
:102CF0000068896800F4E060884207D9502080F3BA
:102D00001188BFF34F8FBFF36F8FFEE710BD000038
:102D1000800000200CED00E010B5084B002200BF41
:102D200053F832401CB1521C082AF9D310BD43F8A5
:102D3000321003EBC201486010BD00009C0100206E
:102D400070B515460E460446FFF748FF94F9441047
:102D50000020491C01D184F8440094F94510491C15
:102D600001D184F84500FFF759FFA06B28B92A4626
:102D7000314604F1240000F051F82046BDE87040CF
:102D8000FFF718BE10B5020014D00F48806B38B1A1
:102D9000502080F31188BFF34F8FBFF36F8FFEE792
:102DA00000F09CF800211046FFF79AFA00F0F2FCC0
:102DB000002807D105494FF080500860BFF34F8FBE
:102DC000BFF36F8F10BD00001400002004ED00E081
:102DD00002498A6A02604969416070471400002014
:102DE00001490120486270471400002010B50C46CC
:102DF00050B1094909681831FFF7CCFE2046BDE8FB
:102E000010400121FFF76CBA502080F31188BFF306
:102E10004F8FBFF36F8FFEE71400002070B514468C
:102E20000D4668B10A4909681831FFF7CBFE0CB1AD
:102E30004FF0FF3521462846BDE87040FFF750BAF5
:102E4000502080F31188BFF34F8FBFF36F8FFEE7E1
:102E50001400002030B587B00024039405AA04A90B
:102E600003A80494FFF772FEDDE903010094CDE9A5
:102E70000110002315A11748059A00F06FFB164DAD
:102E8000002868631FD000F0E7FC012809D0401C2F
:102E900019D1502080F31188BFF34F8FBFF36F8F8C
:102EA000FEE7502080F31188BFF34F8FBFF36F8F81
:102EB0004FF0FF3028630120E8616C6107B0BDE886
:102EC000304000F045B807B030BD000049444C45E3
:102ED0000000000075250008140000200248816BE6
:102EE000491C81637047000014000020164810B58B
:102EF000816B11B10121416210BD002141628169E4
:102F0000124A01E0B9B1491E01EB810352F82330A6
:102F1000002BF7D001EB810302EB830202F10804DE
:102F200053685B685360A34201D15B685360DA6801
:102F30000260816110BD502080F31188BFF34F8F74
:102F4000BFF36F8FFEE7000014000020DC010020BB
:102F50001CB537480168374A914207D1502080F3A9
:102F60001188BFF34F8FBFF36F8FFEE700683149C1
:102F7000491E884207D1502080F31188BFF34F8F3C
:102F8000BFF36F8FFEE72C4908780190FF2008708F
:102F900008788DF800009DF800009DF8002000F0F2
:102FA000F000904207D0502080F31188BFF34F8F7C
:102FB000BFF36F8FFEE79DF80000204B00F050003C
:102FC00018700720986005E09DF8002052008DF8E9
:102FD0000020401E9DF800201206F5D498600328BA
:102FE00007D0502080F31188BFF34F8FBFF36F8F4E
:102FF000FEE74FF440709860019808700C4820304C
:10300000016841F470010160016841F070410160A4
:10301000FFF746FE00205860FDF7E4F80848016815
:1030200041F040410160FDF7C9F800201CBD0000DF
:1030300000ED00E071C20F4100E400E080000020DC
:1030400034EF00E038B5049D18B153B1CAB181B175
:1030500020E0502080F31188BFF34F8FBFF36F8FB4
:10306000FEE7502080F31188BFF34F8FBFF36F8FBF
:10307000FEE7502080F31188BFF34F8FBFF36F8FAF
:10308000FEE739B1502080F31188BFF34F8FBFF3B3
:103090006F8FFEE750241C46012384F846302B46F0
:1030A0000094FFF797FA204638BD000070B50D4632
:1030B000040025D0FFF792FDD4E90F20216802FB20
:1030C000001161600021A1632168A1600A46D4E972
:1030D0000F01401E00FB0121E16021464FF0FF304F
:1030E00001F8440F487004F110008DB1FFF744FD62
:1030F00004F12400FFF740FDFFF790FD012070BDB3
:10310000502080F31188BFF34F8FBFF36F8FFEE71E
:1031100021690029F0D000F005FB0028ECD004491B
:103120004FF080500860BFF34F8FBFF36F8FE3E71E
:1031300004ED00E02DE9FF4782B01D468A464FF0BE
:103140000008040003D0BAF1000F08D011E05020AD
:1031500080F31188BFF34F8FBFF36F8FFEE7206CB2
:1031600038B1502080F31188BFF34F8FBFF36F8FBA
:10317000FEE7022D0AD1E06B012807D0502080F332
:103180001188BFF34F8FBFF36F8FFEE700F012FA85
:103190003F4F4FF000094FF0805648B9049838B1BE
:1031A000502080F31188BFF34F8FBFF36F8FFEE77E
:1031B000FFF714FDA06BE16B884207D3022D05D009
:1031C0000498D0B1B8F1000F1AD01EE02A4651463B
:1031D0002046FFF75AF9616A19B104F1240000F0A2
:1031E000A1FA20B13E60BFF34F8FBFF36F8FFFF79F
:1031F00015FD012006B0BDE8F087FFF70FFD22E0C6
:103200006846FFF7E5FD4FF00108FFF707FDFFF700
:1032100065FEFFF7E3FC94F94400401C01D184F8FB
:10322000449094F94500401C01D184F84590FFF783
:10323000F5FC04A9684600F027F930B12046FFF7F5
:10324000B9FB00F0A7FA0020D4E7FFF7C7FCA06B9A
:10325000E16B884213D1FFF7E1FC04F110000499FF
:10326000FFF7C4FD2046FFF7A5FB00F093FA002806
:103270009ED13E60BFF34F8FBFF36F8F98E7FFF78C
:10328000CDFC2046FFF796FB00F084FA90E70000A3
:1032900004ED00E02DE9F0471F4690468946040002
:1032A00003D0B9F1000F08D011E0502080F311884D
:1032B000BFF34F8FBFF36F8FFEE7206C38B1502004
:1032C00080F31188BFF34F8FBFF36F8FFEE7022F9C
:1032D0000AD1E06B012807D0502080F31188BFF39A
:1032E0004F8FBFF36F8FFEE7FFF7ECFC5020EFF33B
:1032F000118680F31188BFF34F8FBFF36F8FA06BE0
:10330000E16B884206D3022F04D0002086F3118897
:10331000BDE8F08794F945503A4649462046FFF704
:10332000B4F8681C04D06D1C84F845500120EDE70A
:10333000606A0028FAD004F1240000F0F3F90028B4
:10334000F4D0B8F1000FF1D00121C8F80010EDE77A
:103350002DE9F747002683B08A46040003D0BAF16E
:10336000000F08D011E0502080F31188BFF34F8F79
:10337000BFF36F8FFEE7206C38B1502080F31188C7
:10338000BFF34F8FBFF36F8FFEE700F013F9DFF845
:10339000F4804FF000094FF0805748B9059838B1D4
:1033A000502080F31188BFF34F8FBFF36F8FFEE77C
:1033B000FFF714FCA56BC5B151462046FFF752F844
:1033C0006D1EA563206950B104F1100000F0AAF948
:1033D00028B1C8F80070BFF34F8FBFF36F8FFFF7AE
:1033E0001DFC012006B0BDE8F087059808B11EB1AC
:1033F00006E0FFF713FC27E06846FFF7E9FC01262B
:10340000FFF70CFCFFF76AFDFFF7E8FB94F94400B7
:10341000401C01D184F8449094F94500401C01D12E
:1034200084F84590FFF7FAFB05A9684600F02CF8F0
:10343000002820460AD0FFF7BDFA00F0ABF920467D
:10344000FFF76AF90028B3D00020CBE7FFF764F953
:1034500090B104F124000599FFF7C8FC2046FFF75E
:10346000A9FA00F097F90028A2D1C8F80070BFF3BC
:103470004F8FBFF36F8F9BE72046FFF79BFA00F05B
:1034800089F995E704ED00E02DE9F0410C460500CF
:1034900011D0C4B1FFF7A2FB174B5A696E682068C0
:1034A000911B471C17D02F689B6A9F4219D09642E8
:1034B00017D8012410E0502080F31188BFF34F8FFC
:1034C000BFF36F8FFEE7502080F31188BFF34F8F5B
:1034D000BFF36F8FFEE70024FFF7A0FB2046BDE897
:1034E000F081884205D9401A20602846FFF770FC19
:1034F000F1E700202060DCE7140000202DE9FF5FE9
:103500008346DDE90E87994616468A469000FFF706
:1035100087FA05001CD05C20FFF782FA040014D063
:103520000020256384F85900CDE90240CDE90087E9
:103530004B46324651465846FFF75DF82046FEF7A7
:10354000FDFE012004B000F006B82846FFF77AFB24
:103550004FF0FF30F6E730BCBDE8C09FF0B585B056
:10356000DDE90B640A9DA6B1DCB15C2700972663F8
:10357000022684F85960002604AFCDE90246CDE961
:103580000057FFF738F82046FEF7D8FE049805B03C
:10359000F0BD502080F31188BFF34F8FBFF36F8FC2
:1035A000FEE7502080F31188BFF34F8FBFF36F8F7A
:1035B000FEE700000548C16919B1806B18B1002011
:1035C000704701207047022070470000140000205F
:1035D0000148406970470000140000202DE9F041C7
:1035E0002E4C0027A06B40B1206A401C2062606A0C
:1035F00000B101273846BDE8F0816669761C666136
:1036000013D16068006838B1502080F31188BFF38F
:103610004F8FBFF36F8FFEE76068A1686160A060A5
:10362000A06A401CA062FFF745F9206BDFF87080AC
:10363000864209D36068006880B16068C068C56868
:10364000686886420DD220632068C06A00EB800162
:1036500058F821000128CAD90127C8E74FF0FF30E8
:10366000F1E7281DFFF75EFAA86A18B105F1180006
:10367000FFF758FAE86AA169884200D9A06100EB17
:10368000800108EB8100291DFFF79CFAE86A216898
:10369000C96A8842CED30127CCE70000140000207D
:1036A000DC01002070B504004FF0000133D01B4D49
:1036B0002868844207D0502080F31188BFF34F8FD1
:1036C000BFF36F8FFEE7206D38B1401E2065E36CBD
:1036D000E26A9A421FD040B11DE0502080F3118869
:1036E000BFF34F8FBFF36F8FFEE7201DFFF71AFA6E
:1036F000E06CE062C0F13800A061E06AA96988422C
:1037000000D9A861064900EB800001EB8000211D73
:10371000FFF758FA0121084670BD00001400002090
:10372000DC01002070B5C068C46854B104F1180011
:103730000646FFF7F7F9144DA86B50B13146134810
:1037400015E0502080F31188BFF34F8FBFF36F8FC8
:10375000FEE7201DFFF7E6F9E06AA969884200D973
:10376000A8610B4900EB800001EB8000211DFFF7F1
:1037700029FAE06A2968C96A884202D90120686288
:1037800070BD002070BD0000140000206406002001
:10379000DC0100202DE9F0472C4D00242746A86BC2
:1037A00038B1FFF71BFAA86B401EA863A86B40B1A5
:1037B00046E0502080F31188BFF34F8FBFF36F8F27
:1037C000FEE72969224E0120D1B3A6F59169804612
:1037D0003068E0B1F068C46804F11800FFF7A2F99E
:1037E000201DFFF79FF9E06AA969884200D9A86106
:1037F00000EB800109EB8100211DFFF7E3F9E06A8E
:103800002968C96A8842E3D3C5F82480E0E70CB18F
:10381000FFF750F82C6A4CB14FEA0806FFF7DEFEBE
:1038200000B16E62641EF9D100202862686A38B166
:103830000849012738070860BFF34F8FBFF36F8F28
:10384000FFF7ECF93846BDE8F087000014000020CF
:103850006406002004ED00E010B586B0FEF7D6FD4A
:10386000114CA068B8B100200390049005AA04A9E7
:1038700003A8FFF775F9DDE9032102208DE80700B1
:1038800000230AA10B48059AFFF768FEE06010B11B
:1038900006B0012010BD502080F31188BFF34F8F78
:1038A000BFF36F8FFEE7000050000020546D7220C0
:1038B00053766300912900082DE9FF411E46134607
:1038C00002000A9D4FF0000016D0144CA768002F8C
:1038D0000FD0CDE900130292062917DAFFF76AFE2E
:1038E00002284FF000030FD000226946A068FFF7BE
:1038F00021FC04B0BDE8F081502080F31188BFF3B3
:103900004F8FBFF36F8FFEE72A46EEE70023324664
:1039100069463846FFF7BEFCEBE700005000002088
:103920008C390008000000000000000000000000CA
:1039300000000000800000001800000000000000EF
:10394000000000000000000000000000010203046D
:1039500006070809A0860100400D0300801A060032
:1039600000350C0040420F0080841E0000093D001D
:1039700000127A000024F40000366E010048E801CD
:10398000006CDC0200000000010203046465666153
:10399000756C745461736B00B83900080000002026
:1039A0008C0000004E210008443A00088C000020E2
:1039B000148700005E2100080000000010000000D5
:1039C000010000000000000000093D0000000000B0
:1039D00000000000000000000000000000000000E7
:1039E00000000000000000000000000000000000D7
:1039F00000000000000000000000000000000000C7
:103A000000000000000000000000000000000000B6
:103A100000000000000000000000000000000000A6
:103A20000000000000000000000000000000000096
:103A3000000000000000000000000000AAAAAAAADE
:043A40000000000082
:040000050800018965
:00000001FF
