:020000040800F2
:10000000204D00207D020008070F00084F0E000859
:10001000050F000839030008B315000800000000B0
:100020000000000000000000000000009D0100082A
:100030003B03000800000000F9010008AD0F0008B4
:10004000970200089702000897020008970200082C
:10005000970200089702000897020008970200081C
:10006000970200089702000897020008970200080C
:1000700097020008970200089702000897020008FC
:1000800097020008970200089702000897020008EC
:1000900097020008970200089702000897020008DC
:1000A000970200087D1000089702000897020008D8
:1000B00097020008970200089702000897020008BC
:1000C00097020008970200089702000897020008AC
:1000D00097020008970200086112000897020008C2
:1000E000970200089702000897020008970200088C
:1000F000970200089702000897020008970200087C
:10010000970200089702000897020008970200086B
:10011000970200089702000897020008970200085B
:10012000970200089702000897020008970200084B
:10013000970200089702000897020008970200083B
:10014000970200089702000897020008970200082B
:10015000970200089702000897020008970200081B
:10016000970200089702000897020008970200080B
:10017000970200089702000897020008000000009C
:100180009702000897020008DFF80CD000F0C2F8D0
:100190000048004771190008204D00202C4B1968B9
:1001A000086800F05AB880F30988BFF36F8F4FF0EA
:1001B000000080F3118870470000000008480068C4
:1001C000006880F308884FF0000080F3148862B65E
:1001D00061B6BFF34F8FBFF36F8F00DF00BF00BF6B
:1001E00008ED00E0DFF80C00016841F470010160E7
:1001F000704700BF88ED00E0EFF30980BFF36F8F19
:10020000134B1A681EF0100F08BF20ED108A20E96A
:10021000F04F106009B44FF0500080F31188BFF325
:100220004F8FBFF36F8F02F0B7FB4FF0000080F3EA
:10023000118809BC1968086800F014B81EF0100F86
:1002400008BF00F014B880F30988BFF36F8F7047C0
:10025000A8000020EFF30580704730C8B0E8C04F19
:10026000FFF7A1BF30C8B0E8C04FFFF7E7BFB0EC61
:10027000088AB0EC08CAFFF7E6BF000006488047CE
:1002800006480047FEE7FEE7FEE7FEE7FEE7FEE77B
:10029000FEE7FEE7FEE7FEE73910000889010008E7
:1002A00040EA01039B0703D009E008C9121F08C0F8
:1002B000042AFAD203E011F8013B00F8013B521E78
:1002C000F9D27047D2B201E000F8012B491EFBD2EF
:1002D00070470022F6E710B513460A460446194651
:1002E000FFF7F0FF204610BD30B50B460146002059
:1002F0002022012409E021FA02F59D4205D303FAE8
:1003000002F5491B04FA02F52844151EA2F1010268
:10031000F1DC30BD064C074D06E0E06840F001031B
:1003200094E8070098471034AC42F6D3FFF730FF4B
:100330004434000864340008FEE77047024841690D
:1003400021F4807141617047001000480248416902
:1003500041F4807141617047001000480148806895
:1003600070470000980000200248816842681144EC
:10037000816070479800002010B50024032000F031
:100380008DF8002000F008F808B1012401E000F029
:100390003DF8204610BD000000B5014687B00022A0
:1003A000192000F05BF8192000F04AF81348016E9C
:1003B00041F400610166006E05A900F4006006903A
:1003C000684600F049F900F067F90D490D4AB0FBA5
:1003D000F1F10D48491E0260416040F2E732002110
:1003E000C0E90321816000F02EFC10B1012007B0AC
:1003F00000BD054800F044FCF9E700000010024091
:1004000040420F00002C0140700100200B4882B0D8
:10041000016E41F001010166016E01F001010091E0
:10042000816D41F080518165806D002200F0805027
:1004300000900F21901E02B000F010B80010024092
:10044000002809DB00F01F020121914040098000D3
:1004500000F1E020C0F8001170470000F0B40E4B2E
:100460001B680C46C3F30223C3F10705042D00D912
:100470000425191D072901D2002300E0DB1E0126F7
:1004800006FA05F1491E214099409E40761E16400D
:100490003143F0BC01F0A2B80CED00E0064900F0D9
:1004A000070208684FF6FF03184040EA0220034A9B
:1004B00010430860704700000CED00E00000FA05F2
:1004C0001649B0F5007F0868C0F3412009D0022822
:1004D00005D0086820F4C06040F480600860002007
:1004E00070470128FBD0086820F4C06040F4007019
:1004F00008600B483222006850430A4AB0FBF2F011
:10050000401C00E0401E4A69520501D50028F9D17F
:1005100048694005E3D503207047000000700040A3
:10052000A400002040420F000248006800F4C060B0
:1005300070470000007000402DE9F0470F460500AD
:1005400058D0404E306800F00700B84209D23068F9
:1005500020F0070038433060306800F00700B842F0
:1005600048D12878384CC0072CD06868032811D0AF
:10057000022812D0216898B1490500293ADAA16809
:1005800021F003010143A160FFF7E8FE804641F23C
:10059000883910E021688901EFE721688903ECE7D9
:1005A0008907EAE7FFF7DAFEA0EB0801494502D91F
:1005B0000320BDE8F087A068696800F00C00B0EB8C
:1005C000810FEFD12878800705D5A068A96820F0B1
:1005D000F0000843A060306800F00700B8420BD973
:1005E000306820F0070038433060306800F00700C2
:1005F000B84201D00120DCE72878400705D5A06883
:10060000E96820F4E0600843A0602878000706D578
:10061000A068296920F4605040EAC100A06000F0A1
:100620004DF8A168094AC1F30311515C01F01F01A3
:10063000C8400749086007480068BDE8F047FFF771
:10064000ABBE00000020024000100240F033000862
:10065000A4000020980000200F2202600C4A93683A
:1006600003F003034360936803F0F003836093682F
:1006700003F4E063C36092684FF4E06303EAD202DC
:1006800002610448006800F007000860704700003D
:1006900000100240002002400548064900688968B1
:1006A000054AC1F3C221515C01F01F01C8407047E7
:1006B000A4000020001002403034000870B5254925
:1006C000002318468A68CC6812F00C0204F0030676
:1006D000214C4FEA640509D00C2A05D0042A32D0F7
:1006E000082A00D1284670BD012E10D10B681B07C7
:1006F00004D4D1F89430C3F3032302E00B68C3F3AE
:100700000313164E56F82330DAB10C2AEBD1C86821
:1007100000F00300022818D0032818D01846CA6831
:10072000CB68C2F30212C3F306234343521CB3FB4C
:10073000F2F2C868C0F34160401C4000B2FBF0F028
:1007400070BD184670BD204670BD2046E7E72846BC
:10075000E5E70000001002400024F4000034000827
:100760002DE9F84304006ED0FD4DA86800F00C069A
:10077000E86800F003072078C00663D576B10C2E38
:1007800001D1012F0AD0A0690028286878D040F054
:1007900001002860FFF7E2FD80465BE028688007E3
:1007A00002D5A0690028DED0216A2868000703D599
:1007B000286800F0F00004E0D5F89400F02202EA86
:1007C0001010814216D9084600F09EFB00283AD14D
:1007D000286840F0080028602868216A20F0F000AE
:1007E000084328606868E16920F47F4040EA0120FE
:1007F000686015E0286840F0080028602868216AD1
:1008000020F0F000084328606868E16920F47F4028
:1008100040EA01206860206A00F076FB0028D6D10B
:10082000FFF74CFFA968CF4AC1F30311515C01F0F7
:100830001F01C840CC490860CC480068FFF7ACFDF8
:1008400000287DD12DE0C9E0FFF788FDA0EB08006E
:10085000022876D828688007F6D5286840F0080076
:1008600028602868216A20F0F00008432860686842
:10087000E16920F47F4040EA0120686011E0FFE771
:1008800020F001002860FFF769FD804606E000BF08
:10089000FFF764FDA0EB08000228DAD8286880077B
:1008A000F6D42078C00740D0082E18D00C2E01D1E5
:1008B000032F14D06068B0F5803F17D0B0F5A02F9B
:1008C000286817D020F480302860286820F4802021
:1008D00028606068E0B1FFF741FD804614E02868B9
:1008E000800322D56068002878D01EE0286840F494
:1008F0008030EDE740F480202860F7E7FFF72EFD19
:10090000A0EB08006428A4D828688003F6D50CE082
:10091000FFF724FD804605E0FFF720FDA0EB08006F
:10092000642896D828688003F6D4207880073BD5C1
:10093000042E11D00C2E01D1022F0DD0E06801E061
:100940003EE19FE0002828681ED040F480702860B7
:10095000FFF704FD07460CE0286840050CD5E06869
:100960000028C1D008E000BFFFF7F8FCC01B022838
:1009700093D828684005F7D56868217C20F0F850A6
:1009800040EA016068600FE020F480702860FFF7A3
:10099000E5FC074605E000BFFFF7E0FCC01B0228AE
:1009A00070D828684005F7D42078000729D56069F9
:1009B0000028D5F8940012D040F00100C5F894004A
:1009C000FFF7CCFC074604E0FFF7C8FCC01B022879
:1009D00058D8D5F894008007F6D512E029E120F028
:1009E0000100C5F89400FFF7B9FC074605E000BF19
:1009F000FFF7B4FCC01B022844D8D5F89400800748
:100A0000F6D42078400768D5A86D0027C00008D428
:100A1000A86D40F08050A865A86D012700F08050B7
:100A2000009053480168C90512D40168814641F419
:100A300080710160FFF792FC804605E0FFF78EFCB5
:100A4000A0EB080002281DD8D9F80000C005F5D594
:100A5000A068012817D00528D5F8900018D020F0FC
:100A60000100C5F89000D5F8900020F0040000BF08
:100A7000C5F89000A06841F28839D0B1FFF76EFC4C
:100A8000804611E06BE0D5F8900040F00100EFE700
:100A900040F00400C5F89000F5E700BFFFF75EFCEA
:100AA000A0EB080149455AD8D5F890008007F5D544
:100AB0000EE0FFF753FC804606E000BFFFF74EFC58
:100AC000A0EB080149457AD8D5F890008007F5D405
:100AD0001FB1A86D20F08050A865A06AF0B30C2E5D
:100AE00075D00228286820F08070286004D028681B
:100AF00010F0205F51D054E0FFF730FC064604E0D0
:100B0000FFF72CFC801B022859D828688001F7D4F5
:100B1000D4E90B016FF00F0202EB01110843A18F22
:100B20005204490802EB4151626B41EA0221084339
:100B300094F840104FF07E42490802EB41610843AF
:100B4000A16B090940EA4140E9680A4A114008439B
:100B5000E860286840F0807028600DE06BE02EE0CF
:100B600000100240F0330008A4000020980000208C
:100B7000007000408C809DF9E86840F08070E8606B
:100B8000FFF7ECFB044604E0FFF7E8FB001B02283C
:100B900015D828688001F7D54DE0E86820F00300FB
:100BA000E860E86825490840E860FFF7D7FB04469D
:100BB00009E000BFFFF7D2FB001B022803D9032086
:100BC000BDE8F88303E028688001F3D433E001280E
:100BD000F6D0E868E26A00F00301914229D1216B66
:100BE00000F0700209011039914222D1626B00F4C9
:100BF000FE41B1EB022F1CD1A26B00F40031072A99
:100C000001D0012200E00022914212D1A18F00F414
:100C1000C00249084905A1F50011914209D194F893
:100C2000401000F0C06049084906A1F100718142FE
:100C300001D00120C4E70020C2E70000FFFFEEFE64
:100C400070477047704710B5040003D094F83D001A
:100C500010B107E0012010BD002084F83C002046C0
:100C600000F00CF8022084F83D00211D206800F0FF
:100C70000BFA012084F83D00002010BD70470000F1
:100C80000168CA6842F00102CA6001688868064AC1
:100C90001040062806D0B0F5803F03D0086840F029
:100CA000010008600020704707000100704770B520
:100CB0000446006801694FF00005C943890715D44F
:100CC000C168C943890711D4E91E01610120207759
:100CD000206880698007204602D0FFF7E7FF04E024
:100CE00000F0A7F8204600F0A5F8257720680169F4
:100CF000C943490717D4C168C943490713D46FF0E2
:100D000004010161022020772068806910F4407F8F
:100D1000204602D0FFF7CAFF04E000F08AF8204620
:100D200000F088F8257720680169C943090716D4BF
:100D3000C168C943090712D46FF00801016104209A
:100D400020772068C0698007204602D0FFF7AEFFF9
:100D500004E000F06EF8204600F06CF8257720687B
:100D60000169C943C90617D4C168C943C90613D468
:100D70006FF010010161082020772068C06910F42D
:100D8000407F204602D0FFF791FF04E000F051F8C9
:100D9000204600F04FF8257720680169C943C9074C
:100DA00008D1C168C943C90704D1891E0161204621
:100DB00000F042F820680169C943090609D4C168F6
:100DC000C943090605D46FF0800101612046FFF791
:100DD00038FF20680169C943C90509D4C168C943FE
:100DE000090605D46FF4807101612046FFF728FFE2
:100DF00020680169C943490609D4C168C943490645
:100E000005D46FF040010161204600F01FF8206812
:100E10000169C94389060BD4C168C943890607D44F
:100E20006FF0200101612046BDE87040FFF70ABF66
:100E300070BD70477047000000680349884201D1C7
:100E4000FFF792BA70470000002C01407047FEE7A0
:100E50001D48C16C41F01201C1641C486FF03001A3
:100E60000160016841F01001016018480830016814
:100E700021F030010160016841F030010160001F84
:100E8000016821F00401016010480C30016821F074
:100E9000300101600E486FF440310160016841F497
:100EA00080310160816821F440318160816841F4C2
:100EB00040318160416821F480714160C16821F452
:100EC0004031C1607047000000100240000400483B
:100ED0000010004800B589B000F06AFE24220649DF
:100EE0006846FFF7DDF96A460021044800F09CFEE1
:100EF0000349086009B000BDCC330008A50F000805
:100F000038000020FEE77047F8B51C4D0646002467
:100F1000A86DC00002D5FFF707FB0DE0A86D40F0FB
:100F20008050A865A86D00F080500090FFF7FCFA93
:100F3000A96D21F08051A965B0F5007F04D0802E05
:100F400007D94FF003040AE0802E08D9A02E01D85B
:100F500004E001D1022402E0702E00D101240848EF
:100F6000016821F0070121430160006800F00700DB
:100F7000A04201D00120F8BD0020F8BD00100240C1
:100F8000002002400248016821F00401016070471E
:100F9000140400480248016841F0040101607047F0
:100FA00014040048012000F0E9FDFBE710B55020D3
:100FB00080F31188BFF34F8FBFF36F8F02F064F897
:100FC00018B104494FF080500860002080F3118868
:100FD00010BD000004ED00E000B597B04421684664
:100FE000FFF777F9142111A8FFF773F90220C10167
:100FF00003911021009004910A900121CDE90B0189
:101000000A210D910721CDE90E1010906846FFF7D7
:10101000A7FB0F2011900320129000201390149032
:101020001590042111A8FFF787FA4FF40070FFF71D
:1010300047FA17B000BD00000D48016841F4700187
:1010400001600C48016841F00101016000218160EC
:101050000268094B1A4002608214C260026822F4DE
:101060008022026081610249C003803908607047B4
:1010700088ED00E000100240FFFFF6EA0148FFF7AC
:1010800016BE0000700100202DE9F0470268264BD3
:10109000264D274E274F284C4FF0804A984209D0C2
:1010A000504507D0A84205D0B04203D0B84201D085
:1010B000A04204D122F0700C4A6842EA0C02DFF828
:1010C0007CC0DFF87C80DFF87C9098420FD05045E0
:1010D0000DD0A8420BD0B04209D0B84207D0A042F0
:1010E00005D0604503D0404501D0484503D122F4E6
:1010F0004075CA682A434D6922F080022A43026083
:101100008A68C2620A688262984207D0A04205D00B
:10111000604503D0404501D0484501D109690163CC
:1011200001214161BDE8F087002C0140000400402E
:1011300000080040000C0040003401400040014025
:1011400000440140004801400A49CA6C42F00102D3
:10115000CA64016821F00F010160016841F00A01D1
:101160000160016A21F011010162016A41F011017F
:1011700001627047001002400F4A936D43F0010373
:10118000936584220260026A22F01102026240F238
:101190001F328262C16246F668018161016A41F0D4
:1011A00011010162416941F001014161016841F0B1
:1011B0000101016070470000001002401448C16C3A
:1011C00041F00801C1641348016821F470510160C5
:1011D000016841F4205101600E482030016841F05F
:1011E000EE6101600B480830016841F47051016004
:1011F000001D016821F470510160016841F4A051A3
:1012000001600448001D016821F060010160704721
:1012100000100240000C00480E4800B550F8581F5E
:1012200041F400310160016B21F00C010163016B9D
:1012300041F004010163FFF7C1FF074800F04CF9DA
:101240000649002081F80004044940202239C1F8F1
:10125000000100BD001002400044004026E000E014
:101260002DE9F0418C4888B00168890671D58A481B
:1012700008300088894EC1B2741EDFF81C822078C5
:101280000025A8F11C083154782901D0582914D11F
:10129000022812D23E220A20CDE900020A460D237E
:1012A0007FA105A800F086F90246257005A94046F1
:1012B00000F056F908B0BDE8F08101277F290CD075
:1012C0000D2922D0022822D00D2920D0404600F03E
:1012D00061F92078401C2070ECE70028EAD05B21FF
:1012E0004B20CDE90310442000901B22CDE9017270
:1012F0000B466EA105A800F05DF9024605A940461F
:1013000000F02EF92078401EE5E7022805D00322E0
:101310006AA1404600F024F9A9E0032267A14046F3
:1013200000F01EF925703078654C622841D011DC40
:101330004E2848D006DC42283BD0432829D04C28F0
:1013400041D12CE0502812D0522816D053283AD13F
:101350001BE08EE070280AD004DC632819D06C28CA
:1013600031D11CE0722808D073282CD10DE0E07F29
:1013700048BB607F38BB277725E0207F18B394F8FF
:10138000211001224E48491E10E04D4801F0E4F8BA
:1013900019E0E07FB8B9607FA8B9257713E0207F16
:1013A00088B194F8211001224548491C01F0B0F899
:1013B00009E094F8203094F82120012140481C34A1
:1013C00000F054FB257070783E4C622846D011DC4A
:1013D0004E2881D007DC422840D0432836D04C2804
:1013E0007FF47AAF0DE050281FD0522825D0532823
:1013F000F6D116E0702818D00FDC632826D06C28B0
:10140000EED1207F0028E4D094F8211001222D484D
:1014100011F1010101F07CF84CE772280DD073281E
:10142000FAD1284801F098F844E7E07F0028F3D18A
:10143000607F0028F0D127773CE7207F0028EBD0A1
:1014400094F8211001221F48491EE3E7E07F00289D
:10145000E2D1607F0028DFD125772BE794F8203098
:1014600094F82120022117481C3400F0FFFA25705F
:1014700020E701680906CFD40168090700D5FEE717
:101480000168C90700D0FEE70168C90700D0FEE780
:1014900000684007C0D5FEE71C44004095000020CE
:1014A000256325632563256300000000256325630C
:1014B0002563256325632563256300000D0A3E002F
:1014C0002001002048010020642148430721B0FB8F
:1014D000F1F0401EFDD17047016821F0010101606B
:1014E000016821F010210160016821F400410160D0
:1014F000416821F44051416042F28D01C1600168B0
:1015000041F00C010160154988421BD1016841F08E
:1015100020010160016821F040010160016821F0B3
:1015200010010160016821F080010160016821F46F
:1015300080710160016821F040010160016821F0C3
:1015400001010160016841F001010160C169890286
:10155000FCD5C1694902FCD5704700000044004039
:1015600070B50D46034600244FF4967608E0D8691E
:101570000006FCD5285D18853046FFF7A5FF641CE2
:101580009442F4D3D8694006FCD5D86920F04000D5
:10159000D86170BD00B5024601854FF49670FFF723
:1015A00093FFD0694006FCD5D06920F04000D0619F
:1015B00000BDFEE70FB4084B10B504A902AA0398BA
:1015C00000F02CF8044602A9002000F0CBF92046D8
:1015D00010BC5DF814FB0000651900080907090E2E
:1015E000002804DB00F1E02080F80014704700F0D0
:1015F0000F0000F1E02080F8141D704702E008C8D9
:10160000121F08C1002AFAD170477047002001E07C
:1016100001C1121F002AFBD1704700002DE9FF4FC6
:101620008BB088460546002606E025280BD0DDE96C
:101630000D1290476D1C761C28780028F5D10FB04C
:10164000304600F063B90024A146A2460122AE490B
:1016500000E0044315F8013F203B02FA03F0084282
:10166000F7D128782A2810D06FF02F022878A0F11F
:101670003001092915D809EB890102EB410144F039
:10168000020400EB01096D1CF0E758F8041B5FEA47
:10169000010903D544F40054C9F1000944F00204DF
:1016A0006D1C28782E2817D115F8010F44F004047A
:1016B0002A280ED06FF02F022878A0F130010929D6
:1016C0000AD80AEB8A0102EB410100EB010A6D1C0A
:1016D000F2E758F804AB6D1C28786C280FD006DCB4
:1016E0004C2817D068280DD06A2814D104E074283B
:1016F00010D07A280FD10DE044F400140AE044F42D
:10170000801401E044F440146978814202D104F568
:1017100080146D1C6D1C2878692865D006DC0028B3
:101720008DD0632827D0642806D15DE06E2808D0CC
:1017300073282AD0752877D0DDE90D129047761CE2
:10174000E0E0C4F30250022809D003280DD0D8F8F5
:10175000001004280DD00E6008F10408D2E0D8F87B
:101760000010F217C1E90062F6E7D8F800100E8009
:10177000F2E70E70F0E718F8041B8DF80010002057
:101780008DF80100EB46012003E058F804BB4FF050
:10179000FF3061074FF0000701D40AE07F1C574576
:1017A0000DDA8742FADB1BF807100029F6D106E0B4
:1017B0007F1C8742FCDB1BF807100029F8D1DDE90C
:1017C0000D23A9EB07008146214600F0B4F8304410
:1017D000C61904E0DDE90D121BF8010B90477F1ECE
:1017E000F8D22146484688E058F8040BC4F3025169
:1017F0004FF00A0B032900D100B2042900D140B2F6
:10180000002802DA40422D2102E0210505D52B21D6
:101810008DF82410012104E006E0E10710D020211A
:10182000F6E708AF089113E058F8040BC4F302512F
:101830004FF00A0B032900D180B2042900D1C0B2B5
:101840000021EEE75946FEF74FFD303107F8011D44
:101850000028F7D1ADEB070000F1200B600702D59F
:1018600024F4803401E04FF0010ADA4502DDAAEBEE
:101870000B0000E00020824600EB0B0108980144B9
:10188000A9EB01000A90E00306D4DDE90D2321460F
:101890000A9800F050F806444FF0000908E009A942
:1018A00011F80900DDE90D12904709F10109761CD4
:1018B00008998945F3DBE0030CD5DDE90D232146CA
:1018C0000A9800F038F8064404E0DDE90D123020F3
:1018D0009047761CBAF10001AAF1010AF5DC05E097
:1018E000DDE90D1217F8010B9047761CBBF10001E2
:1018F000ABF1010BF4DC0A982146DDE90D2300F081
:1019000008F806446D1C97E60928010030BCBDE8C4
:10191000C08F2DE9F041044600251E461746880475
:1019200004D405E039462020B0476D1C641EF9D56B
:101930002846BDE8F0812DE9F041044600251E4609
:101940009046C80301D5302700E02027880404D53D
:1019500005E041463846B0476D1C641EF9D528465F
:10196000BDE8F0810A68531C0B60107070470000DE
:101970001CB5FEF701FDFFF76BFAFFF74DFC4FF0CA
:101980009040FFF7E1FB40F2CF714FF08040FFF74E
:10199000F3FB1F491F4800F0DBFD1D491D481831AE
:1019A000283000F0D5FD00231A460121194800F027
:1019B0005DF8184800231A460221283000F056F836
:1019C000FFF70AFB1B4C1B2213A12046FFF7C8FDA3
:1019D0001C2219A12046FFF7C3FD0D4C0125083C30
:1019E0000C4B20686422CDE900501BA11C4801F07B
:1019F000DBFA6068074BCDE900502833642219A157
:101A0000174801F0D1FAFFF765FA00F0EDF8FEE7AC
:101A1000080000202001002057656C636F6D652071
:101A2000746F20536572766F20436F6E74726F6CA3
:101A3000210D0A00004400403D3D3D3D3D3D3D3D02
:101A40003D3D3D3D3D3D3D3D3D3D3D3D3D3D3D3DC6
:101A50003D0D0A3E000000004D6F746F72310000B2
:101A6000AD1A00084D6F746F7232000010B501247A
:101A700004770024447780F8224080F8234080F8DF
:101A800024408477C47780F8203080F821200170CA
:101A900000EB82004FF08042012904D0022901D1DD
:101AA0004068906310BD4068506310BD04464FF419
:101AB0007A760125607FE0B9207FD0B9E07FC0B998
:101AC00094F820002A4951F82000A17F405C00F0E2
:101AD000E001402923D003DC99B3202904D10FE091
:101AE000802920D0A0292FD002206077A07F401C21
:101AF000A077204600F047FD642000F099FED9E76A
:101B000000F01F010022204600F002FD0028EDDB5E
:101B100018494843B0FBF6F000F08AFEE6E700F013
:101B20001F001549F5E794F8221001290AD000F0AA
:101B30001F0084F8230084F82250A07F84F824003A
:101B4000D4E713E06577D1E794F8230040B194F827
:101B50002300401E84F8230094F82400A077C5E7F2
:101B6000002084F8220084F82300BFE7E577BDE772
:101B70007C000020F0490200A086010010B5EFF3C0
:101B8000058149B9EFF3108131B908490968022983
:101B900005D1EFF3118111B16FF0050403E00024CA
:101BA00008B100F045FE204610BD0000F8000020FE
:101BB000EFF3058058B9EFF3108040B90949086880
:101BC000022801D030B109E0EFF3118030B16FF09D
:101BD0000500704701200860002070474FF0FF307B
:101BE00070470000F800002010B5EFF3058060B9E1
:101BF000EFF3108048B90B490868022802D0012889
:101C000006D00BE0EFF3118040B16FF0050010BD7E
:101C10000220086000F074FE002010BD4FF0FF307D
:101C200010BD0000F8000020F0B585B04FEA0103B8
:101C30004FF00004EFF305810394A1BBEFF3108193
:101C400089BB21490968022902D1EFF3118151BBF7
:101C500048B3802618218DF8104004AD42B31768B0
:101C600007B13D4697691FB139467F1E382F02D212
:101C70001779FF0702D0002005B0F0BD576907B102
:101C8000BE08D2F808C0BCF1000F0DD0D4685C2C9F
:101C900018D312693AB137B18DE806103246294699
:101CA00001F0B2F903900DE0D7685FB912694AB943
:101CB00003AACDE90012B2B2294601F075F9012854
:101CC00000D003940398D7E7F80000202DE9F041F5
:101CD000134C0F46054666692068001D00F078FC2D
:101CE000681C07D137B12168BDE8F0410D48091DD6
:101CF00000F0BEBC20683544B5424560216805D27D
:101D0000A068BDE8F041091D00F09ABC6068091D9B
:101D100000F096FC206B854200D22563BDE8F0817F
:101D2000A8000020A00600202DE9F041054600F0A3
:101D3000ABFC2D4C2069401C206120682B4F10B15A
:101D4000E06930B32BE025602069012827D1002607
:101D500006EB860007EB800000F064FC761C382E52
:101D6000F6D3234800F05EFC2148143000F05AFC02
:101D70001F48283000F056FC1D483C3000F052FC53
:101D80001B48503000F04EFC194860601430A060D1
:101D900005E02068E96AC06A884200D82560E06AE8
:101DA000401CE0626864E86AA169884200D9A061C9
:101DB00000EB800007EB8000291D00F059FC00F0CB
:101DC00083FCE06900280CD02068E96AC06A884278
:101DD00007D208494FF080500860BFF34F8FBFF320
:101DE0006F8FBDE8F0810000A8000020F001002006
:101DF0005006002004ED00E038B500F045FC104C22
:101E0000A068C8B90F4800F00DFC0E48143000F06F
:101E100009FC0C482060143060600A4B0020283315
:101E2000009003F1500210210A2000F061FEA06032
:101E300010B105A100F0C6FCBDE8384000F044BC7C
:101E4000E4000020B4060020546D72510000000030
:101E500030B4026C0B46002A0BD0C1681144C1603B
:101E60004468A14201D30168C16030BC1846FEF746
:101E700017BA30BC70472DE9F041856B1746044610
:101E80000026026C82B1C7B1E068FEF709FAE1688A
:101E9000206C091AE1602268914202D26168081A36
:101EA000E060022F16D017E02068A8B9606801F042
:101EB0004FF90646002060600EE0A068FEF7F0F9DA
:101EC000216CA0680844A0606168884204D320683F
:101ED000A06001E005B16D1E6D1CA5633046BDE834
:101EE000F08110B5044690F8590058B101280CD083
:101EF00002280FD0502080F31188BFF34F8FBFF31B
:101F00006F8FFEE7206B00F0F3FB2046BDE810402A
:101F100000F0EEBB10BD00000F4843F698214207C9
:101F200005D0C01D0C4A20F00700821A891A0B4AFE
:101F300000230144C2E900030839103A21F00701E7
:101F400011604B600B600B1AC0E9001393604FF0F7
:101F500000405360D0607047840E00200C010020C8
:101F6000144E154CA6F29C474FF08058DFF84C9069
:101F700012E000BF00F088FBF068C568281D00F083
:101F800027FB2069401E2061E068401EE06000F0F1
:101F90009BFB2846FFF7A5FFE0680028EAD13868D8
:101FA0000128F9D9C9F80080BFF34F8FBFF36F8FB5
:101FB000F2E700008C060020A800002004ED00E0FD
:101FC00070B51D46049C51B1C4F80020C4E90F014E
:101FD0000121204600F0C0FD84F84C5070BD246003
:101FE000F4E72DE9F0470E46DDE9098417468246FD
:101FF00091009946089DA522206BFEF763F96FF0CA
:102000000301206B01EB8701084420F007077807E4
:1020100007D0502080F31188BFF34F8FBFF36F8F2D
:10202000FEE72218315C82F83410315C11B1401C9B
:102030001028F6D3002684F84360382D00D33725C6
:10204000E562C4E91356201D00F0F7FA04F1180008
:1020500000F0F3FA2461C5F138006462A06166659E
:1020600084F858604A465146384600F03BFA2060F2
:10207000B8F1000F01D0C8F80040BDE8F0870000BB
:1020800030B5114900E011460A688242FBD34B6823
:102090005C18844203D1406818444860084643688D
:1020A0001C18944209D1084C103C2468A24209D063
:1020B00052681A4442600A6812680260814200D085
:1020C000086030BD0460F9E70C01002070B5002401
:1020D00041600B4D0061914206D8D11A826991424C
:1020E00006D2011D686807E09A4203D2994201D3E3
:1020F000012403E0011D286800F0A2FA204670BD0B
:10210000E400002010B5044600F0BEFAA06B28B130
:102110005FF0000400F0D8FA204610BD0124F9E772
:1021200030B589B0304D55E00498002806DADDE975
:102130000601059A9047049800284BDB069C6069CD
:1021400010B1201D00F044FA02A800F0B9F80246D0
:1021500004980A283ED2DFE800F00505053D263741
:1021600005053D260598A169034601442046FFF771
:10217000ADFF00B3616A20468847E069012829D194
:10218000002000900598A1690023421819462046B6
:1021900001F0E8F878B9502080F31188BFF34F8F31
:1021A000BFF36F8FFEE70598A06128B18118134631
:1021B0002046FFF78BFF0DE0502080F31188BFF31E
:1021C0004F8FBFF36F8FFEE794F82C0010B92046B5
:1021D00000F08EFA002204A9A86800F00FFE002883
:1021E000A2D109B030BD0000E40000202DE9FC417F
:1021F0000F46054600F0C8FB01A800F061F8044650
:10220000019818B101F01CF8BDE8FC81224EAFB175
:1022100070680068A8B30027291B3A46B06800F030
:10222000E5FA01F00DF80028EED11C494FF080507E
:102230000860BFF34F8FBFF36F8FE5E7A542EBD880
:1022400000F0FEFF30682746C068C468201D00F01B
:10225000BFF9E069012810D1A0692B4641193A461F
:102260002046FFF733FF40B10020034601460090AF
:102270002A46204601F076F820B1616A2046884758
:10228000C2E707E0502080F31188BFF34F8FBFF300
:102290006F8FFEE70127BFE7E400002004ED00E0B8
:1022A00006484168096829B14168C968C968496830
:1022B000016370474FF0FF31FAE70000A8000020EB
:1022C00070B5054600F0DAFE064E044630698442D9
:1022D00003D200F009F8012000E000202860204629
:1022E000346170BDE4000020F8B5194D1FE0C068EE
:1022F000C4680668201D00F06BF9616A20468847B3
:10230000E069012813D1A0693044B04206D92461A4
:102310006060211D286800F093F908E00020034662
:10232000014600903246204601F01CF838B128687A
:1023300001680029DBD16968C5E90010F8BD5020AB
:1023400080F31188BFF34F8FBFF36F8FFEE700005C
:10235000E400002008484068401C4FF0500080F323
:10236000118804D0BFF34F8FBFF36F8FFEE7BFF329
:102370004F8FBFF36F8FFEE714010020074C2068DA
:10238000016841B1C0680021D0F80000FFF72EFFBE
:10239000FFF7C6FEF3E701210020F7E7E400002085
:1023A0002DE9F041044600F06FF994F9455004F12D
:1023B000240609E0606A48B1304600F009FF08B120
:1023C00000F064FA6D1E6DB2002DF3DC4FF0FF36A5
:1023D00084F8456000F078F900F056F994F944501B
:1023E00004F1100709E0206948B1384600F0F0FE1A
:1023F00008B100F04BFA6D1E6DB2002DF3DC84F8CD
:102400004460BDE8F04100F05FB900002DE9F04103
:102410000546002700F0B8FA314E306808B9FFF7DA
:102420007BFDF06805424BD1C5B3083568070ED077
:1024300005F00700C0F108000544680707D05020E8
:1024400080F31188BFF34F8FBFF36F8FFEE72DB37B
:102450007068854234D82248103001460C6801E08B
:1024600020460C466168A94202D221680029F7D1B2
:1024700031688C4224D007682168016060680837A1
:10248000411B10290FD96019420708D0502080F352
:102490001188BFF34F8FBFF36F8FFEE710E04160ED
:1024A0006560FFF7EDFD61687068401A7060B268A2
:1024B000904200D2B060F06801430020C4E90001FE
:1024C00000F0BEFE780707D0502080F31188BFF3DC
:1024D0004F8FBFF36F8FFEE73846BDE8F0810000F5
:1024E000FC00002010B5031F4FF080741C601B1F00
:1024F00021F001011960191F044B0B6014390A60A7
:10250000091F6FF0020244380A6010BD552300080D
:1025100010B590F82130062911D280F821100278E8
:1025200000EB81004FF08044012A02D0022A03D040
:1025300006E04068606303E04068A06300E01AB111
:10254000581A00D5404210BD02214177C81E10BD67
:102550001822001DFDF7A4BE90F820200021052AB6
:1025600002D380F8201004E090F82020521C80F85C
:102570002020012200F81C2F41708171C17101726D
:102580008170C170704710B5017801291FD1017F9A
:1025900009B9417F79B1017F09B1417F71B1417FB3
:1025A000022911D0407F012811D1FDF7CFFEBDE8EF
:1025B0001040FEF7EFBCFDF7C9FE01E0FDF7BEFEDF
:1025C000BDE81040FEF7DEBCFDF7B8FEEFE710BD3A
:1025D000D0E9013201699A60D0E901235A604A6862
:1025E000824201D182684A60002202610868401E6E
:1025F0000860086870470000034B036003F15C004B
:102600000860802010607047CC070020044B0360F6
:1026100003F15C0008604FF48070106070470000A8
:10262000280A002000F108014FF0FF32C0E9011232
:10263000C1600161002101607047002101617047A4
:1026400030B50B685A1C02D000F1080202E00269A2
:1026500004E02246546825689D42FAD953684B60CD
:1026600099608A60516008610168491C016030BD51
:1026700042684A6093688B60936859609160086112
:102680000168491C01607047502080F31188BFF336
:102690004F8FBFF36F8F0A494868401C486001287C
:1026A0000CD10848006810F0FF0F07D0502080F3CD
:1026B0001188BFF34F8FBFF36F8FFEE770470000A5
:1026C0001401002004ED00E00849486828B1401ECC
:1026D000486001D180F311887047502080F3118841
:1026E000BFF34F8FBFF36F8FFEE700001401002090
:1026F00070B5002827D0144DA0F108046168E8687F
:10270000014207D1502080F31188BFF34F8FBFF3F0
:102710006F8FFEE722683AB1502080F31188BFF333
:102720004F8FBFF36F8FFEE78143616000F02CF99C
:1027300060686968084468602046FFF7A1FCBDE84E
:10274000704000F07DBD70BDFC0000204FF0E02027
:1027500000210161816105494FF47A720968B1FB7A
:10276000F2F1491E4161072101617047A400002078
:1027700010B5FDF76FFD114910280ED300F1E020D0
:1027800090F8F0030A78904207D2502080F3118825
:10279000BFF34F8FBFF36F8FFEE70948006889686A
:1027A00000F4E060884207D9502080F31188BFF31D
:1027B0004F8FBFF36F8FFEE710BD000014010020A4
:1027C0000CED00E010B5084B002200BF53F832407A
:1027D0001CB1521C082AF9D310BD43F8321003EB88
:1027E000C201486010BD0000B001002070B5154660
:1027F0000E460446FFF748FF94F944100020491C98
:1028000001D184F8440094F94510491C01D184F8A1
:102810004500FFF759FFA06B28B92A46314604F15D
:10282000240000F051F82046BDE87040FFF7B8BD25
:1028300010B5020014D00F48806B38B1502080F3DF
:102840001188BFF34F8FBFF36F8FFEE700F09CF846
:1028500000211046FFF73AFA00F0F2FC002807D1F9
:1028600005494FF080500860BFF34F8FBFF36F8F63
:1028700010BD0000A800002004ED00E002498A6AB3
:102880000260496941607047A800002001490120A9
:1028900048627047A800002010B50C4650B10949A5
:1028A00009681831FFF7CCFE2046BDE81040012131
:1028B000FFF70CBA502080F31188BFF34F8FBFF39E
:1028C0006F8FFEE7A800002070B514460D4668B172
:1028D0000A4909681831FFF7CBFE0CB14FF0FF35FC
:1028E00021462846BDE87040FFF7F0B9502080F33C
:1028F0001188BFF34F8FBFF36F8FFEE7A800002052
:1029000030B587B00024039405AA04A903A8049451
:10291000FFF772FEDDE903010094CDE90110002309
:1029200015A11748059A00F06FFB164D0028686343
:102930001FD000F0E7FC012809D0401C19D150201D
:1029400080F31188BFF34F8FBFF36F8FFEE75020E6
:1029500080F31188BFF34F8FBFF36F8F4FF0FF30BD
:1029600028630120E8616C6107B0BDE8304000F0E9
:1029700045B807B030BD000049444C450000000098
:10298000611F0008A80000200248816B491C816378
:1029900070470000A8000020164810B5816B11B1E7
:1029A0000121416210BD002141628169124A01E0AA
:1029B000B9B1491E01EB810352F82330002BF7D047
:1029C00001EB810302EB830202F1080453685B68A8
:1029D0005360A34201D15B685360DA680260816191
:1029E00010BD502080F31188BFF34F8FBFF36F8F5E
:1029F000FEE70000A8000020F00100201CB53748C9
:102A00000168374A914207D1502080F31188BFF303
:102A10004F8FBFF36F8FFEE700683149491E884230
:102A200007D1502080F31188BFF34F8FBFF36F8F12
:102A3000FEE72C4908780190FF20087008788DF88F
:102A400000009DF800009DF8002000F0F00090428A
:102A500007D0502080F31188BFF34F8FBFF36F8FE3
:102A6000FEE79DF80000204B00F050001870072092
:102A7000986005E09DF8002052008DF80020401E6F
:102A80009DF800201206F5D49860032807D0502046
:102A900080F31188BFF34F8FBFF36F8FFEE74FF4C2
:102AA00040709860019808700C482030016841F42B
:102AB00070010160016841F070410160FFF746FE5E
:102AC00000205860FDF78EFB0848016841F0404146
:102AD0000160FDF773FB00201CBD000000ED00E06D
:102AE00071C20F4100E400E01401002034EF00E067
:102AF00038B5049D18B153B1CAB181B120E050205E
:102B000080F31188BFF34F8FBFF36F8FFEE7502024
:102B100080F31188BFF34F8FBFF36F8FFEE7502014
:102B200080F31188BFF34F8FBFF36F8FFEE739B18A
:102B3000502080F31188BFF34F8FBFF36F8FFEE7F4
:102B400050241C46012384F846302B460094FFF79E
:102B500037FA204638BD000070B50D46040025D078
:102B6000FFF792FDD4E90F20216802FB001161609C
:102B70000021A1632168A1600A46D4E90F01401E2B
:102B800000FB0121E16021464FF0FF3001F8440FC6
:102B9000487004F110008DB1FFF744FD04F12400EA
:102BA000FFF740FDFFF790FD012070BD502080F33E
:102BB0001188BFF34F8FBFF36F8FFEE721690029A4
:102BC000F0D000F005FB0028ECD004494FF0805015
:102BD0000860BFF34F8FBFF36F8FE3E704ED00E0B2
:102BE0002DE9FF4782B01D468A464FF000080400D9
:102BF00003D0BAF1000F08D011E0502080F3118803
:102C0000BFF34F8FBFF36F8FFEE7206C38B15020BA
:102C100080F31188BFF34F8FBFF36F8FFEE7022D54
:102C20000AD1E06B012807D0502080F31188BFF350
:102C30004F8FBFF36F8FFEE700F012FA3F4F4FF058
:102C400000094FF0805648B9049838B1502080F3FD
:102C50001188BFF34F8FBFF36F8FFEE7FFF714FDAF
:102C6000A06BE16B884207D3022D05D00498D0B148
:102C7000B8F1000F1AD01EE02A4651462046FFF751
:102C8000FAF8616A19B104F1240000F0A1FA20B148
:102C90003E60BFF34F8FBFF36F8FFFF715FD01202D
:102CA00006B0BDE8F087FFF70FFD22E06846FFF7AA
:102CB000E5FD4FF00108FFF707FDFFF765FEFFF7A1
:102CC000E3FC94F94400401C01D184F8449094F949
:102CD0004500401C01D184F84590FFF7F5FC04A99C
:102CE000684600F027F930B12046FFF759FB00F0A5
:102CF000A7FA0020D4E7FFF7C7FCA06BE16B88427E
:102D000013D1FFF7E1FC04F110000499FFF7C4FDB3
:102D10002046FFF745FB00F093FA00289ED13E6065
:102D2000BFF34F8FBFF36F8F98E7FFF7CDFC2046BF
:102D3000FFF736FB00F084FA90E7000004ED00E0B6
:102D40002DE9F0471F4690468946040003D0B9F1AB
:102D5000000F08D011E0502080F31188BFF34F8F8F
:102D6000BFF36F8FFEE7206C38B1502080F31188DD
:102D7000BFF34F8FBFF36F8FFEE7022F0AD1E06BD7
:102D8000012807D0502080F31188BFF34F8FBFF385
:102D90006F8FFEE7FFF7ECFC5020EFF3118680F316
:102DA0001188BFF34F8FBFF36F8FA06BE16B884229
:102DB00006D3022F04D0002086F31188BDE8F087E7
:102DC00094F945503A4649462046FFF754F8681CA6
:102DD00004D06D1C84F845500120EDE7606A00289E
:102DE000FAD004F1240000F0F3F90028F4D0B8F18F
:102DF000000FF1D00121C8F80010EDE72DE9F747E9
:102E0000002683B08A46040003D0BAF1000F08D030
:102E100011E0502080F31188BFF34F8FBFF36F8F05
:102E2000FEE7206C38B1502080F31188BFF34F8F3C
:102E3000BFF36F8FFEE700F013F9DFF8F4804FF077
:102E400000094FF0805748B9059838B1502080F3F9
:102E50001188BFF34F8FBFF36F8FFEE7FFF714FCAE
:102E6000A56BC5B151462046FEF7F2FF6D1EA56366
:102E7000206950B104F1100000F0AAF928B1C8F897
:102E80000070BFF34F8FBFF36F8FFFF71DFC012062
:102E900006B0BDE8F087059808B11EB106E0FFF75F
:102EA00013FC27E06846FFF7E9FC0126FFF70CFC5E
:102EB000FFF76AFDFFF7E8FB94F94400401C01D1DD
:102EC00084F8449094F94500401C01D184F8459061
:102ED000FFF7FAFB05A9684600F02CF80028204609
:102EE0000AD0FFF75DFA00F0ABF92046FFF70AF9C8
:102EF0000028B3D00020CBE7FFF704F990B104F12C
:102F000024000599FFF7C8FC2046FFF749FA00F0B6
:102F100097F90028A2D1C8F80070BFF34F8FBFF314
:102F20006F8F9BE72046FFF73BFA00F089F995E7A2
:102F300004ED00E02DE9F0410C46050011D0C4B1CC
:102F4000FFF7A2FB174B5A696E682068911B471C5C
:102F500017D02F689B6A9F4219D0964217D8012438
:102F600010E0502080F31188BFF34F8FBFF36F8FB5
:102F7000FEE7502080F31188BFF34F8FBFF36F8FB0
:102F8000FEE70024FFF7A0FB2046BDE8F081884261
:102F900005D9401A20602846FFF770FCF1E70020B1
:102FA0002060DCE7A80000202DE9FF5F8346DDE913
:102FB0000E87994616468A469000FFF727FA0500C5
:102FC0001CD05C20FFF722FA040014D000202563F7
:102FD00084F85900CDE90240CDE900874B463246DE
:102FE00051465846FEF7FDFF2046FEF79DFE0120A4
:102FF00004B000F006B82846FFF77AFB4FF0FF3028
:10300000F6E730BCBDE8C09FF0B585B0DDE90B64E4
:103010000A9DA6B1DCB15C2700972663022684F8DE
:103020005960002604AFCDE90246CDE90057FEF70E
:10303000D8FF2046FEF778FE049805B0F0BD50207A
:1030400080F31188BFF34F8FBFF36F8FFEE75020DF
:1030500080F31188BFF34F8FBFF36F8FFEE700003F
:103060000548C16919B1806B18B100207047012073
:103070007047022070470000A80000200148406906
:1030800070470000A80000202DE9F0412E4C0027D9
:10309000A06B40B1206A401C2062606A00B1012729
:1030A0003846BDE8F0816669761C666113D16068B8
:1030B000006838B1502080F31188BFF34F8FBFF301
:1030C0006F8FFEE76068A1686160A060A06A401C25
:1030D000A062FFF7E5F8206BDFF87080864209D325
:1030E0006068006880B16068C068C56868688642CA
:1030F0000DD220632068C06A00EB800158F82100DF
:103100000128CAD90127C8E74FF0FF30F1E7281D91
:10311000FFF75EFAA86A18B105F11800FFF758FA30
:10312000E86AA169884200D9A06100EB800108EB40
:103130008100291DFFF79CFAE86A2168C96A884264
:10314000CED30127CCE70000A8000020F00100202A
:1031500070B504004FF0000133D01B4D2868844245
:1031600007D0502080F31188BFF34F8FBFF36F8FCC
:10317000FEE7206D38B1401E2065E36CE26A9A429A
:103180001FD040B11DE0502080F31188BFF34F8F56
:10319000BFF36F8FFEE7201DFFF71AFAE06CE062C5
:1031A000C0F13800A061E06AA969884200D9A8612D
:1031B000064900EB800001EB8000211DFFF758FA63
:1031C0000121084670BD0000A8000020F001002089
:1031D00070B5C068C46854B104F118000646FFF722
:1031E000F7F9144DA86B50B13146134815E0502043
:1031F00080F31188BFF34F8FBFF36F8FFEE7201D61
:10320000FFF7E6F9E06AA969884200D9A8610B498D
:1032100000EB800001EB8000211DFFF729FAE06A36
:103220002968C96A884202D90120686270BD0020FD
:1032300070BD0000A800002078060020F0010020EA
:103240002DE9F0472C4D00242746A86B38B1FFF735
:103250001BFAA86B401EA863A86B40B146E0502043
:1032600080F31188BFF34F8FBFF36F8FFEE729699B
:10327000224E0120D1B3A6F5916980463068E0B1B5
:10328000F068C46804F11800FFF7A2F9201DFFF7E9
:103290009FF9E06AA969884200D9A86100EB800122
:1032A00009EB8100211DFFF7E3F9E06A2968C96A8B
:1032B0008842E3D3C5F82480E0E70CB1FEF7F0FFC5
:1032C0002C6A4CB14FEA0806FFF7DEFE00B16E62D1
:1032D000641EF9D100202862686A38B108490127C4
:1032E00038070860BFF34F8FBFF36F8FFFF7ECF91C
:1032F0003846BDE8F0870000A800002078060020CE
:1033000004ED00E010B586B0FEF776FD114CA06824
:10331000B8B100200390049005AA04A903A8FFF700
:1033200075F9DDE9032102208DE8070000230AA1D9
:103330000B48059AFFF768FEE06010B106B0012067
:1033400010BD502080F31188BFF34F8FBFF36F8FF4
:10335000FEE70000E4000020546D72205376630005
:103360007D2300082DE9FF411E46134602000A9DF9
:103370004FF0000016D0144CA768002F0FD0CDE9F5
:1033800000130292062917DAFFF76AFE02284FF0AF
:1033900000030FD000226946A068FFF721FC04B0AB
:1033A000BDE8F081502080F31188BFF34F8FBFF349
:1033B0006F8FFEE72A46EEE700233246694638461D
:1033C000FFF7BEFCEBE70000E40000203834000803
:1033D00000000000000000000000000000000000ED
:1033E0008000000018000000000000000000000045
:1033F00000000000000000000102030406070809A5
:10340000A0860100400D0300801A060000350C0064
:1034100040420F0080841E0000093D0000127A0027
:103420000024F40000366E010048E801006CDC0264
:10343000000000000102030464656661756C745449
:1034400061736B006434000800000020200100005C
:10345000FC1500088435000820010020004C000005
:103460000C160008000000000000000037000000FB
:103470005A0000007D000000A0000000C300000012
:10348000E600000032000000480000005E0000007E
:10349000740000008A000000A0000000000000008E
:1034A00020252023802124A020224022235F5F5F4B
:1034B000240000002042214222422342244225428D
:1034C0002442234222422142200000000000230027
:1034D000222283422580002283422600234321307A
:1034E0003C000020500000206A0000206D000020F9
:1034F0007300002078000020000000001000000091
:10350000010000000000000000093D000000000074
:1035100000000000000000000000000000000000AB
:10352000000000000000000000000000000000009B
:10353000000000000000000000000000000000008B
:10354000000000000000000000000000000000007B
:10355000000000000000000000000000000000006B
:10356000000000000000000000000000000000005B
:10357000000000000000000000000000AAAAAAAAA3
:043580000000000047
:040000050800018965
:00000001FF
