:020000040800F2
:1000000088080020490200088502000887020008CD
:10001000890200088B0200088D0200080000000021
:100020000000000000000000000000008F02000837
:1000300091020008000000009302000889080008EF
:10004000970200089702000897020008970200082C
:10005000970200089702000897020008970200081C
:10006000970200089702000897020008970200080C
:1000700097020008970200089702000897020008FC
:1000800097020008970200089702000897020008EC
:1000900097020008970200089702000897020008DC
:1000A00097020008970200089702000897020008CC
:1000B00097020008970200089702000897020008BC
:1000C00097020008970200089702000897020008AC
:1000D000970200089702000897020008970200089C
:1000E000970200089702000897020008970200088C
:1000F000970200089702000897020008970200087C
:10010000970200089702000897020008970200086B
:10011000970200089702000897020008970200085B
:10012000970200089702000897020008970200084B
:10013000970200089702000897020008970200083B
:10014000970200089702000897020008970200082B
:10015000970200089702000897020008970200081B
:10016000970200089702000897020008970200080B
:10017000970200089702000897020008000000009C
:10018000970200089702000800F002F800F04DF80E
:100190000AA090E8000C82448344AAF10107DA45E2
:1001A00001D100F042F8AFF2090EBAE80F0013F0E7
:1001B000010F18BFFB1A43F001031847B4140000E5
:1001C000D4140000103A24BF78C878C1FAD8520776
:1001D00024BF30C830C144BF04680C6070470000C1
:1001E0000023002400250026103A28BF78C1FBD840
:1001F000520728BF30C148BF0B607047642900F028
:10020000D980732900F0AF81002070471FB501F03D
:10021000FFF900F069FA04000020002101F0E2F982
:10022000401C60601FBD10B510BD00F037FA1146CC
:10023000FFF7ECFF00F088FE00F068FA03B4FFF768
:10024000F2FF03BC00F0ACFA16481749174B99426D
:100250003CBF50F8042B41F8042BF8D314494FF05D
:1002600000028B4238BF43F8042BFAD3DFF8440076
:10027000016841F470010160BFF34F8FBFF36F8FCE
:100280000D480047FEE7FEE7FEE7FEE7FEE7FEE774
:10029000FEE7FEE7FEE7FEE708480949094A0A4B80
:1002A00070470000A0170008000000202400002074
:1002B0008808002088ED00E08901000888020020FD
:1002C0008808002088040020880400200FB41CB592
:1002D000084B06AA7B4469460090059800F019F97E
:1002E00004460020694600F027F920461CBC5DF852
:1002F00014FB0000610200002DE9F0410E460446A7
:10030000002020622046E168884730B3252805D0C8
:10031000D4E901219047206A401CF2E7E1682046B9
:1003200000278847050018D0A5F14100192802D8F8
:1003300020354FF400673246294620462760FFF7F4
:100340005DFF40B1012804D0F61D26F007060836EF
:10035000D8E7361DD6E72846DAE7206ABDE8F081FF
:1003600070B50C460546012A05D02878800600D5D0
:10037000EA69002302E0012305E05B1C934202D2FC
:10038000E05C0028F9D1A869E618C01AA861286ABB
:10039000184428622846AFF3008004E0D5E9012123
:1003A00014F8010B9047B442F8D32846AFF300800D
:1003B00070BD00002DE9F041064600241068752943
:1003C000314616A510D0AFF30080002802DA404273
:1003D00013A507E031688A0701D512A502E0490795
:1003E00004D511A5012401E0AFF3008000210A2209
:1003F00006F1240709E0B0FBF2FCB0FBF2F302FBCC
:100400001C00303078541846491C0028F3D123468C
:100410002A463046BDE8F04100F01CB8000000005C
:100420002D0000002B0000002000000070B50646E3
:1004300000F00CF80468054630460A22002100F05E
:1004400096F82C6070BD7047704770470048704741
:10045000240200202DE9F0470D46994692460446B5
:1004600000F124080168880604D5E06921F0100134
:10047000216000E00120A84201DD471B00E00027C9
:10048000A1697A1902EB0900081AA0612078C00658
:1004900002D42046AFF30080002608E0D4E9012111
:1004A0001AF806009047206A401C761C20624E45D0
:1004B000F4DB2078C0060AD52046AFF3008006E0C2
:1004C000D4E9012130209047206A401C2062381E68
:1004D000A7F10107F4DC07E0D4E9012118F80500D1
:1004E0009047206A401C2062281EA5F10105F3DC1C
:1004F0002046AFF300802078000602D50220BDE838
:10050000F0870120FBE7000001694A1C02610878BE
:10051000704700B58FB0CDE9013100210591054943
:100520007944CDE9031011466846FFF7E5FE0FB0A8
:1005300000BD0000E5FFFFFF0A6802F8010B0A603A
:10054000704710B5436913B1AFF3008001E0FFF7C6
:1005500007FF012010BD127800F124010A7000226B
:100560004A700122EDE711684FF0FF32E9E72DE90B
:10057000F04791460F4680460446002614F8015B7A
:100580002DB100F031F80068405DC007F6D12B2D89
:1005900002D02D2D18D0641E4A463946204600F060
:1005A0002BF827B13968A14201D1C7F800804FF07C
:1005B000020471050BD54042002803DDFFF746FF1A
:1005C0000460A007BDE8F08746F48066E4E70028F1
:1005D000F8DAFFF73BFF04606FF00040F2E700003D
:1005E000004870472402002010B500F07DF8001D7F
:1005F00010BD00BFF10F00002DE9F05F82461546E7
:100600008B4600270AF10104B9460078302801D052
:100610009DB113E014F8010B0127782803D0582866
:1006200001D045B10AE00DB1102D07D1002714F813
:10063000010B102502E0082500E00A250026B0463F
:100640000EE005FB080005FB06F101271FFA80F804
:1006500001EB1046B6F5803F00D3B94614F8010B04
:10066000294600F045F80028EBDABBF1000F05D071
:100670000FB1641E00E05446CBF80040B9F1000F02
:1006800006D0FFF7E3FE02210160C81E00F003B8A8
:1006900048EA0640FAE730BCBDE8C09F7546FFF760
:1006A0009FFFAE4605006946534620F00700854689
:1006B00018B020B5FFF7F0FDBDE820404FF0000670
:1006C0004FF000074FF000084FF0000B21F007013A
:1006D000AC46ACE8C009ACE8C009ACE8C009ACE87D
:1006E000C0098D4670470000004870474402002052
:1006F0003A2800D2303820F02002412A01D3A2F15A
:100700003700884201D34FF0FF30704710B50446E0
:10071000AFF300802046BDE81040FFF78FBD00001A
:100720004FF0013C50F8042B51F8043B9A4221D180
:10073000A2EB0C03934313EACC1317D150F8042B0C
:1007400051F8043B9A4215D1A2EB0C03934313EAF0
:10075000CC130BD150F8042B51F8043B9A4209D129
:10076000A2EB0C03934313EACC13DBD04FF0000051
:10077000704700BFD01A01BAB1FA81F101F0180137
:1007800022FA01F0CB40C1F12001DBB2C0B2C01AA5
:100790002CFA01F3D11A914311EAC311E6D1704743
:1007A00001491820ABBEFEE726000200704700009A
:1007B0000348406940F48070014948617047000077
:1007C000001000482348C06C40F012002149C86462
:1007D0006FF03000204908600846006840F01000C3
:1007E00008601D480830006820F030001A490831C0
:1007F00008600846006840F030000860081F006884
:1008000020F00400091F086013480C30006820F035
:10081000300011490C3108606FF440300F49086016
:100820000846006840F4803008600846806820F47C
:10083000403088600846806840F440308860084650
:10084000406820F4807048600846C06820F440305A
:10085000C8607047001002400004004800100048C3
:100860000348006820F00400014908607047000058
:10087000140400480348006840F00400014908607F
:10088000704700001404004807480068B0F5FA7F7C
:1008900003DB01200549086004E003480068401CB0
:1008A000014908607047000004000020000000209B
:1008B00030B5024600204FF0E0210861501E48612B
:1008C00048170F21002804DB0B071C0E0F4B1C548C
:1008D00006E00B071D0E0E4B00F00F04241F1D55E4
:1008E00000BF00204FF0E02188610846006940F019
:1008F000040008610846006940F0020008610846EB
:10090000006940F00100086130BD000000E400E033
:1009100018ED00E05E49096821F007015C4A1160AA
:100920001146096841F0020111605A49096841F411
:100930008071584A116000BF5649096801F480610E
:100940000029F9D010205349496821F0F851514A43
:1009500051601146496841EA0061516011460968D9
:1009600021F08071116000BF4A49096801F00071EF
:10097000B1F1007FF8D04749C96821F00301454A29
:10098000D1601146C96841F00201D1601146C968C1
:1009900021F4FE4141F4A051D1601146C96821F013
:1009A000700141F01001D1601146C96821F0C061A9
:1009B000D1601146C96841F08071D1601146096863
:1009C00041F08071116000BF3249096801F0007187
:1009D0000029F9D02F49896821F003012D4A91603F
:1009E0001146896841F00301916000BF2949896877
:1009F00001F00C010C29F9D12649896821F0F00198
:100A0000244A91601146896821F4E06191601146A1
:100A1000896821F4605191601146096821F0806174
:100A2000116000BF1B49096801F08061B1F1806F5E
:100A3000F8D01849096921F4FE41164A116111469E
:100A4000096941F4C05111611146096941F400314D
:100A500011611146096941F480311161114609683B
:100A600041F08061116000BF0A49096801F08061AE
:100A70000029F9D007498831096821F44001054A65
:100A8000C2F888101146096E41F4001111667047D2
:100A900000200240001002400B49C96C41F00101E6
:100AA000094AD164016821F003010160016841F045
:100AB00002010160016A21F00F010162016A41F047
:100AC0000101016270470000001002401249896D67
:100AD00041F00101104A916504210160016A4FF65D
:100AE000F47211400162816941F001018161C16AC2
:100AF0004FF0FF31C162816A41F04F018162016AAA
:100B000041F001010162416941F001014161016867
:100B100041F0010101607047001002401A48C06CAA
:100B200040F008001849C8641848006820F4705064
:100B3000164908600846006840F4205008601348D1
:100B40002030006840F0EE601049203108600F4806
:100B50000830006840F470500C4908310860081DE6
:100B6000006820F47050091D08600846006840F4D1
:100B7000A05008600548001D006820F0600003498F
:100B8000091D08607047000000100240000C00487A
:100B900000B50D48806D40F400300B4988650A4867
:100BA0008830006820F00C00C1F888000846D0F8B2
:100BB000880040F00400C1F88800FFF7AFFF034849
:100BC00000F010F800BD000000100240004400409A
:100BD000642242430723B2FBF3F100BF4A1E111EF9
:100BE000FCD17047016821F001010160016821F02A
:100BF00010210160016821F400410160416821F485
:100C00004051416042F28D01C160016841F00C0128
:100C100001601E4988421BD1016841F0200101603A
:100C2000016821F040010160016821F010010160BC
:100C3000016821F080010160016821F48071016088
:100C4000016821F040010160016821F001010160AB
:100C50000F49884209D1016A41F0400101620D4902
:100C6000096841F0C0010B4A1160016841F00101BF
:100C7000016000BFC16901F400110029FAD000BF72
:100C8000C16901F480010029FAD07047004C00408E
:100C90000044004008380140014600BFC86900F028
:100CA00020000028FAD0888CC0B27047F0B5044606
:100CB0000E46174600250CE000BFE06900F08000FA
:100CC0000028FAD0705D20854FF49670FFF780FF02
:100CD0006D1CBD42F0D300BFE06900F04000002869
:100CE000FAD0E06920F04000E061F0BD10B50020CE
:100CF0004FF0E0210861FFF7BDFD40A14948FFF733
:100D0000E5FA494908600846464902684748FFF73E
:100D1000CDFF47A14348FFF7D9FA43490860084689
:100D2000404902684148FFF7C1FF66E03F48FFF7CE
:100D3000B3FF0446792C01D0592C1CD146A1394867
:100D4000FFF7C4FA38490860084636490268374850
:100D5000FFF7ACFF4AA13348FFF7B8FA3249086001
:100D60000846304902683148FFF7A0FFFFF778FDD9
:100D700000F094FA10BD6E2C01D04E2C25D14AA162
:100D80002848FFF7A3FA2849086008462549026861
:100D90002648FFF78BFF4EA12248FFF797FA22491A
:100DA000086008461F4902682048FFF77FFF34A10A
:100DB0001C48FFF78BFA1C4908600846194902686D
:100DC0001A48FFF773FF00BFFEE74BA11548FFF776
:100DD0007DFA154908600846124902681348FFF772
:100DE00065FF4FA10F48FFF771FA0F4908600846E9
:100DF0000C4902680D48FFF759FF97E72020202093
:100E000054657374204661696C656421202020203C
:100E10002020202020202020202020202020200DE5
:100E20000A000000240100200800002000440040C7
:100E300020202020526574727920504F53543F2057
:100E400028592F4E2920202020202020202020201B
:100E50002020200D0A0000002020202054657374FB
:100E6000696E6720616761696E2E2E2E202020201A
:100E700020202020202020202020200D0A000000FB
:100E80002D2D2D2D2D2D2D2D2D2D2D2D2D2D2D2D92
:100E90002D2D2D2D2D2D2D2D2D2D2D2D2D2D2D2D82
:100EA0002D2D2D0D0A000000202020204C6F636B9B
:100EB000696E6720646F776E2E2E2E2020202020F2
:100EC00020202020202020202020200D0A000000AB
:100ED00020202020526573746172742064657669E5
:100EE000636520746F20756E6C6F636B2E202020FD
:100EF0002020200D0A00000020202020496E76616D
:100F00006C6964206368617261637465722020207B
:100F100020202020202020202020200D0A0000005A
:100F200020202020506C65617365207472792061E7
:100F30006761696E2E202020202020202020202084
:100F40002020200D0A0A00002DE9F04FEDB040F2FC
:100F5000B63600206A90689069908346FFF7DAFC05
:100F6000FFF716FE4FF09040FFF796FD4FF08040E0
:100F7000FFF7ACFD00F0ECF906F1640332468B4953
:100F80008B48FFF7A3F96C9089498A486C9AFFF760
:100F90008DFE8848FFF780FE6B9000E16B98792802
:100FA00060D14FF0000A59E0BAF1000F0AD182A1D6
:100FB0007F48FFF78BF96C907D497E486C9AFFF76C
:100FC00075FE2BE0B9F10D0F02D0BAF1040F25D157
:100FD00068A8FFF72BFA6A906A98312811DD42F26F
:100FE000DE616A9888420CDC6A9E324681A17048B4
:100FF000FFF76CF96C906E496E486C9AFFF756FEDD
:101000002FE083A16A48FFF761F96C90684969484D
:101010006C9AFFF74BFE4FF0FF3A1DE06548FFF773
:101020003BFE8146B9F1300F02DBB9F1390F0FDD1C
:10103000B9F10D0F0CD07FA15D48FFF747F96C9017
:101040005B495C486C9AFFF731FE4FF0FF3A03E0D2
:1010500068A800F80A9000BF0AF1010ABAF1050F6A
:10106000A2DB00BF4FF0000976A15148FFF72EF92F
:101070006C904F494F486C9AFFF718FE03E04D48BB
:10108000FFF70AFE8146B9F10D0FF8D100206790F5
:1010900001904FF08040006920F001004FF0804146
:1010A000086135E04FF08040006900F0020078B33D
:1010B000679820B94FF08040446B002525E06FF021
:1010C00000410020091BA84101DA012001904FF0E6
:1010D0008040476B4FF000080198C0EBC070C0190A
:1010E000B0EB040BB3450EDB06F1640083450ADC6C
:1010F000ABEB060002A951F82000401CABEB060147
:1011000002AA42F821003C4645466798401C679079
:101110006798B0F57A7FC5DD4FF0000A1BE002A8A2
:1011200050F82A00002810DD02A850F82A0006EB2B
:101130000A024AA34AA100901D48FFF7C7F86C9025
:101140001B491C486C9AFFF7B1FD002002A941F829
:101150002A000AF1010ABAF1650FE0DB43A1144845
:10116000FFF7B4F86C90124912486C9AFFF79EFD95
:101170001048FFF791FD6B906B9879280ED13FA135
:101180000B48FFF7A3F86C9009490A486C9AFFF7DF
:101190008DFD0848FFF780FD6B9000E000E0FDE664
:1011A00000BF00206DB000F075B800001C160008EC
:1011B00024000020004400400D0A456E7465722032
:1011C0006E65772076616C756520666F72206C6F36
:1011D000776572206C696D697420696E207468652A
:1011E0002072616E67652035302D393935303A20EF
:1011F000000000000D0A4E6577206C6F7765722045
:101200006C696D69742069733A20256400000000E0
:101210000D0A496E76616C696420696E7075742E72
:10122000204E6F742077697468696E2072616E67F2
:1012300065210000496E76616C696420696E707585
:10124000742100000D0A507265737320456E746539
:101250007220746F20626567696E000020200000B4
:101260002564257325640D0A0000000052756E2068
:10127000616761696E28792F6E293F000D0A436806
:10128000616E6765206C696D6974733F28792F6E94
:10129000290D0A0030BCBDE8C08F000010B5002049
:1012A00023490860234908602348FFF701FB4FF0FA
:1012B0008040406B0021214A03C230E04FF0804063
:1012C000006900F0020050B31C486FF0004306C8EC
:1012D0000020591A904102DA0120194908704FF094
:1012E0008040406B0021174A03C215480078C0EBCC
:1012F000C07014490968411810480068081A12495A
:101300000860084600681149884202DC00F0FCF8D9
:1013100010BD0C48D0E90010084AC2E90010054889
:1013200000680028CAD0FFF7E1FC00BFF0E700002A
:10133000040000200000002040420F0010000020A8
:1013400020000020180000200C000020A0860100D2
:1013500010B5FFF737FA2CA13548FEF7B7FF35492E
:1013600008600846324902683348FFF79FFC33A102
:101370002F48FEF7ABFF2F49086008462C4902684A
:101380002D48FFF793FC37A12948FEF79FFF294915
:1013900008600846264902682748FFF787FC3BA1FA
:1013A0002348FEF793FF2349086008462049026856
:1013B0002148FFF77BFC3FA11D48FEF787FF1D4931
:1013C000086008461A4902681B48FFF76FFC434A49
:1013D00043A11748FEF77AFF1649086008461449EA
:1013E00002681548FFF762FC07A11148FEF76EFF7F
:1013F0001049086008460E4902680F48FFF756FC7E
:10140000FFF74CFF10BD00002D2D2D2D2D2D2D2D66
:101410002D2D2D2D2D2D2D2D2D2D2D2D2D2D2D2DFC
:101420002D2D2D2D2D2D2D2D2D2D2D0D0A000000B6
:10143000240100200800002000440040202020203B
:10144000506F776572204F6E2053656C662054652F
:101450007374202020202020202020202020200DF8
:101460000A0000002D2D2D2D2D2D2D2D2D2D2D2D56
:101470002D2D2D2D2D2D2D2D2D2D2D2D2D2D2D2D9C
:101480002D2D2D2D2D2D2D0D0A0A00002020202080
:1014900054657374696E67204E6F772E2E2E202050
:1014A0002020202020202020202020202020200D4F
:1014B0000A000000202020204C6F6F6B696E6720AF
:1014C000666F7220612070756C736520756E64653F
:1014D000723A20202020200D0A000000A086010082
:1014E0002020202025644D53202020202020202053
:1014F00020202020202020202020202020202020EC
:101500002020200D0A00000010B500204FF0E0213F
:101510000861FFF74DF912A11B48FEF7D7FE1B49E2
:1015200008600846184902681948FFF7BFFB19A16F
:101530001548FEF7CBFE15490860084612490268B7
:101540001348FFF7B3FB1DA10F48FEF7BFFE0F497D
:10155000086008460C4902680D48FFF7A7FB10BD5C
:101560002020202054657374205375636365737362
:1015700066756C2120202020202020202020202083
:101580002020200D0A000000240100200800002077
:101590000044004020202020436F6E74696E7569FE
:1015A0006E672077697468206D61696E2070726F54
:1015B0006772616D2E2E2E0D0A0000002D2D2D2D2F
:1015C0002D2D2D2D2D2D2D2D2D2D2D2D2D2D2D2D4B
:1015D0002D2D2D2D2D2D2D2D2D2D2D2D2D2D2D0D5B
:1015E0000A0A000010B500290AD00878002807D0A0
:1015F00005487844FFF794F8002801D0002010BD7A
:101600000248784410BD00009E00000096000000D3
:101610004FF04070E1EE100A704700004C6F7765A4
:1016200072206C696D69742069732025642E0D0A1F
:101630005570706572206C696D697420697320251E
:10164000642E0D0A2009446F20796F752077697325
:101650006820746F206368616E67652074686573C5
:10166000652076616C7565732028792F6E293F009F
:10167000A01700080000002024000000C40100089A
:10168000C41700082400002064080000E0010008DE
:101690001001000043000000F8FFFFFF0040404041
:1016A0004040404040404141414141404040404035
:1016B00040404040404040404040404040050202E1
:1016C00002020202020202020202020202202020A0
:1016D00020202020202020020202020202029090FC
:1016E00090909090101010101010101010101010FA
:1016F000101010101010101002020202020288884E
:101700008888888808080808080808080808080859
:101710000808080808080808020202024000000041
:1017200000000000000000000000000000000000B9
:1017300000000000000000000000000000000000A9
:101740000000000000000000000000000000000099
:101750000000000000000000000000000000000089
:101760000000000000000000000000000000000079
:101770000000000000000000000000000000000069
:101780000000000000000000000000000000000059
:101790000000000000000000000000000000000049
:1017A0000000000000000000000000000000000039
:1017B0000000000000000000000000000000000029
:0417C0000000000025
:040000050800018965
:00000001FF
