:020000040800F2
:100000008006002029020008650200086702000837
:10001000690200086B0200086D0200080000000081
:100020000000000000000000000000006F02000857
:100030007102000800000000730200087502000849
:1000400077020008770200087702000877020008AC
:10005000770200087702000877020008770200089C
:10006000770200087702000877020008770200088C
:10007000770200087702000877020008770200087C
:10008000770200087702000877020008770200086C
:10009000770200087702000877020008770200085C
:1000A000770200087702000877020008770200084C
:1000B000770200087702000877020008770200083C
:1000C000770200087702000877020008770200082C
:1000D000770200087702000877020008770200081C
:1000E000770200087702000877020008770200080C
:1000F00077020008770200087702000877020008FC
:1001000077020008770200087702000877020008EB
:1001100077020008770200087702000877020008DB
:1001200077020008770200087702000877020008CB
:1001300077020008770200087702000877020008BB
:1001400077020008770200087702000877020008AB
:10015000770200087702000877020008770200089B
:10016000770200087702000877020008770200088B
:1001700077020008770200087702000800000000FC
:10018000770200087702000800F002F800F03CF85F
:100190000AA090E8000C82448344AAF10107DA45E2
:1001A00001D100F031F8AFF2090EBAE80F0013F0F8
:1001B000010F18BFFB1A43F001031847BC0C0000E5
:1001C000CC0C00000023002400250026103A28BF94
:1001D00078C1FBD8520728BF30C148BF0B607047B9
:1001E000642900F0AD80002070471FB500F014FEB8
:1001F00000F02AFA04000020002100F0F7FD401C66
:1002000060601FBD10B510BD00F0F8F91146FFF792
:10021000ECFF00F0A5FC00F029FA03B4FFF7F2FFB1
:1002200003BC00F06DFA000016481749174B9942BD
:100230003CBF50F8042B41F8042BF8D314494FF07D
:1002400000028B4238BF43F8042BFAD3DFF8440096
:10025000016841F470010160BFF34F8FBFF36F8FEE
:100260000D480047FEE7FEE7FEE7FEE7FEE7FEE794
:10027000FEE7FEE7FEE7FEE708480949094A0A4BA0
:1002800070470000980F00080000002000000020C8
:100290008006002088ED00E0890100088000002031
:1002A0008006002080020020800200200FB41CB5D0
:1002B000084B06AA7B4469460090059800F0EFF8C9
:1002C00004460020694600F0FDF820461CBC5DF89D
:1002D00014FB00000D0200002DE9F0410E4604461B
:1002E000002020622046E168884730B3252805D0E9
:1002F000D4E901219047206A401CF2E7E1682046DA
:1003000000278847050018D0A5F14100192802D818
:1003100020354FF400673246294620462760FFF714
:100320005FFF40B1012804D0F61D26F0070608360D
:10033000D8E7361DD6E72846DAE7206ABDE8F0811F
:100340002DE9F0410646002410687529314616A5AE
:1003500010D0AFF30080002802DA404213A507E076
:1003600031688A0701D512A502E0490704D511A515
:10037000012401E0AFF3008000210A2206F12407E6
:1003800009E0B0FBF2FCB0FBF2F302FB1C003030E2
:1003900078541846491C0028F3D123462A46304693
:1003A000BDE8F04100F01CB8000000002D00000086
:1003B0002B0000002000000070B5064600F00CF88D
:1003C0000468054630460A22002100F080F82C60BF
:1003D00070BD70477047704700487047200000208C
:1003E0002DE9F0470D4699469246044600F124084F
:1003F0000168880604D5E06921F01001216000E061
:100400000120A84201DD471B00E00027A1697A19FD
:1004100002EB0900081AA0612078C00602D4204629
:10042000AFF30080002608E0D4E901211AF80600A5
:100430009047206A401C761C20624E45F4DB2078F1
:10044000C0060AD52046AFF3008006E0D4E90121BA
:1004500030209047206A401C2062381EA7F1010717
:10046000F4DC07E0D4E9012118F805009047206A80
:10047000401C2062281EA5F10105F3DC2046AFF3E5
:1004800000802078000602D50220BDE8F087012018
:10049000FBE7000001694A1C02610878704700B55B
:1004A0008FB0CDE901310021059105497944CDE9AD
:1004B000031011466846FFF70FFF0FB000BD0000A4
:1004C000E5FFFFFF0A6802F8010B0A6070472DE99B
:1004D000F04791460F4680460446002614F8015B1B
:1004E0002DB100F031F80068405DC007F6D12B2D2A
:1004F00002D02D2D18D0641E4A463946204600F001
:100500002BF827B13968A14201D1C7F800804FF01C
:10051000020471050BD54042002803DDFFF75CFFA4
:100520000460A007BDE8F08746F48066E4E7002891
:10053000F8DAFFF751FF04606FF00040F2E70000C7
:10054000004870472000002010B500F07DF8001D25
:1005500010BD00BF990800002DE9F05F82461546E6
:100560008B4600270AF10104B9460078302801D0F3
:100570009DB113E014F8010B0127782803D0582807
:1005800001D045B10AE00DB1102D07D1002714F8B4
:10059000010B102502E0082500E00A250026B046E0
:1005A0000EE005FB080005FB06F101271FFA80F8A5
:1005B00001EB1046B6F5803F00D3B94614F8010BA5
:1005C000294600F045F80028EBDABBF1000F05D012
:1005D0000FB1641E00E05446CBF80040B9F1000FA3
:1005E00006D0FFF7F9FE02210160C81E00F003B833
:1005F00048EA0640FAE730BCBDE8C09F7546FFF701
:100600009FFFAE4605006946534620F00700854629
:1006100018B020B5FFF730FEBDE820404FF00006CF
:100620004FF000074FF000084FF0000B21F00701DA
:10063000AC46ACE8C009ACE8C009ACE8C009ACE81D
:10064000C0098D46704700000048704740000020F8
:100650003A2800D2303820F02002412A01D3A2F1FA
:100660003700884201D34FF0FF30704710B5044681
:10067000AFF300802046BDE81040FFF7CEBD00007C
:100680004FF0013C50F8042B51F8043B9A4221D121
:10069000A2EB0C03934313EACC1317D150F8042BAD
:1006A00051F8043B9A4215D1A2EB0C03934313EA91
:1006B000CC130BD150F8042B51F8043B9A4209D1CA
:1006C000A2EB0C03934313EACC13DBD04FF00000F2
:1006D000704700BFD01A01BAB1FA81F101F01801D8
:1006E00022FA01F0CB40C1F12001DBB2C0B2C01A46
:1006F0002CFA01F3D11A914311EAC311E6D17047E4
:1007000001491820ABBEFEE726000200704700003A
:100710002348C06C40F012002149C8646FF03000DB
:10072000204908600846006840F0100008601D4835
:100730000830006820F030001A4908310860084687
:10074000006840F030000860081F006820F00400D6
:10075000091F086013480C30006820F03000114970
:100760000C3108606FF440300F490860084600689B
:1007700040F4803008600846806820F4403088608B
:100780000846806840F4403088600846406820F49D
:10079000807048600846C06820F44030C8607047E8
:1007A0000010024000040048001000485E4909683B
:1007B00021F007015C4A11601146096841F002010D
:1007C00011605A49096841F48071584A116000BFAC
:1007D0005649096801F480610029F9D01020534975
:1007E000496821F0F851514A51601146496841EA7F
:1007F000006151601146096821F08071116000BFED
:100800004A49096801F00071B1F1007FF8D0474909
:10081000C96821F00301454AD1601146C96841F019
:100820000201D1601146C96821F4FE4141F4A05192
:10083000D1601146C96821F0700141F01001D1600A
:100840001146C96821F0C061D1601146C96841F004
:100850008071D1601146096841F08071116000BF5C
:100860003249096801F000710029F9D02F498968DF
:1008700021F003012D4A91601146896841F003017E
:10088000916000BF2949896801F00C010C29F9D158
:100890002649896821F0F001244A9160114689684F
:1008A00021F4E06191601146896821F46051916002
:1008B0001146096821F08061116000BF1B49096879
:1008C00001F08061B1F1806FF8D01849096921F415
:1008D000FE41164A11611146096941F4C051116186
:1008E0001146096941F4003111611146096941F469
:1008F000803111611146096841F08061116000BFCB
:100900000A49096801F080610029F9D00749883156
:10091000096821F44001054AC2F888101146096EA1
:1009200041F400111166704700200240001002409F
:10093000016801F474410160016841F00101016046
:1009400041684FF67F7211404160816A41F04F016A
:100950008162816821F00F018160016A4FF6F372B4
:1009600011400162816941F00101816141694FF6E5
:10097000A07211404161416941F001014161C16AC8
:100980004FF0FF31C162016A41F00101016270471D
:100990001A48C06C40F008001849C864184800683C
:1009A00020F47050164908600846006840F4205052
:1009B000086013482030006840F0EE601049203194
:1009C00008600F480830006840F470500C49083146
:1009D0000860081D006820F47050091D0860084672
:1009E000006840F4A05008600548001D006820F031
:1009F00060000349091D08607047000000100240B4
:100A0000000C004800B50D48806D40F400300B49E3
:100A100088650A488830006820F00C00C1F888001A
:100A20000846D0F8880040F00400C1F88800FFF7BD
:100A3000AFFF034800F010F800BD000000100240B6
:100A400000440040642242430723B2FBF3F100BF9D
:100A50004A1E111EFCD17047016821F0010101609E
:100A6000016821F010210160016821F4004101605A
:100A7000416821F44051416042F28D01C16001683A
:100A800041F00C0101601E4988421BD1016841F010
:100A900020010160016821F040010160016821F03E
:100AA00010010160016821F080010160016821F4FA
:100AB00080710160016821F040010160016821F04E
:100AC000010101600F49884209D1016A41F04001EA
:100AD00001620D49096841F0C0010B4A11600168CB
:100AE00041F00101016000BFC16901F4001100295A
:100AF000FAD000BFC16901F480010029FAD0704723
:100B0000004C00400044004008380140014600BF4E
:100B1000C86900F020000028FAD0888CC0B2704765
:100B2000F0B504460E46174600250CE000BFE0690C
:100B300000F080000028FAD0705D20854FF4967098
:100B4000FFF780FF6D1CBD42F0D300BFE06900F0ED
:100B500040000028FAD0E06920F04000E061F0BDDC
:100B60002DE9F05FADF58A5D40F2B6340026FFF75F
:100B70001DFEFFF7CDFDFFF745FF4FF08040FFF76B
:100B8000D7FE04F1640322466F497048FFF78EFBDD
:100B9000824652466D496E48FFF7C2FF6C48FFF728
:100BA000B5FF8046C9E0B8F1790F37D169A1674830
:100BB000FFF77CFB8246524664496548FFF7B0FF69
:100BC0004FF0000B26E06248FFF7A0FF0546302DEE
:100BD00001DB392D0EDD0D2D0CD06CA15B48FFF72C
:100BE00065FB8246524659495948FFF799FF4FF035
:100BF000000B0DE00A2D06D141F238106844FFF7D2
:100C0000DBFB044609E041F23810684400F80B5061
:100C10000BF1010BBBF1050FD5DB00BF00255FA178
:100C20004A48FFF743FB8246524648494848FFF787
:100C300077FF03E04648FFF769FF05460A2DF9D123
:100C400000264FF000090FE04FF08040006900F0EF
:100C5000010048B13EB157480768A7EB090066A9F3
:100C600041F82600B946761CB6F57A7FECDB002009
:100C70001FE066A951F82010A14215DB66A951F8C2
:100C8000202004F164018A420EDC66A951F820108C
:100C9000091B01AA52F82110491C66AA52F820200B
:100CA000121B01AB43F82210002166AA42F8201063
:100CB000401CB0F57A7FDCDB4FF0000B19E001A897
:100CC00050F82B0000280EDD01A850F82B3004EB63
:100CD0000B0239A11D48FFF7E9FA824652461B492B
:100CE0001B48FFF71DFF002001A941F82B000BF165
:100CF000010BBBF1650FE2DB31A11448FFF7D6FA17
:100D00008246524611491248FFF70AFF1048FFF782
:100D1000FDFE8046B8F1790F0ED12DA10B48FFF7EB
:100D2000C5FA8246524609490948FFF7F9FE0848C4
:100D3000FFF7ECFE804600E000E034E700BF002053
:100D40000DF58A5D00F04EB8240E0008000000206A
:100D5000004400400A456E746572206E6577207607
:100D6000616C756520666F72206C6F776572206CA0
:100D7000696D697420696E207468652072616E67A0
:100D8000652035302D393935303A2000496E76618D
:100D90006C696420696E7075740A00005072657326
:100DA0007320456E74657220746F20626567696E8A
:100DB0000A000000342C0140256420202564000036
:100DC00052756E20616761696E28792F6E293F0028
:100DD0000A4368616E6765206C696D6974733F0AC8
:100DE0000000000030BCBDE8C09F000010B5002925
:100DF0000AD00878002807D005487844FFF740FC5F
:100E0000002801D0002010BD0248784410BD000029
:100E10008E000000860000004FF04070E1EE100AE6
:100E2000704700004C6F776572206C696D697420A3
:100E300069732025642E0A5570706572206C696D87
:100E400069742069732025640A2E2009446F207973
:100E50006F75207769736820746F206368616E67AF
:100E6000652074686573652076616C7565732028EC
:100E7000792F6E293F000000980F00080000002025
:100E800080060000C40100081001000043000000BB
:100E9000F8FFFFFF0040404040404040404041419B
:100EA000414141404040404040404040404040403F
:100EB00040404040400502020202020202020202D9
:100EC00002020202022020202020202020202002D6
:100ED0000202020202029090909090901010101066
:100EE0001010101010101010101010101010101002
:100EF0000202020202028888888888880808080896
:100F00000808080808080808080808080808080861
:100F10000202020240000000000000000000000089
:100F200000000000000000000000000000000000C1
:100F300000000000000000000000000000000000B1
:100F400000000000000000000000000000000000A1
:100F50000000000000000000000000000000000091
:100F60000000000000000000000000000000000081
:100F70000000000000000000000000000000000071
:100F80000000000000000000000000000000000061
:080F9000000000000000000059
:040000050800018965
:00000001FF
