:020000040800F2
:10000000600700202D020008690200086B0200084A
:100010006D0200086F020008710200080000000075
:100020000000000000000000000000007302000853
:10003000750200080000000077020008790200083D
:100040007B0200087B0200087B0200087B0200089C
:100050007B0200087B0200087B0200087B0200088C
:100060007B0200087B0200087B0200087B0200087C
:100070007B0200087B0200087B0200087B0200086C
:100080007B0200087B0200087B0200087B0200085C
:100090007B0200087B0200087B0200087B0200084C
:1000A0007B0200087B0200087B0200087B0200083C
:1000B0007B0200087B0200087B0200087B0200082C
:1000C0007B0200087B0200087B0200087B0200081C
:1000D0007B0200087B0200087B0200087B0200080C
:1000E0007B0200087B0200087B0200087B020008FC
:1000F0007B0200087B0200087B0200087B020008EC
:100100007B0200087B0200087B0200087B020008DB
:100110007B0200087B0200087B0200087B020008CB
:100120007B0200087B0200087B0200087B020008BB
:100130007B0200087B0200087B0200087B020008AB
:100140007B0200087B0200087B0200087B0200089B
:100150007B0200087B0200087B0200087B0200088B
:100160007B0200087B0200087B0200087B0200087B
:100170007B0200087B0200087B02000800000000F0
:100180007B0200087B02000800F002F800F03FF854
:100190000AA090E8000C82448344AAF10107DA45E2
:1001A00001D100F034F8AFF2090EBAE80F0013F0F5
:1001B000010F18BFFB1A43F0010318478C0D000014
:1001C0009C0D00000023002400250026103A28BFC3
:1001D00078C1FBD8520728BF30C148BF0B607047B9
:1001E000642900F0D980732900F0AF8100207047A6
:1001F0001FB500F079FE00F069FA0400002000212C
:1002000000F05CFE401C60601FBD10B510BD00F02A
:1002100037FA1146FFF7ECFF00F0AAFC00F068FA8D
:1002200003B4FFF7F2FF03BC00F0ACFA164817491D
:10023000174B99423CBF50F8042B41F8042BF8D3DC
:1002400014494FF000028B4238BF43F8042BFAD315
:10025000DFF84400016841F470010160BFF34F8F83
:10026000BFF36F8F0D480047FEE7FEE7FEE7FEE7AE
:10027000FEE7FEE7FEE7FEE7FEE7FEE7084809497E
:10028000094A0A4B7047000068100008000000206F
:10029000000000206007002088ED00E089010008D0
:1002A0006001002060070020600300206003002040
:1002B0000FB41CB5084B06AA7B446946009005980C
:1002C00000F019F904460020694600F027F920469D
:1002D0001CBC5DF814FB0000610200002DE9F04138
:1002E0000E460446002020622046E168884730B36D
:1002F000252805D0D4E901219047206A401CF2E767
:10030000E168204600278847050018D0A5F1410084
:10031000192802D820354FF4006732462946204676
:100320002760FFF75DFF40B1012804D0F61D26F0DD
:1003300007060836D8E7361DD6E72846DAE7206AEA
:10034000BDE8F08170B50C460546012A05D0287835
:10035000800600D5EA69002302E0012305E05B1C6A
:10036000934202D2E05C0028F9D1A869E618C01ACD
:10037000A861286A184428622846AFF3008004E088
:10038000D5E9012114F8010B9047B442F8D328466F
:10039000AFF3008070BD00002DE9F0410646002457
:1003A00010687529314616A510D0AFF300800028DB
:1003B00002DA404213A507E031688A0701D512A589
:1003C00002E0490704D511A5012401E0AFF3008044
:1003D00000210A2206F1240709E0B0FBF2FCB0FB81
:1003E000F2F302FB1C00303078541846491C0028F8
:1003F000F3D123462A463046BDE8F04100F01CB850
:10040000000000002D0000002B0000002000000074
:1004100070B5064600F00CF80468054630460A221E
:10042000002100F096F82C6070BD7047704770474F
:1004300000487047000100202DE9F0470D4699461D
:100440009246044600F124080168880604D5E06954
:1004500021F01001216000E00120A84201DD471BCE
:1004600000E00027A1697A1902EB0900081AA061CF
:100470002078C00602D42046AFF30080002608E0B2
:10048000D4E901211AF806009047206A401C761C26
:1004900020624E45F4DB2078C0060AD52046AFF333
:1004A000008006E0D4E9012130209047206A401CFA
:1004B0002062381EA7F10107F4DC07E0D4E901212E
:1004C00018F805009047206A401C2062281EA5F1FC
:1004D0000105F3DC2046AFF300802078000602D54A
:1004E0000220BDE8F0870120FBE7000001694A1CFB
:1004F00002610878704700B58FB0CDE90131002165
:10050000059105497944CDE9031011466846FFF786
:10051000E5FE0FB000BD0000E5FFFFFF0A6802F82E
:10052000010B0A60704710B5436913B1AFF3008047
:1005300001E0FFF707FF012010BD127800F1240150
:100540000A7000224A700122EDE711684FF0FF3275
:10055000E9E72DE9F04791460F468046044600261C
:1005600014F8015B2DB100F031F80068405DC00760
:10057000F6D12B2D02D02D2D18D0641E4A463946B7
:10058000204600F02BF827B13968A14201D1C7F805
:1005900000804FF0020471050BD54042002803DDB6
:1005A000FFF746FF0460A007BDE8F08746F48066C9
:1005B000E4E70028F8DAFFF73BFF04606FF0004043
:1005C000F2E70000004870470001002010B500F07D
:1005D0007DF8001D10BD00BFE50800002DE9F05FAB
:1005E000824615468B4600270AF10104B946007879
:1005F000302801D09DB113E014F8010B01277828B1
:1006000003D0582801D045B10AE00DB1102D07D113
:10061000002714F8010B102502E0082500E00A2548
:100620000026B0460EE005FB080005FB06F1012799
:100630001FFA80F801EB1046B6F5803F00D3B946AB
:1006400014F8010B294600F045F80028EBDABBF15D
:10065000000F05D00FB1641E00E05446CBF80040F7
:10066000B9F1000F06D0FFF7E3FE02210160C81EBA
:1006700000F003B848EA0640FAE730BCBDE8C09F86
:100680007546FFF79FFFAE4605006946534620F0CA
:100690000700854618B020B5FFF7F0FDBDE8204003
:1006A0004FF000064FF000074FF000084FF0000B2E
:1006B00021F00701AC46ACE8C009ACE8C009ACE8E1
:1006C000C009ACE8C0098D4670470000004870477B
:1006D000200100203A2800D2303820F02002412AA0
:1006E00001D3A2F13700884201D34FF0FF307047A9
:1006F00010B50446AFF300802046BDE81040FFF778
:100700008FBD00004FF0013C50F8042B51F8043B22
:100710009A4221D1A2EB0C03934313EACC1317D1D5
:1007200050F8042B51F8043B9A4215D1A2EB0C036C
:10073000934313EACC130BD150F8042B51F8043B2C
:100740009A4209D1A2EB0C03934313EACC13DBD0FA
:100750004FF00000704700BFD01A01BAB1FA81F122
:1007600001F0180122FA01F0CB40C1F12001DBB207
:10077000C0B2C01A2CFA01F3D11A914311EAC31185
:10078000E6D1704701491820ABBEFEE72600020003
:10079000704700005E49096821F007015C4A11605A
:1007A0001146096841F0020111605A49096841F493
:1007B0008071584A116000BF5649096801F4806190
:1007C0000029F9D010205349496821F0F851514AC5
:1007D00051601146496841EA00615160114609685B
:1007E00021F08071116000BF4A49096801F0007171
:1007F000B1F1007FF8D04749C96821F00301454AAB
:10080000D1601146C96841F00201D1601146C96842
:1008100021F4FE4141F4A051D1601146C96821F094
:10082000700141F01001D1601146C96821F0C0612A
:10083000D1601146C96841F08071D16011460968E4
:1008400041F08071116000BF3249096801F0007108
:100850000029F9D02F49896821F003012D4A9160C0
:100860001146896841F00301916000BF29498968F8
:1008700001F00C010C29F9D12649896821F0F00119
:10088000244A91601146896821F4E0619160114623
:10089000896821F4605191601146096821F08061F6
:1008A000116000BF1B49096801F08061B1F1806FE0
:1008B000F8D01849096921F4FE41164A1161114620
:1008C000096941F4C05111611146096941F40031CF
:1008D00011611146096941F48031116111460968BD
:1008E00041F08061116000BF0A49096801F0806130
:1008F0000029F9D007498831096821F44001054AE7
:10090000C2F888101146096E41F400111166704753
:1009100000200240001002400B49C96C41F0010167
:10092000094AD164016821F003010160016841F0C6
:1009300002010160016A21F00F010162016A41F0C8
:100940000101016270470000001002401349896DE7
:1009500041F00101114A916504210160016A4FF6DD
:10096000F47211400162C16A4FF0FF31C162416807
:100970004FF67F7211404160816A41F04F01816200
:10098000016A41F001010162416941F001014161E7
:10099000016841F001010160704700000010024051
:1009A0001A48C06C40F008001849C864184800682C
:1009B00020F47050164908600846006840F4205042
:1009C000086013482030006840F0EE601049203184
:1009D00008600F480830006840F470500C49083136
:1009E0000860081D006820F47050091D0860084662
:1009F000006840F4A05008600548001D006820F021
:100A000060000349091D08607047000000100240A3
:100A1000000C004800B50D48806D40F400300B49D3
:100A200088650A488830006820F00C00C1F888000A
:100A30000846D0F8880040F00400C1F88800FFF7AD
:100A4000AFFF034800F010F800BD000000100240A6
:100A500000440040642242430723B2FBF3F100BF8D
:100A60004A1E111EFCD17047016821F0010101608E
:100A7000016821F010210160016821F4004101604A
:100A8000416821F44051416042F28D01C16001682A
:100A900041F00C0101601E4988421BD1016841F000
:100AA00020010160016821F040010160016821F02E
:100AB00010010160016821F080010160016821F4EA
:100AC00080710160016821F040010160016821F03E
:100AD000010101600F49884209D1016A41F04001DA
:100AE00001620D49096841F0C0010B4A11600168BB
:100AF00041F00101016000BFC16901F4001100294A
:100B0000FAD000BFC16901F480010029FAD0704712
:100B1000004C00400044004008380140014600BF3E
:100B2000C86900F020000028FAD0888CC0B2704755
:100B3000F0B504460E46174600250CE000BFE069FC
:100B400000F080000028FAD0705D20854FF4967088
:100B5000FFF780FF6D1CBD42F0D300BFE06900F0DD
:100B600040000028FAD0E06920F04000E061F0BDCC
:100B70002DE9F04FEDB040F2B63600206A90689053
:100B800069908346FFF706FEFFF744FF4FF0804071
:100B9000FFF7DCFE4FF09040FFF7BEFE06F1640366
:100BA00032468A498A48FFF783FB6C908849894816
:100BB0006C9AFFF7BDFF8748FFF7B0FF6B90FEE030
:100BC0006B9879285ED14FF0000A57E0BAF1000F18
:100BD0000AD181A17E48FFF76BFB6C907C497D4870
:100BE0006C9AFFF7A5FF2AE0B9F10D0F02D0BAF118
:100BF000040F24D168A8FFF70BFC6A906A9831288B
:100C000011DD42F2DE616A9888420CDC6A9E32464F
:100C100080A16F48FFF74CFB6C906D496D486C9A52
:100C2000FFF786FF2DE082A16948FFF741FB6C903A
:100C3000674968486C9AFFF77BFF4FF0FF3A6548B9
:100C4000FFF76CFF8146B9F1300F02DBB9F1390FC4
:100C50000FDDB9F10D0F0CD07EA15D48FFF728FB29
:100C60006C905B495B486C9AFFF762FF4FF0FF3A6C
:100C700002E068A800F80A900AF1010ABAF1050F2B
:100C8000A4DB00BF4FF0000976A15148FFF710FB2D
:100C90006C904F494F486C9AFFF74AFF03E04D486C
:100CA000FFF73CFF8146B9F10D0FF8D100206790A6
:100CB00001904FF08040006920F002004FF0804129
:100CC000086135E04FF08040006900F0020078B321
:100CD000679820B94FF08040446B002525E06FF005
:100CE00000410020091BA84101DA012001904FF0CA
:100CF0008040476B4FF000080198C0EBC070C019EE
:100D0000B0EB040BB3450EDB06F1640083450ADC4F
:100D1000ABEB060002A951F82000401CABEB06012A
:100D200002AA42F821003C4645466798401C67905D
:100D30006798B0F57A7FC5DD4FF0000A1BE002A886
:100D400050F82A00002810DD02A850F82A0006EB0F
:100D50000A024AA34AA100901D48FFF7A9FA6C9025
:100D60001B491C486C9AFFF7E3FE002002A941F8DA
:100D70002A000AF1010ABAF1650FE0DB43A1144829
:100D8000FFF796FA6C90124912486C9AFFF7D0FE62
:100D90001048FFF7C3FE6B906B9879280ED13FA1E6
:100DA0000B48FFF785FA6C9009490A486C9AFFF7DF
:100DB000BFFE0848FFF7B2FE6B9000E000E0FFE6E0
:100DC00000BF00206DB000F075B80000F40E000800
:100DD00000000020004400400D0A456E746572203A
:100DE0006E65772076616C756520666F72206C6F1A
:100DF000776572206C696D697420696E207468650E
:100E00002072616E67652035302D393935303A20D2
:100E1000000000000D0A4E6577206C6F7765722028
:100E20006C696D69742069733A20256400000000C4
:100E30000D0A496E76616C696420696E7075742E56
:100E4000204E6F742077697468696E2072616E67D6
:100E500065210000496E76616C696420696E707569
:100E6000742100000D0A507265737320456E74651D
:100E70007220746F20626567696E00002020000098
:100E80002564257325640D0A0000000052756E204C
:100E9000616761696E28792F6E293F000D0A4368EA
:100EA000616E6765206C696D6974733F28792F6E78
:100EB000290D0A0030BCBDE8C08F000010B5002924
:100EC0000AD00878002807D005487844FFF71AFCB4
:100ED000002801D0002010BD0248784410BD000059
:100EE0008E000000860000004FF04070E1EE100A16
:100EF000704700004C6F776572206C696D697420D3
:100F000069732025642E0D0A5570706572206C6916
:100F10006D69742069732025642E0D0A2009446FC1
:100F200020796F75207769736820746F206368611A
:100F30006E67652074686573652076616C7565738E
:100F40002028792F6E293F0068100008000000203B
:100F500060070000C4010008100100004300000009
:100F6000F8FFFFFF004040404040404040404141CA
:100F7000414141404040404040404040404040406E
:100F80004040404040050202020202020202020208
:100F90000202020202202020202020202020200205
:100FA0000202020202029090909090901010101095
:100FB0001010101010101010101010101010101031
:100FC00002020202020288888888888808080808C5
:100FD0000808080808080808080808080808080891
:100FE00002020202400000000000000000000000B9
:100FF00000000000000000000000000000000000F1
:1010000000000000000000000000000000000000E0
:1010100000000000000000000000000000000000D0
:1010200000000000000000000000000000000000C0
:1010300000000000000000000000000000000000B0
:1010400000000000000000000000000000000000A0
:101050000000000000000000000000000000000090
:08106000000000000000000088
:040000050800018965
:00000001FF
